{
  "_format": "hh-sol-artifact-1",
  "contractName": "DomainNotifier",
  "sourceName": "contracts/DomainNotifier.sol",
  "abi": [
    {
      "anonymous": false,
      "inputs": [
        {
          "indexed": true,
          "internalType": "bytes32",
          "name": "node",
          "type": "bytes32"
        }
      ],
      "name": "DomainUpdated",
      "type": "event"
    },
    {
      "constant": false,
      "inputs": [
        {
          "internalType": "bytes32",
          "name": "node",
          "type": "bytes32"
        }
      ],
      "name": "domainUpdated",
      "outputs": [],
      "payable": false,
      "stateMutability": "nonpayable",
      "type": "function"
    }
  ],
  "bytecode": "0x6080604052348015600f57600080fd5b5060bd8061001e6000396000f3fe6080604052348015600f57600080fd5b506004361060285760003560e01c80636161016414602d575b600080fd5b605660048036036020811015604157600080fd5b81019080803590602001909291905050506058565b005b807f8c7bc2aee1d48bb46b825273bef0ffd000ccf7d354d5be84bd1e7fe6a208db4960405160405180910390a25056fea265627a7a7231582033e16ec71aba53123e0a29df4d804f60aedc5d9a474b03aea7d56c5a40c0db6664736f6c63430005110032",
  "linkReferences": {},
  "deployedLinkReferences": {}
}