{
  "_format": "hh-sol-artifact-1",
  "contractName": "RoleDefinitionResolver",
  "sourceName": "contracts/RoleDefinitionResolver.sol",
  "abi": [
    {
      "inputs": [
        {
          "internalType": "contract ENS",
          "name": "_ens",
          "type": "address"
        },
        {
          "internalType": "contract DomainNotifier",
          "name": "_notifier",
          "type": "address"
        }
      ],
      "payable": false,
      "stateMutability": "nonpayable",
      "type": "constructor"
    },
    {
      "anonymous": false,
      "inputs": [
        {
          "indexed": true,
          "internalType": "bytes32",
          "name": "node",
          "type": "bytes32"
        },
        {
          "indexed": true,
          "internalType": "uint256",
          "name": "contentType",
          "type": "uint256"
        }
      ],
      "name": "ABIChanged",
      "type": "event"
    },
    {
      "anonymous": false,
      "inputs": [
        {
          "indexed": true,
          "internalType": "bytes32",
          "name": "node",
          "type": "bytes32"
        },
        {
          "indexed": false,
          "internalType": "address",
          "name": "a",
          "type": "address"
        }
      ],
      "name": "AddrChanged",
      "type": "event"
    },
    {
      "anonymous": false,
      "inputs": [
        {
          "indexed": true,
          "internalType": "bytes32",
          "name": "node",
          "type": "bytes32"
        },
        {
          "indexed": false,
          "internalType": "uint256",
          "name": "coinType",
          "type": "uint256"
        },
        {
          "indexed": false,
          "internalType": "bytes",
          "name": "newAddress",
          "type": "bytes"
        }
      ],
      "name": "AddressChanged",
      "type": "event"
    },
    {
      "anonymous": false,
      "inputs": [
        {
          "indexed": true,
          "internalType": "bytes32",
          "name": "node",
          "type": "bytes32"
        },
        {
          "indexed": true,
          "internalType": "address",
          "name": "owner",
          "type": "address"
        },
        {
          "indexed": true,
          "internalType": "address",
          "name": "target",
          "type": "address"
        },
        {
          "indexed": false,
          "internalType": "bool",
          "name": "isAuthorised",
          "type": "bool"
        }
      ],
      "name": "AuthorisationChanged",
      "type": "event"
    },
    {
      "anonymous": false,
      "inputs": [
        {
          "indexed": true,
          "internalType": "bytes32",
          "name": "node",
          "type": "bytes32"
        },
        {
          "indexed": false,
          "internalType": "bytes",
          "name": "hash",
          "type": "bytes"
        }
      ],
      "name": "ContenthashChanged",
      "type": "event"
    },
    {
      "anonymous": false,
      "inputs": [
        {
          "indexed": true,
          "internalType": "bytes32",
          "name": "node",
          "type": "bytes32"
        },
        {
          "indexed": false,
          "internalType": "bytes",
          "name": "name",
          "type": "bytes"
        },
        {
          "indexed": false,
          "internalType": "uint16",
          "name": "resource",
          "type": "uint16"
        },
        {
          "indexed": false,
          "internalType": "bytes",
          "name": "record",
          "type": "bytes"
        }
      ],
      "name": "DNSRecordChanged",
      "type": "event"
    },
    {
      "anonymous": false,
      "inputs": [
        {
          "indexed": true,
          "internalType": "bytes32",
          "name": "node",
          "type": "bytes32"
        },
        {
          "indexed": false,
          "internalType": "bytes",
          "name": "name",
          "type": "bytes"
        },
        {
          "indexed": false,
          "internalType": "uint16",
          "name": "resource",
          "type": "uint16"
        }
      ],
      "name": "DNSRecordDeleted",
      "type": "event"
    },
    {
      "anonymous": false,
      "inputs": [
        {
          "indexed": true,
          "internalType": "bytes32",
          "name": "node",
          "type": "bytes32"
        }
      ],
      "name": "DNSZoneCleared",
      "type": "event"
    },
    {
      "anonymous": false,
      "inputs": [
        {
          "indexed": true,
          "internalType": "bytes32",
          "name": "node",
          "type": "bytes32"
        },
        {
          "indexed": false,
          "internalType": "uint256",
          "name": "addedType",
          "type": "uint256"
        }
      ],
      "name": "EnrolmentConditionTypeAdded",
      "type": "event"
    },
    {
      "anonymous": false,
      "inputs": [
        {
          "indexed": true,
          "internalType": "bytes32",
          "name": "node",
          "type": "bytes32"
        },
        {
          "indexed": false,
          "internalType": "uint256",
          "name": "removedType",
          "type": "uint256"
        }
      ],
      "name": "EnrolmentConditionTypeRemoved",
      "type": "event"
    },
    {
      "anonymous": false,
      "inputs": [
        {
          "indexed": true,
          "internalType": "bytes32",
          "name": "node",
          "type": "bytes32"
        },
        {
          "indexed": true,
          "internalType": "bytes4",
          "name": "interfaceID",
          "type": "bytes4"
        },
        {
          "indexed": false,
          "internalType": "address",
          "name": "implementer",
          "type": "address"
        }
      ],
      "name": "InterfaceChanged",
      "type": "event"
    },
    {
      "anonymous": false,
      "inputs": [
        {
          "indexed": true,
          "internalType": "bytes32",
          "name": "node",
          "type": "bytes32"
        },
        {
          "indexed": false,
          "internalType": "uint8",
          "name": "newType",
          "type": "uint8"
        }
      ],
      "name": "IssuerTypeChanged",
      "type": "event"
    },
    {
      "anonymous": false,
      "inputs": [
        {
          "indexed": true,
          "internalType": "bytes32",
          "name": "node",
          "type": "bytes32"
        },
        {
          "components": [
            {
              "internalType": "address[]",
              "name": "dids",
              "type": "address[]"
            },
            {
              "internalType": "bytes32",
              "name": "role",
              "type": "bytes32"
            }
          ],
          "indexed": false,
          "internalType": "struct IssuersResolver.Issuers",
          "name": "newIssuers",
          "type": "tuple"
        }
      ],
      "name": "IssuersChanged",
      "type": "event"
    },
    {
      "anonymous": false,
      "inputs": [
        {
          "indexed": true,
          "internalType": "bytes32",
          "name": "node",
          "type": "bytes32"
        },
        {
          "indexed": false,
          "internalType": "string",
          "name": "name",
          "type": "string"
        }
      ],
      "name": "NameChanged",
      "type": "event"
    },
    {
      "anonymous": false,
      "inputs": [
        {
          "indexed": true,
          "internalType": "bytes32",
          "name": "node",
          "type": "bytes32"
        },
        {
          "indexed": false,
          "internalType": "bytes32[]",
          "name": "newPrerequisiteRoles",
          "type": "bytes32[]"
        }
      ],
      "name": "PrerequisiteRolesChanged",
      "type": "event"
    },
    {
      "anonymous": false,
      "inputs": [
        {
          "indexed": true,
          "internalType": "bytes32",
          "name": "node",
          "type": "bytes32"
        },
        {
          "indexed": false,
          "internalType": "bytes32",
          "name": "x",
          "type": "bytes32"
        },
        {
          "indexed": false,
          "internalType": "bytes32",
          "name": "y",
          "type": "bytes32"
        }
      ],
      "name": "PubkeyChanged",
      "type": "event"
    },
    {
      "anonymous": false,
      "inputs": [
        {
          "indexed": true,
          "internalType": "bytes32",
          "name": "node",
          "type": "bytes32"
        },
        {
          "indexed": true,
          "internalType": "string",
          "name": "indexedKey",
          "type": "string"
        },
        {
          "indexed": false,
          "internalType": "string",
          "name": "key",
          "type": "string"
        }
      ],
      "name": "TextChanged",
      "type": "event"
    },
    {
      "anonymous": false,
      "inputs": [
        {
          "indexed": true,
          "internalType": "bytes32",
          "name": "node",
          "type": "bytes32"
        },
        {
          "indexed": false,
          "internalType": "string",
          "name": "newVersion",
          "type": "string"
        }
      ],
      "name": "VersionNumberChanged",
      "type": "event"
    },
    {
      "constant": true,
      "inputs": [
        {
          "internalType": "bytes32",
          "name": "node",
          "type": "bytes32"
        },
        {
          "internalType": "uint256",
          "name": "contentTypes",
          "type": "uint256"
        }
      ],
      "name": "ABI",
      "outputs": [
        {
          "internalType": "uint256",
          "name": "",
          "type": "uint256"
        },
        {
          "internalType": "bytes",
          "name": "",
          "type": "bytes"
        }
      ],
      "payable": false,
      "stateMutability": "view",
      "type": "function"
    },
    {
      "constant": false,
      "inputs": [
        {
          "internalType": "bytes32",
          "name": "node",
          "type": "bytes32"
        },
        {
          "internalType": "uint256",
          "name": "conditionType",
          "type": "uint256"
        }
      ],
      "name": "addConditionType",
      "outputs": [],
      "payable": false,
      "stateMutability": "nonpayable",
      "type": "function"
    },
    {
      "constant": true,
      "inputs": [
        {
          "internalType": "bytes32",
          "name": "node",
          "type": "bytes32"
        }
      ],
      "name": "addr",
      "outputs": [
        {
          "internalType": "address payable",
          "name": "",
          "type": "address"
        }
      ],
      "payable": false,
      "stateMutability": "view",
      "type": "function"
    },
    {
      "constant": true,
      "inputs": [
        {
          "internalType": "bytes32",
          "name": "node",
          "type": "bytes32"
        },
        {
          "internalType": "uint256",
          "name": "coinType",
          "type": "uint256"
        }
      ],
      "name": "addr",
      "outputs": [
        {
          "internalType": "bytes",
          "name": "",
          "type": "bytes"
        }
      ],
      "payable": false,
      "stateMutability": "view",
      "type": "function"
    },
    {
      "constant": true,
      "inputs": [
        {
          "internalType": "bytes32",
          "name": "",
          "type": "bytes32"
        },
        {
          "internalType": "address",
          "name": "",
          "type": "address"
        },
        {
          "internalType": "address",
          "name": "",
          "type": "address"
        }
      ],
      "name": "authorisations",
      "outputs": [
        {
          "internalType": "bool",
          "name": "",
          "type": "bool"
        }
      ],
      "payable": false,
      "stateMutability": "view",
      "type": "function"
    },
    {
      "constant": false,
      "inputs": [
        {
          "internalType": "bytes32",
          "name": "node",
          "type": "bytes32"
        }
      ],
      "name": "clearDNSZone",
      "outputs": [],
      "payable": false,
      "stateMutability": "nonpayable",
      "type": "function"
    },
    {
      "constant": true,
      "inputs": [
        {
          "internalType": "bytes32",
          "name": "",
          "type": "bytes32"
        },
        {
          "internalType": "uint256",
          "name": "",
          "type": "uint256"
        }
      ],
      "name": "conditionTypes",
      "outputs": [
        {
          "internalType": "bool",
          "name": "",
          "type": "bool"
        }
      ],
      "payable": false,
      "stateMutability": "view",
      "type": "function"
    },
    {
      "constant": true,
      "inputs": [
        {
          "internalType": "bytes32",
          "name": "node",
          "type": "bytes32"
        }
      ],
      "name": "contenthash",
      "outputs": [
        {
          "internalType": "bytes",
          "name": "",
          "type": "bytes"
        }
      ],
      "payable": false,
      "stateMutability": "view",
      "type": "function"
    },
    {
      "constant": true,
      "inputs": [
        {
          "internalType": "bytes32",
          "name": "node",
          "type": "bytes32"
        },
        {
          "internalType": "bytes32",
          "name": "name",
          "type": "bytes32"
        },
        {
          "internalType": "uint16",
          "name": "resource",
          "type": "uint16"
        }
      ],
      "name": "dnsRecord",
      "outputs": [
        {
          "internalType": "bytes",
          "name": "",
          "type": "bytes"
        }
      ],
      "payable": false,
      "stateMutability": "view",
      "type": "function"
    },
    {
      "constant": false,
      "inputs": [
        {
          "internalType": "bytes32",
          "name": "node",
          "type": "bytes32"
        }
      ],
      "name": "domainUpdated",
      "outputs": [],
      "payable": false,
      "stateMutability": "nonpayable",
      "type": "function"
    },
    {
      "constant": true,
      "inputs": [
        {
          "internalType": "bytes32",
          "name": "node",
          "type": "bytes32"
        },
        {
          "internalType": "bytes32",
          "name": "name",
          "type": "bytes32"
        }
      ],
      "name": "hasDNSRecords",
      "outputs": [
        {
          "internalType": "bool",
          "name": "",
          "type": "bool"
        }
      ],
      "payable": false,
      "stateMutability": "view",
      "type": "function"
    },
    {
      "constant": true,
      "inputs": [
        {
          "internalType": "bytes32",
          "name": "node",
          "type": "bytes32"
        },
        {
          "internalType": "bytes4",
          "name": "interfaceID",
          "type": "bytes4"
        }
      ],
      "name": "interfaceImplementer",
      "outputs": [
        {
          "internalType": "address",
          "name": "",
          "type": "address"
        }
      ],
      "payable": false,
      "stateMutability": "view",
      "type": "function"
    },
    {
      "constant": true,
      "inputs": [
        {
          "internalType": "bytes32",
          "name": "node",
          "type": "bytes32"
        }
      ],
      "name": "issuerType",
      "outputs": [
        {
          "internalType": "uint8",
          "name": "",
          "type": "uint8"
        }
      ],
      "payable": false,
      "stateMutability": "view",
      "type": "function"
    },
    {
      "constant": true,
      "inputs": [
        {
          "internalType": "bytes32",
          "name": "",
          "type": "bytes32"
        }
      ],
      "name": "issuerTypes",
      "outputs": [
        {
          "internalType": "uint8",
          "name": "",
          "type": "uint8"
        }
      ],
      "payable": false,
      "stateMutability": "view",
      "type": "function"
    },
    {
      "constant": true,
      "inputs": [
        {
          "internalType": "bytes32",
          "name": "node",
          "type": "bytes32"
        }
      ],
      "name": "issuers",
      "outputs": [
        {
          "internalType": "address[]",
          "name": "dids",
          "type": "address[]"
        },
        {
          "internalType": "bytes32",
          "name": "role",
          "type": "bytes32"
        }
      ],
      "payable": false,
      "stateMutability": "view",
      "type": "function"
    },
    {
      "constant": false,
      "inputs": [
        {
          "internalType": "bytes[]",
          "name": "data",
          "type": "bytes[]"
        }
      ],
      "name": "multicall",
      "outputs": [
        {
          "internalType": "bytes[]",
          "name": "results",
          "type": "bytes[]"
        }
      ],
      "payable": false,
      "stateMutability": "nonpayable",
      "type": "function"
    },
    {
      "constant": true,
      "inputs": [
        {
          "internalType": "bytes32",
          "name": "node",
          "type": "bytes32"
        }
      ],
      "name": "name",
      "outputs": [
        {
          "internalType": "string",
          "name": "",
          "type": "string"
        }
      ],
      "payable": false,
      "stateMutability": "view",
      "type": "function"
    },
    {
      "constant": true,
      "inputs": [
        {
          "internalType": "bytes32",
          "name": "node",
          "type": "bytes32"
        }
      ],
      "name": "prerequisiteRoles",
      "outputs": [
        {
          "internalType": "bytes32[]",
          "name": "roles",
          "type": "bytes32[]"
        }
      ],
      "payable": false,
      "stateMutability": "view",
      "type": "function"
    },
    {
      "constant": true,
      "inputs": [
        {
          "internalType": "bytes32",
          "name": "node",
          "type": "bytes32"
        }
      ],
      "name": "pubkey",
      "outputs": [
        {
          "internalType": "bytes32",
          "name": "x",
          "type": "bytes32"
        },
        {
          "internalType": "bytes32",
          "name": "y",
          "type": "bytes32"
        }
      ],
      "payable": false,
      "stateMutability": "view",
      "type": "function"
    },
    {
      "constant": false,
      "inputs": [
        {
          "internalType": "bytes32",
          "name": "node",
          "type": "bytes32"
        },
        {
          "internalType": "uint256",
          "name": "conditionType",
          "type": "uint256"
        }
      ],
      "name": "removeConditionType",
      "outputs": [],
      "payable": false,
      "stateMutability": "nonpayable",
      "type": "function"
    },
    {
      "constant": true,
      "inputs": [
        {
          "internalType": "bytes32",
          "name": "node",
          "type": "bytes32"
        },
        {
          "internalType": "uint256",
          "name": "condition",
          "type": "uint256"
        }
      ],
      "name": "requiresConditionType",
      "outputs": [
        {
          "internalType": "bool",
          "name": "",
          "type": "bool"
        }
      ],
      "payable": false,
      "stateMutability": "view",
      "type": "function"
    },
    {
      "constant": false,
      "inputs": [
        {
          "internalType": "bytes32",
          "name": "node",
          "type": "bytes32"
        },
        {
          "internalType": "uint256",
          "name": "contentType",
          "type": "uint256"
        },
        {
          "internalType": "bytes",
          "name": "data",
          "type": "bytes"
        }
      ],
      "name": "setABI",
      "outputs": [],
      "payable": false,
      "stateMutability": "nonpayable",
      "type": "function"
    },
    {
      "constant": false,
      "inputs": [
        {
          "internalType": "bytes32",
          "name": "node",
          "type": "bytes32"
        },
        {
          "internalType": "uint256",
          "name": "coinType",
          "type": "uint256"
        },
        {
          "internalType": "bytes",
          "name": "a",
          "type": "bytes"
        }
      ],
      "name": "setAddr",
      "outputs": [],
      "payable": false,
      "stateMutability": "nonpayable",
      "type": "function"
    },
    {
      "constant": false,
      "inputs": [
        {
          "internalType": "bytes32",
          "name": "node",
          "type": "bytes32"
        },
        {
          "internalType": "address",
          "name": "a",
          "type": "address"
        }
      ],
      "name": "setAddr",
      "outputs": [],
      "payable": false,
      "stateMutability": "nonpayable",
      "type": "function"
    },
    {
      "constant": false,
      "inputs": [
        {
          "internalType": "bytes32",
          "name": "node",
          "type": "bytes32"
        },
        {
          "internalType": "address",
          "name": "target",
          "type": "address"
        },
        {
          "internalType": "bool",
          "name": "isAuthorised",
          "type": "bool"
        }
      ],
      "name": "setAuthorisation",
      "outputs": [],
      "payable": false,
      "stateMutability": "nonpayable",
      "type": "function"
    },
    {
      "constant": false,
      "inputs": [
        {
          "internalType": "bytes32",
          "name": "node",
          "type": "bytes32"
        },
        {
          "internalType": "bytes",
          "name": "hash",
          "type": "bytes"
        }
      ],
      "name": "setContenthash",
      "outputs": [],
      "payable": false,
      "stateMutability": "nonpayable",
      "type": "function"
    },
    {
      "constant": false,
      "inputs": [
        {
          "internalType": "bytes32",
          "name": "node",
          "type": "bytes32"
        },
        {
          "internalType": "bytes",
          "name": "data",
          "type": "bytes"
        }
      ],
      "name": "setDNSRecords",
      "outputs": [],
      "payable": false,
      "stateMutability": "nonpayable",
      "type": "function"
    },
    {
      "constant": false,
      "inputs": [
        {
          "internalType": "bytes32",
          "name": "node",
          "type": "bytes32"
        },
        {
          "internalType": "bytes4",
          "name": "interfaceID",
          "type": "bytes4"
        },
        {
          "internalType": "address",
          "name": "implementer",
          "type": "address"
        }
      ],
      "name": "setInterface",
      "outputs": [],
      "payable": false,
      "stateMutability": "nonpayable",
      "type": "function"
    },
    {
      "constant": false,
      "inputs": [
        {
          "internalType": "bytes32",
          "name": "node",
          "type": "bytes32"
        },
        {
          "internalType": "address[]",
          "name": "dids",
          "type": "address[]"
        }
      ],
      "name": "setIssuerDids",
      "outputs": [],
      "payable": false,
      "stateMutability": "nonpayable",
      "type": "function"
    },
    {
      "constant": false,
      "inputs": [
        {
          "internalType": "bytes32",
          "name": "node",
          "type": "bytes32"
        },
        {
          "internalType": "bytes32",
          "name": "role",
          "type": "bytes32"
        }
      ],
      "name": "setIssuerRole",
      "outputs": [],
      "payable": false,
      "stateMutability": "nonpayable",
      "type": "function"
    },
    {
      "constant": false,
      "inputs": [
        {
          "internalType": "bytes32",
          "name": "node",
          "type": "bytes32"
        },
        {
          "internalType": "uint8",
          "name": "issuerType",
          "type": "uint8"
        }
      ],
      "name": "setIssuerType",
      "outputs": [],
      "payable": false,
      "stateMutability": "nonpayable",
      "type": "function"
    },
    {
      "constant": false,
      "inputs": [
        {
          "internalType": "bytes32",
          "name": "node",
          "type": "bytes32"
        },
        {
          "internalType": "string",
          "name": "name",
          "type": "string"
        }
      ],
      "name": "setName",
      "outputs": [],
      "payable": false,
      "stateMutability": "nonpayable",
      "type": "function"
    },
    {
      "constant": false,
      "inputs": [
        {
          "internalType": "bytes32",
          "name": "node",
          "type": "bytes32"
        },
        {
          "internalType": "bytes32[]",
          "name": "roles",
          "type": "bytes32[]"
        }
      ],
      "name": "setPrerequisiteRoles",
      "outputs": [],
      "payable": false,
      "stateMutability": "nonpayable",
      "type": "function"
    },
    {
      "constant": false,
      "inputs": [
        {
          "internalType": "bytes32",
          "name": "node",
          "type": "bytes32"
        },
        {
          "internalType": "bytes32",
          "name": "x",
          "type": "bytes32"
        },
        {
          "internalType": "bytes32",
          "name": "y",
          "type": "bytes32"
        }
      ],
      "name": "setPubkey",
      "outputs": [],
      "payable": false,
      "stateMutability": "nonpayable",
      "type": "function"
    },
    {
      "constant": false,
      "inputs": [
        {
          "internalType": "bytes32",
          "name": "node",
          "type": "bytes32"
        },
        {
          "internalType": "string",
          "name": "key",
          "type": "string"
        },
        {
          "internalType": "string",
          "name": "value",
          "type": "string"
        }
      ],
      "name": "setText",
      "outputs": [],
      "payable": false,
      "stateMutability": "nonpayable",
      "type": "function"
    },
    {
      "constant": false,
      "inputs": [
        {
          "internalType": "bytes32",
          "name": "node",
          "type": "bytes32"
        },
        {
          "internalType": "string",
          "name": "versionNumber",
          "type": "string"
        }
      ],
      "name": "setVersionNumber",
      "outputs": [],
      "payable": false,
      "stateMutability": "nonpayable",
      "type": "function"
    },
    {
      "constant": true,
      "inputs": [
        {
          "internalType": "bytes4",
          "name": "interfaceID",
          "type": "bytes4"
        }
      ],
      "name": "supportsInterface",
      "outputs": [
        {
          "internalType": "bool",
          "name": "",
          "type": "bool"
        }
      ],
      "payable": false,
      "stateMutability": "pure",
      "type": "function"
    },
    {
      "constant": true,
      "inputs": [
        {
          "internalType": "bytes32",
          "name": "node",
          "type": "bytes32"
        },
        {
          "internalType": "string",
          "name": "key",
          "type": "string"
        }
      ],
      "name": "text",
      "outputs": [
        {
          "internalType": "string",
          "name": "",
          "type": "string"
        }
      ],
      "payable": false,
      "stateMutability": "view",
      "type": "function"
    },
    {
      "constant": true,
      "inputs": [
        {
          "internalType": "bytes32",
          "name": "node",
          "type": "bytes32"
        }
      ],
      "name": "versionNumber",
      "outputs": [
        {
          "internalType": "string",
          "name": "",
          "type": "string"
        }
      ],
      "payable": false,
      "stateMutability": "view",
      "type": "function"
    },
    {
      "constant": true,
      "inputs": [
        {
          "internalType": "bytes32",
          "name": "",
          "type": "bytes32"
        }
      ],
      "name": "versionNumbers",
      "outputs": [
        {
          "internalType": "string",
          "name": "",
          "type": "string"
        }
      ],
      "payable": false,
      "stateMutability": "view",
      "type": "function"
    }
  ],
  "bytecode": "0x60806040523480156200001157600080fd5b5060405162004fe038038062004fe08339818101604052620000379190810190620000f1565b8180600a60006101000a81548173ffffffffffffffffffffffffffffffffffffffff021916908373ffffffffffffffffffffffffffffffffffffffff1602179055505080601160006101000a81548173ffffffffffffffffffffffffffffffffffffffff021916908373ffffffffffffffffffffffffffffffffffffffff1602179055505050620001c2565b600081519050620000d4816200018e565b92915050565b600081519050620000eb81620001a8565b92915050565b600080604083850312156200010557600080fd5b60006200011585828601620000da565b92505060206200012885828601620000c3565b9150509250929050565b60006200013f826200016e565b9050919050565b6000620001538262000132565b9050919050565b6000620001678262000132565b9050919050565b600073ffffffffffffffffffffffffffffffffffffffff82169050919050565b620001998162000146565b8114620001a557600080fd5b50565b620001b3816200015a565b8114620001bf57600080fd5b50565b614e0e80620001d26000396000f3fe608060405234801561001057600080fd5b50600436106102485760003560e01c8063916b848a1161013b578063c585f697116100b8578063d5fa2b001161007c578063d5fa2b00146107a0578063e2173f54146107bc578063e59d895d146107d8578063f1cb7e06146107f4578063f86bc8791461082457610248565b8063c585f697146106c3578063c7b24e23146106f3578063c86902331461070f578063c986c40414610740578063d055e4f81461077057610248565b8063ad5780af116100ff578063ad5780af146105fa578063afe767c614610616578063bad72cbe14610646578063bc1c58d114610662578063c53a44131461069257610248565b8063916b848a146105325780639c4e8ad01461054e578063a364d91d1461057e578063a8fa56821461059a578063ac9650d8146105ca57610248565b80634cbf6ba4116101c9578063623195b01161018d578063623195b014610492578063691f3431146104ae57806377372213146104de57806382e79620146104fa5780638b95dd711461051657610248565b80634cbf6ba4146103ca5780635146bd64146103fa57806355329f3f1461042a57806359d1d43c14610446578063616101641461047657610248565b806329cd62ea1161021057806329cd62ea14610316578063304e6ade14610332578063338bc8fa1461034e5780633b3b57de1461037e5780633e9ce794146103ae57610248565b806301ffc9a71461024d5780630af179d71461027d57806310f13a8c14610299578063124a319c146102b55780632203ab56146102e5575b600080fd5b61026760048036036102629190810190613fdc565b610854565b6040516102749190614725565b60405180910390f35b61029760048036036102929190810190613d58565b6108b5565b005b6102b360048036036102ae9190810190613e08565b610ae3565b005b6102cf60048036036102ca9190810190613ccd565b610b91565b6040516102dc919061463e565b60405180910390f35b6102ff60048036036102fa9190810190613e91565b610f7c565b60405161030d929190614921565b60405180910390f35b610330600480360361032b9190810190613c2f565b6110cb565b005b61034c60048036036103479190810190613d58565b61115d565b005b61036860048036036103639190810190613a40565b6111d3565b60405161037591906148a0565b60405180910390f35b61039860048036036103939190810190613a40565b611288565b6040516103a59190614674565b60405180910390f35b6103c860048036036103c39190810190613af4565b6112bf565b005b6103e460048036036103df9190810190613bf3565b6113cf565b6040516103f19190614725565b60405180910390f35b610414600480360361040f9190810190613a40565b611437565b604051610421919061487e565b60405180910390f35b610444600480360361043f9190810190613fa0565b6114e7565b005b610460600480360361045b9190810190613db0565b611583565b60405161046d91906148a0565b60405180910390f35b610490600480360361048b9190810190613a40565b611658565b005b6104ac60048036036104a79190810190613ecd565b6116fc565b005b6104c860048036036104c39190810190613a40565b611789565b6040516104d591906148a0565b60405180910390f35b6104f860048036036104f39190810190613db0565b61183e565b005b610514600480360361050f9190810190613db0565b6118b4565b005b610530600480360361052b9190810190613f39565b61193a565b005b61054c60048036036105479190810190613bf3565b611a10565b005b61056860048036036105639190810190613e91565b611aaf565b6040516105759190614725565b60405180910390f35b61059860048036036105939190810190613e91565b611ade565b005b6105b460048036036105af9190810190613c7e565b611baa565b6040516105c191906147c3565b60405180910390f35b6105e460048036036105df91908101906139fb565b611caf565b6040516105f19190614703565b60405180910390f35b610614600480360361060f9190810190613a40565b611e05565b005b610630600480360361062b9190810190613e91565b611e6c565b60405161063d9190614725565b60405180910390f35b610660600480360361065b9190810190613b43565b611ea8565b005b61067c60048036036106779190810190613a40565b611f4b565b60405161068991906147c3565b60405180910390f35b6106ac60048036036106a79190810190613a40565b612000565b6040516106ba92919061468f565b60405180910390f35b6106dd60048036036106d89190810190613a40565b6120c2565b6040516106ea9190614951565b60405180910390f35b61070d60048036036107089190810190613b9b565b6120ec565b005b61072960048036036107249190810190613a40565b612172565b60405161073792919061475b565b60405180910390f35b61075a60048036036107559190810190613a40565b6121ac565b60405161076791906146bf565b60405180910390f35b61078a60048036036107859190810190613a40565b612217565b6040516107979190614951565b60405180910390f35b6107ba60048036036107b59190810190613a69565b612237565b005b6107d660048036036107d19190810190613e91565b612263565b005b6107f260048036036107ed9190810190613d09565b61232f565b005b61080e60048036036108099190810190613e91565b612441565b60405161081b91906147c3565b60405180910390f35b61083e60048036036108399190810190613aa5565b612508565b60405161084b9190614725565b60405180910390f35b6000636161016460e01b7bffffffffffffffffffffffffffffffffffffffffffffffffffffffff1916827bffffffffffffffffffffffffffffffffffffffffffffffffffffffff191614806108ae57506108ad82612544565b5b9050919050565b826108bf816125a5565b6108c857600080fd5b6000809050600080905060608060006108df6133b6565b61093760008a8a8080601f016020809104026020016040519081016040528093929190818152602001838380828437600081840152601f19601f8201169050808301925050505050505061272e90919063ffffffff16565b90505b61094381612758565b610a705760008661ffff16141561099f57806040015195506109648161276e565b93508360405160200161097791906145f9565b604051602081830303815290604052805190602001209150610998816127a5565b9250610a62565b60606109aa8261276e565b9050816040015161ffff168761ffff161415806109d757506109d581866127d590919063ffffffff16565b155b15610a6057610a398b86898d8d8080601f016020809104026020016040519081016040528093929190818152602001838380828437600081840152601f19601f820116905080830192505050505050508a8b88602001510360008b51146127fc565b816040015196508160200151955080945084805190602001209250610a5d826127a5565b93505b505b610a6b81612b2c565b61093a565b50600083511115610ad857610ad78984878b8b8080601f016020809104026020016040519081016040528093929190818152602001838380828437600081840152601f19601f8201169050808301925050505050505088898e8e90500360008951146127fc565b5b505050505050505050565b84610aed816125a5565b610af657600080fd5b8282600960008981526020019081526020016000208787604051610b1b929190614610565b90815260200160405180910390209190610b36929190613401565b508484604051610b47929190614610565b6040518091039020867fd8c9334b1a9c2f9da342a0a2b32629c1a229b6445dad78947f674b44444a75508787604051610b8192919061485a565b60405180910390a3505050505050565b600080600660008581526020019081526020016000206000847bffffffffffffffffffffffffffffffffffffffffffffffffffffffff19167bffffffffffffffffffffffffffffffffffffffffffffffffffffffff1916815260200190815260200160002060009054906101000a900473ffffffffffffffffffffffffffffffffffffffff169050600073ffffffffffffffffffffffffffffffffffffffff168173ffffffffffffffffffffffffffffffffffffffff1614610c565780915050610f76565b6000610c6185611288565b9050600073ffffffffffffffffffffffffffffffffffffffff168173ffffffffffffffffffffffffffffffffffffffff161415610ca357600092505050610f76565b600060608273ffffffffffffffffffffffffffffffffffffffff166301ffc9a760e01b604051602401610cd69190614784565b6040516020818303038152906040527f01ffc9a7000000000000000000000000000000000000000000000000000000007bffffffffffffffffffffffffffffffffffffffffffffffffffffffff19166020820180517bffffffffffffffffffffffffffffffffffffffffffffffffffffffff8381831617835250505050604051610d6091906145f9565b600060405180830381855afa9150503d8060008114610d9b576040519150601f19603f3d011682016040523d82523d6000602084013e610da0565b606091505b5091509150811580610db3575060208151105b80610dfa5750600060f81b81601f81518110610dcb57fe5b602001015160f81c60f81b7effffffffffffffffffffffffffffffffffffffffffffffffffffffffffffff1916145b15610e0c576000945050505050610f76565b8273ffffffffffffffffffffffffffffffffffffffff1686604051602401610e349190614784565b6040516020818303038152906040527f01ffc9a7000000000000000000000000000000000000000000000000000000007bffffffffffffffffffffffffffffffffffffffffffffffffffffffff19166020820180517bffffffffffffffffffffffffffffffffffffffffffffffffffffffff8381831617835250505050604051610ebe91906145f9565b600060405180830381855afa9150503d8060008114610ef9576040519150601f19603f3d011682016040523d82523d6000602084013e610efe565b606091505b508092508193505050811580610f15575060208151105b80610f5c5750600060f81b81601f81518110610f2d57fe5b602001015160f81c60f81b7effffffffffffffffffffffffffffffffffffffffffffffffffffffffffffff1916145b15610f6e576000945050505050610f76565b829450505050505b92915050565b60006060600080600086815260200190815260200160002090506000600190505b8481116110a857600085821614158015610fdd57506000826000838152602001908152602001600020805460018160011615610100020316600290049050115b1561109c5780826000838152602001908152602001600020808054600181600116156101000203166002900480601f01602080910402602001604051908101604052809291908181526020018280546001816001161561010002031660029004801561108a5780601f1061105f5761010080835404028352916020019161108a565b820191906000526020600020905b81548152906001019060200180831161106d57829003601f168201915b505050505090509350935050506110c4565b600181901b9050610f9d565b5060006040518060200160405280600081525081915092509250505b9250929050565b826110d5816125a5565b6110de57600080fd5b604051806040016040528084815260200183815250600860008681526020019081526020016000206000820151816000015560208201518160010155905050837f1d6f5e03d3f63eb58751986629a5439baee5079ff04f345becb66e23eb154e46848460405161114f92919061475b565b60405180910390a250505050565b82611167816125a5565b61117057600080fd5b8282600260008781526020019081526020016000209190611192929190613481565b50837fe379c1624ed7e714cc0937528a32359d69d5281337765313dba4e081b72d757884846040516111c592919061479f565b60405180910390a250505050565b6060600c60008381526020019081526020016000208054600181600116156101000203166002900480601f01602080910402602001604051908101604052809291908181526020018280546001816001161561010002031660029004801561127c5780601f106112515761010080835404028352916020019161127c565b820191906000526020600020905b81548152906001019060200180831161125f57829003601f168201915b50505050509050919050565b6000606061129783603c612441565b90506000815114156112ad5760009150506112ba565b6112b681612c40565b9150505b919050565b80600b600085815260200190815260200160002060003373ffffffffffffffffffffffffffffffffffffffff1673ffffffffffffffffffffffffffffffffffffffff16815260200190815260200160002060008473ffffffffffffffffffffffffffffffffffffffff1673ffffffffffffffffffffffffffffffffffffffff16815260200190815260200160002060006101000a81548160ff0219169083151502179055508173ffffffffffffffffffffffffffffffffffffffff163373ffffffffffffffffffffffffffffffffffffffff16847fe1c5610a6e0cbe10764ecd182adcef1ec338dc4e199c99c32ce98f38e12791df846040516113c29190614725565b60405180910390a4505050565b60008060056000858152602001908152602001600020600060036000878152602001908152602001600020548152602001908152602001600020600084815260200190815260200160002060009054906101000a900461ffff1661ffff161415905092915050565b600c6020528060005260406000206000915090508054600181600116156101000203166002900480601f0160208091040260200160405190810160405280929190818152602001828054600181600116156101000203166002900480156114df5780601f106114b4576101008083540402835291602001916114df565b820191906000526020600020905b8154815290600101906020018083116114c257829003601f168201915b505050505081565b816114f1816125a5565b6114fa57600080fd5b81600d600085815260200190815260200160002060006101000a81548160ff021916908360ff160217905550827f7fc5f6d56736f6859a63066a1e8f557dc0b34a3a0af625f99db5a258963399d3600d600086815260200190815260200160002060009054906101000a900460ff166040516115769190614951565b60405180910390a2505050565b60606009600085815260200190815260200160002083836040516115a8929190614610565b90815260200160405180910390208054600181600116156101000203166002900480601f01602080910402602001604051908101604052809291908181526020018280546001816001161561010002031660029004801561164a5780601f1061161f5761010080835404028352916020019161164a565b820191906000526020600020905b81548152906001019060200180831161162d57829003601f168201915b505050505090509392505050565b80611662816125a5565b61166b57600080fd5b601160009054906101000a900473ffffffffffffffffffffffffffffffffffffffff1673ffffffffffffffffffffffffffffffffffffffff166361610164836040518263ffffffff1660e01b81526004016116c69190614740565b600060405180830381600087803b1580156116e057600080fd5b505af11580156116f4573d6000803e3d6000fd5b505050505050565b83611706816125a5565b61170f57600080fd5b60008460018603161461172157600080fd5b828260008088815260200190815260200160002060008781526020019081526020016000209190611753929190613481565b5083857faa121bbeef5f32f5961a2a28966e769023910fc9479059ee3495d4c1a696efe360405160405180910390a35050505050565b6060600760008381526020019081526020016000208054600181600116156101000203166002900480601f0160208091040260200160405190810160405280929190818152602001828054600181600116156101000203166002900480156118325780601f1061180757610100808354040283529160200191611832565b820191906000526020600020905b81548152906001019060200180831161181557829003601f168201915b50505050509050919050565b82611848816125a5565b61185157600080fd5b8282600760008781526020019081526020016000209190611873929190613401565b50837fb7d29e911041e8d9b843369e890bcb72c9388692ba48b65ac54e7214c4c348f784846040516118a692919061485a565b60405180910390a250505050565b826118be816125a5565b6118c757600080fd5b8282600c600087815260200190815260200160002091906118e9929190613401565b50837f9c64d95d696dade712680c10d095d4dadaee60d302d030f6ff30d77c2fa35147600c600087815260200190815260200160002060405161192c91906148c2565b60405180910390a250505050565b82611944816125a5565b61194d57600080fd5b837f65412581168e88a1e60c6459d7f44ae83ad0832e670826c05a4e2476b57af752848460405161197f929190614921565b60405180910390a2603c8314156119d157837f52d7d861f09ab3d26239d492e8968629f95e9e318cf0b73bfddc441522a15fd26119bb84612c40565b6040516119c89190614659565b60405180910390a25b816001600086815260200190815260200160002060008581526020019081526020016000209080519060200190611a09929190613501565b5050505050565b81611a1a816125a5565b611a2357600080fd5b81600e600085815260200190815260200160002060010181905550600e60008481526020019081526020016000206000016000611a609190613581565b827fab0ef04b258ea77c9247dad5b03ada5b2ed5b370f62963b9f84bd9066d499e5c600e6000868152602001908152602001600020604051611aa291906148e4565b60405180910390a2505050565b600f6020528160005260406000206020528060005260406000206000915091509054906101000a900460ff1681565b81611ae8816125a5565b611af157600080fd5b60011515600f6000858152602001908152602001600020600084815260200190815260200160002060009054906101000a900460ff1615151415611ba5576000600f6000858152602001908152602001600020600084815260200190815260200160002060006101000a81548160ff021916908315150217905550827f5ac1414b47930d4ad0c77f47c69ebbfe89e68c4bdd0f1fd33d3172775eb363fd83604051611b9c9190614906565b60405180910390a25b505050565b606060046000858152602001908152602001600020600060036000878152602001908152602001600020548152602001908152602001600020600084815260200190815260200160002060008361ffff1661ffff1681526020019081526020016000208054600181600116156101000203166002900480601f016020809104026020016040519081016040528092919081815260200182805460018160011615610100020316600290048015611ca15780601f10611c7657610100808354040283529160200191611ca1565b820191906000526020600020905b815481529060010190602001808311611c8457829003601f168201915b505050505090509392505050565b606082829050604051908082528060200260200182016040528015611ce857816020015b6060815260200190600190039081611cd35790505b50905060008090505b83839050811015611dfb57600060603073ffffffffffffffffffffffffffffffffffffffff16868685818110611d2357fe5b9050602002810180356001602003833603038112611d4057600080fd5b8083019250508135905060208201915067ffffffffffffffff811115611d6557600080fd5b600181023603821315611d7757600080fd5b604051611d859291906145e0565b600060405180830381855af49150503d8060008114611dc0576040519150601f19603f3d011682016040523d82523d6000602084013e611dc5565b606091505b509150915081611dd457600080fd5b80848481518110611de157fe5b602002602001018190525050508080600101915050611cf1565b5080905092915050565b80611e0f816125a5565b611e1857600080fd5b6003600083815260200190815260200160002060008154809291906001019190505550817fb757169b8492ca2f1c6619d9d76ce22803035c3b1d5f6930dffe7b127c1a198360405160405180910390a25050565b6000600f6000848152602001908152602001600020600083815260200190815260200160002060009054906101000a900460ff16905092915050565b82611eb2816125a5565b611ebb57600080fd5b8282600e60008781526020019081526020016000206000019190611ee09291906135a2565b50600e600085815260200190815260200160002060010160009055837fab0ef04b258ea77c9247dad5b03ada5b2ed5b370f62963b9f84bd9066d499e5c600e6000878152602001908152602001600020604051611f3d91906148e4565b60405180910390a250505050565b6060600260008381526020019081526020016000208054600181600116156101000203166002900480601f016020809104026020016040519081016040528092919081815260200182805460018160011615610100020316600290048015611ff45780601f10611fc957610100808354040283529160200191611ff4565b820191906000526020600020905b815481529060010190602001808311611fd757829003601f168201915b50505050509050919050565b60606000600e6000848152602001908152602001600020600001600e600085815260200190815260200160002060010154818054806020026020016040519081016040528092919081815260200182805480156120b257602002820191906000526020600020905b8160009054906101000a900473ffffffffffffffffffffffffffffffffffffffff1673ffffffffffffffffffffffffffffffffffffffff1681526020019060010190808311612068575b5050505050915091509150915091565b6000600d600083815260200190815260200160002060009054906101000a900460ff169050919050565b826120f6816125a5565b6120ff57600080fd5b8282601060008781526020019081526020016000209190612121929190613642565b50837f7cfaaaaecccb264a886d12a7242843edafee25a939747c5b94c8a2b4eb44c3386010600087815260200190815260200160002060405161216491906146e1565b60405180910390a250505050565b6000806008600084815260200190815260200160002060000154600860008581526020019081526020016000206001015491509150915091565b60606010600083815260200190815260200160002080548060200260200160405190810160405280929190818152602001828054801561220b57602002820191906000526020600020905b8154815260200190600101908083116121f7575b50505050509050919050565b600d6020528060005260406000206000915054906101000a900460ff1681565b81612241816125a5565b61224a57600080fd5b61225e83603c61225985612c63565b61193a565b505050565b8161226d816125a5565b61227657600080fd5b60001515600f6000858152602001908152602001600020600084815260200190815260200160002060009054906101000a900460ff161515141561232a576001600f6000858152602001908152602001600020600084815260200190815260200160002060006101000a81548160ff021916908315150217905550827fd3fc6df4f8e11bb656345bcadf975802828de54c04eedb91954350b6a2cd70b3836040516123219190614906565b60405180910390a25b505050565b82612339816125a5565b61234257600080fd5b81600660008681526020019081526020016000206000857bffffffffffffffffffffffffffffffffffffffffffffffffffffffff19167bffffffffffffffffffffffffffffffffffffffffffffffffffffffff1916815260200190815260200160002060006101000a81548173ffffffffffffffffffffffffffffffffffffffff021916908373ffffffffffffffffffffffffffffffffffffffff160217905550827bffffffffffffffffffffffffffffffffffffffffffffffffffffffff1916847f7c69f06bea0bdef565b709e93a147836b0063ba2dd89f02d0b7e8d931e6a6daa84604051612433919061463e565b60405180910390a350505050565b60606001600084815260200190815260200160002060008381526020019081526020016000208054600181600116156101000203166002900480601f0160208091040260200160405190810160405280929190818152602001828054600181600116156101000203166002900480156124fb5780601f106124d0576101008083540402835291602001916124fb565b820191906000526020600020905b8154815290600101906020018083116124de57829003601f168201915b5050505050905092915050565b600b602052826000526040600020602052816000526040600020602052806000526040600020600092509250509054906101000a900460ff1681565b600063c986c40460e01b7bffffffffffffffffffffffffffffffffffffffffffffffffffffffff1916827bffffffffffffffffffffffffffffffffffffffffffffffffffffffff1916148061259e575061259d82612cae565b5b9050919050565b600080600a60009054906101000a900473ffffffffffffffffffffffffffffffffffffffff1673ffffffffffffffffffffffffffffffffffffffff166302571be3846040518263ffffffff1660e01b81526004016126039190614740565b60206040518083038186803b15801561261b57600080fd5b505afa15801561262f573d6000803e3d6000fd5b505050506040513d601f19601f8201168201806040525061265391908101906139d2565b90503373ffffffffffffffffffffffffffffffffffffffff168173ffffffffffffffffffffffffffffffffffffffff1614806127265750600b600084815260200190815260200160002060008273ffffffffffffffffffffffffffffffffffffffff1673ffffffffffffffffffffffffffffffffffffffff16815260200190815260200160002060003373ffffffffffffffffffffffffffffffffffffffff1673ffffffffffffffffffffffffffffffffffffffff16815260200190815260200160002060009054906101000a900460ff165b915050919050565b6127366133b6565b828160000181905250818160c001818152505061275281612b2c565b92915050565b6000816000015151826020015110159050919050565b606061279e826020015161278a84600001518560200151612d0f565b8460000151612d6a9092919063ffffffff16565b9050919050565b60606127ce8260a001518360a001518460c00151038460000151612d6a9092919063ffffffff16565b9050919050565b6000815183511480156127f457506127f38360008460008751612ddd565b5b905092915050565b6000600360008981526020019081526020016000205490506000878051906020012090506060612837868689612d6a9092919063ffffffff16565b905083156129ac576000600460008c81526020019081526020016000206000858152602001908152602001600020600084815260200190815260200160002060008a61ffff1661ffff1681526020019081526020016000208054600181600116156101000203166002900490501461291357600560008b815260200190815260200160002060008481526020019081526020016000206000838152602001908152602001600020600081819054906101000a900461ffff16809291906001900391906101000a81548161ffff021916908361ffff160217905550505b600460008b81526020019081526020016000206000848152602001908152602001600020600083815260200190815260200160002060008961ffff1661ffff168152602001908152602001600020600061296d919061368f565b897f03528ed0c2a3ebc993b12ce3c16bb382f9c7d88ef7d8a1bf290eaf35955a12078a8a60405161299f9291906147e5565b60405180910390a2612b20565b6000600460008c81526020019081526020016000206000858152602001908152602001600020600084815260200190815260200160002060008a61ffff1661ffff1681526020019081526020016000208054600181600116156101000203166002900490501415612a8057600560008b815260200190815260200160002060008481526020019081526020016000206000838152602001908152602001600020600081819054906101000a900461ffff168092919060010191906101000a81548161ffff021916908361ffff160217905550505b80600460008c81526020019081526020016000206000858152602001908152602001600020600084815260200190815260200160002060008a61ffff1661ffff1681526020019081526020016000209080519060200190612ae2929190613501565b50897f52a608b3303a48862d07a73d82fa221318c0027fbbcfb1b2329bface3f19ff2b8a8a84604051612b1793929190614815565b60405180910390a25b50505050505050505050565b8060c00151816020018181525050806000015151816020015110612b4f57612c3d565b6000612b6382600001518360200151612d0f565b8260200151019050612b82818360000151612e0190919063ffffffff16565b826040019061ffff16908161ffff1681525050600281019050612bb2818360000151612e0190919063ffffffff16565b826060019061ffff16908161ffff1681525050600281019050612be2818360000151612e2790919063ffffffff16565b826080019063ffffffff16908163ffffffff16815250506004810190506000612c18828460000151612e0190919063ffffffff16565b61ffff169050600282019150818360a00181815250508082018360c001818152505050505b50565b60006014825114612c5057600080fd5b600c6101000a6020830151049050919050565b606060146040519080825280601f01601f191660200182016040528015612c995781602001600182028038833980820191505090505b509050600c6101000a82026020820152919050565b600063afe767c660e01b7bffffffffffffffffffffffffffffffffffffffffffffffffffffffff1916827bffffffffffffffffffffffffffffffffffffffffffffffffffffffff19161480612d085750612d0782612e4f565b5b9050919050565b6000808290505b600115612d5e5783518110612d2757fe5b6000612d3c8286612eb090919063ffffffff16565b60ff16905060018101820191506000811415612d585750612d5e565b50612d16565b82810391505092915050565b606083518284011115612d7c57600080fd5b6060826040519080825280601f01601f191660200182016040528015612db15781602001600182028038833980820191505090505b5090506000806020830191508560208801019050612dd0828287612ed4565b8293505050509392505050565b6000612dea848484612f1d565b612df5878785612f1d565b14905095945050505050565b60008251600283011115612e1457600080fd5b61ffff8260028501015116905092915050565b60008251600483011115612e3a57600080fd5b63ffffffff8260048501015116905092915050565b600063c53a441360e01b7bffffffffffffffffffffffffffffffffffffffffffffffffffffffff1916827bffffffffffffffffffffffffffffffffffffffffffffffffffffffff19161480612ea95750612ea882612f40565b5b9050919050565b6000828281518110612ebe57fe5b602001015160f81c60f81b60f81c905092915050565b5b60208110612ef85781518352602083019250602082019150602081039050612ed5565b60006001826020036101000a0390508019835116818551168181178652505050505050565b600083518284011115612f2f57600080fd5b818360208601012090509392505050565b600063c585f69760e01b7bffffffffffffffffffffffffffffffffffffffffffffffffffffffff1916827bffffffffffffffffffffffffffffffffffffffffffffffffffffffff19161480612f9a5750612f9982612fa1565b5b9050919050565b600063338bc8fa60e01b7bffffffffffffffffffffffffffffffffffffffffffffffffffffffff1916827bffffffffffffffffffffffffffffffffffffffffffffffffffffffff19161480612ffb5750612ffa82613002565b5b9050919050565b60006359d1d43c60e01b7bffffffffffffffffffffffffffffffffffffffffffffffffffffffff1916827bffffffffffffffffffffffffffffffffffffffffffffffffffffffff1916148061305c575061305b82613063565b5b9050919050565b600063c869023360e01b7bffffffffffffffffffffffffffffffffffffffffffffffffffffffff1916827bffffffffffffffffffffffffffffffffffffffffffffffffffffffff191614806130bd57506130bc826130c4565b5b9050919050565b600063691f343160e01b7bffffffffffffffffffffffffffffffffffffffffffffffffffffffff1916827bffffffffffffffffffffffffffffffffffffffffffffffffffffffff1916148061311e575061311d82613125565b5b9050919050565b600060405161313390614629565b60405180910390207bffffffffffffffffffffffffffffffffffffffffffffffffffffffff1916827bffffffffffffffffffffffffffffffffffffffffffffffffffffffff1916148061318b575061318a82613192565b5b9050919050565b600063a8fa568260e01b7bffffffffffffffffffffffffffffffffffffffffffffffffffffffff1916827bffffffffffffffffffffffffffffffffffffffffffffffffffffffff191614806131ec57506131eb826131f3565b5b9050919050565b600063bc1c58d160e01b7bffffffffffffffffffffffffffffffffffffffffffffffffffffffff1916827bffffffffffffffffffffffffffffffffffffffffffffffffffffffff1916148061324d575061324c82613254565b5b9050919050565b6000633b3b57de60e01b7bffffffffffffffffffffffffffffffffffffffffffffffffffffffff1916827bffffffffffffffffffffffffffffffffffffffffffffffffffffffff191614806132ed575063f1cb7e0660e01b7bffffffffffffffffffffffffffffffffffffffffffffffffffffffff1916827bffffffffffffffffffffffffffffffffffffffffffffffffffffffff1916145b806132fd57506132fc82613304565b5b9050919050565b6000632203ab5660e01b7bffffffffffffffffffffffffffffffffffffffffffffffffffffffff1916827bffffffffffffffffffffffffffffffffffffffffffffffffffffffff1916148061335e575061335d82613365565b5b9050919050565b60006301ffc9a760e01b7bffffffffffffffffffffffffffffffffffffffffffffffffffffffff1916827bffffffffffffffffffffffffffffffffffffffffffffffffffffffff1916149050919050565b6040518060e001604052806060815260200160008152602001600061ffff168152602001600061ffff168152602001600063ffffffff16815260200160008152602001600081525090565b828054600181600116156101000203166002900490600052602060002090601f016020900481019282601f1061344257803560ff1916838001178555613470565b82800160010185558215613470579182015b8281111561346f578235825591602001919060010190613454565b5b50905061347d91906136d7565b5090565b828054600181600116156101000203166002900490600052602060002090601f016020900481019282601f106134c257803560ff19168380011785556134f0565b828001600101855582156134f0579182015b828111156134ef5782358255916020019190600101906134d4565b5b5090506134fd91906136d7565b5090565b828054600181600116156101000203166002900490600052602060002090601f016020900481019282601f1061354257805160ff1916838001178555613570565b82800160010185558215613570579182015b8281111561356f578251825591602001919060010190613554565b5b50905061357d91906136d7565b5090565b508054600082559060005260206000209081019061359f91906136d7565b50565b828054828255906000526020600020908101928215613631579160200282015b8281111561363057823573ffffffffffffffffffffffffffffffffffffffff168260006101000a81548173ffffffffffffffffffffffffffffffffffffffff021916908373ffffffffffffffffffffffffffffffffffffffff160217905550916020019190600101906135c2565b5b50905061363e91906136fc565b5090565b82805482825590600052602060002090810192821561367e579160200282015b8281111561367d578235825591602001919060010190613662565b5b50905061368b919061373f565b5090565b50805460018160011615610100020316600290046000825580601f106136b557506136d4565b601f0160209004906000526020600020908101906136d391906136d7565b5b50565b6136f991905b808211156136f55760008160009055506001016136dd565b5090565b90565b61373c91905b8082111561373857600081816101000a81549073ffffffffffffffffffffffffffffffffffffffff021916905550600101613702565b5090565b90565b61376191905b8082111561375d576000816000905550600101613745565b5090565b90565b60008135905061377381614d2a565b92915050565b60008151905061378881614d2a565b92915050565b60008083601f8401126137a057600080fd5b8235905067ffffffffffffffff8111156137b957600080fd5b6020830191508360208202830111156137d157600080fd5b9250929050565b60008083601f8401126137ea57600080fd5b8235905067ffffffffffffffff81111561380357600080fd5b60208301915083602082028301111561381b57600080fd5b9250929050565b60008083601f84011261383457600080fd5b8235905067ffffffffffffffff81111561384d57600080fd5b60208301915083602082028301111561386557600080fd5b9250929050565b60008135905061387b81614d41565b92915050565b60008135905061389081614d58565b92915050565b6000813590506138a581614d6f565b92915050565b60008083601f8401126138bd57600080fd5b8235905067ffffffffffffffff8111156138d657600080fd5b6020830191508360018202830111156138ee57600080fd5b9250929050565b600082601f83011261390657600080fd5b813561391961391482614999565b61496c565b9150808252602083016020830185838301111561393557600080fd5b613940838284614c70565b50505092915050565b60008083601f84011261395b57600080fd5b8235905067ffffffffffffffff81111561397457600080fd5b60208301915083600182028301111561398c57600080fd5b9250929050565b6000813590506139a281614d86565b92915050565b6000813590506139b781614d9d565b92915050565b6000813590506139cc81614db4565b92915050565b6000602082840312156139e457600080fd5b60006139f284828501613779565b91505092915050565b60008060208385031215613a0e57600080fd5b600083013567ffffffffffffffff811115613a2857600080fd5b613a3485828601613822565b92509250509250929050565b600060208284031215613a5257600080fd5b6000613a6084828501613881565b91505092915050565b60008060408385031215613a7c57600080fd5b6000613a8a85828601613881565b9250506020613a9b85828601613764565b9150509250929050565b600080600060608486031215613aba57600080fd5b6000613ac886828701613881565b9350506020613ad986828701613764565b9250506040613aea86828701613764565b9150509250925092565b600080600060608486031215613b0957600080fd5b6000613b1786828701613881565b9350506020613b2886828701613764565b9250506040613b398682870161386c565b9150509250925092565b600080600060408486031215613b5857600080fd5b6000613b6686828701613881565b935050602084013567ffffffffffffffff811115613b8357600080fd5b613b8f8682870161378e565b92509250509250925092565b600080600060408486031215613bb057600080fd5b6000613bbe86828701613881565b935050602084013567ffffffffffffffff811115613bdb57600080fd5b613be7868287016137d8565b92509250509250925092565b60008060408385031215613c0657600080fd5b6000613c1485828601613881565b9250506020613c2585828601613881565b9150509250929050565b600080600060608486031215613c4457600080fd5b6000613c5286828701613881565b9350506020613c6386828701613881565b9250506040613c7486828701613881565b9150509250925092565b600080600060608486031215613c9357600080fd5b6000613ca186828701613881565b9350506020613cb286828701613881565b9250506040613cc386828701613993565b9150509250925092565b60008060408385031215613ce057600080fd5b6000613cee85828601613881565b9250506020613cff85828601613896565b9150509250929050565b600080600060608486031215613d1e57600080fd5b6000613d2c86828701613881565b9350506020613d3d86828701613896565b9250506040613d4e86828701613764565b9150509250925092565b600080600060408486031215613d6d57600080fd5b6000613d7b86828701613881565b935050602084013567ffffffffffffffff811115613d9857600080fd5b613da4868287016138ab565b92509250509250925092565b600080600060408486031215613dc557600080fd5b6000613dd386828701613881565b935050602084013567ffffffffffffffff811115613df057600080fd5b613dfc86828701613949565b92509250509250925092565b600080600080600060608688031215613e2057600080fd5b6000613e2e88828901613881565b955050602086013567ffffffffffffffff811115613e4b57600080fd5b613e5788828901613949565b9450945050604086013567ffffffffffffffff811115613e7657600080fd5b613e8288828901613949565b92509250509295509295909350565b60008060408385031215613ea457600080fd5b6000613eb285828601613881565b9250506020613ec3858286016139a8565b9150509250929050565b60008060008060608587031215613ee357600080fd5b6000613ef187828801613881565b9450506020613f02878288016139a8565b935050604085013567ffffffffffffffff811115613f1f57600080fd5b613f2b878288016138ab565b925092505092959194509250565b600080600060608486031215613f4e57600080fd5b6000613f5c86828701613881565b9350506020613f6d868287016139a8565b925050604084013567ffffffffffffffff811115613f8a57600080fd5b613f96868287016138f5565b9150509250925092565b60008060408385031215613fb357600080fd5b6000613fc185828601613881565b9250506020613fd2858286016139bd565b9150509250929050565b600060208284031215613fee57600080fd5b6000613ffc84828501613896565b91505092915050565b60006140118383614067565b60208301905092915050565b6000614029838361428f565b60208301905092915050565b60006140418383614378565b905092915050565b61405281614c3a565b82525050565b61406181614ba1565b82525050565b61407081614b8f565b82525050565b61407f81614b8f565b82525050565b600061409082614a34565b61409a8185614ae9565b93506140a5836149c5565b8060005b838110156140d65781516140bd8882614005565b97506140c883614a97565b9250506001810190506140a9565b5085935050505092915050565b60006140ee82614a3f565b6140f88185614ad8565b9350614103836149d5565b8060005b8381101561413b5761411882614ce6565b6141228882614005565b975061412d83614aa4565b925050600181019050614107565b5085935050505092915050565b600061415382614a4a565b61415d8185614afa565b9350614168836149ea565b8060005b83811015614199578151614180888261401d565b975061418b83614ab1565b92505060018101905061416c565b5085935050505092915050565b60006141b182614a55565b6141bb8185614afa565b93506141c6836149fa565b8060005b838110156141fe576141db82614cf9565b6141e5888261401d565b97506141f083614abe565b9250506001810190506141ca565b5085935050505092915050565b600061421682614a60565b6142208185614b0b565b93508360208202850161423285614a0f565b8060005b8581101561426e578484038952815161424f8582614035565b945061425a83614acb565b925060208a01995050600181019050614236565b50829750879550505050505092915050565b61428981614bb3565b82525050565b61429881614bbf565b82525050565b6142a781614bbf565b82525050565b6142b681614bc9565b82525050565b60006142c88385614b2d565b93506142d5838584614c70565b6142de83614d0c565b840190509392505050565b60006142f58385614b3e565b9350614302838584614c70565b82840190509392505050565b600061431982614a76565b6143238185614b2d565b9350614333818560208601614c7f565b61433c81614d0c565b840191505092915050565b600061435282614a76565b61435c8185614b3e565b935061436c818560208601614c7f565b80840191505092915050565b600061438382614a6b565b61438d8185614b1c565b935061439d818560208601614c7f565b6143a681614d0c565b840191505092915050565b60006143bd8385614b49565b93506143ca838584614c70565b6143d383614d0c565b840190509392505050565b60006143ea8385614b5a565b93506143f7838584614c70565b82840190509392505050565b600061440e82614a8c565b6144188185614b49565b9350614428818560208601614c7f565b61443181614d0c565b840191505092915050565b600061444782614a81565b6144518185614b49565b9350614461818560208601614c7f565b61446a81614d0c565b840191505092915050565b60008154600181166000811461449257600181146144b8576144fc565b607f60028304166144a38187614b49565b955060ff1983168652602086019350506144fc565b600282046144c68187614b49565b95506144d185614a1f565b60005b828110156144f3578154818901526001820191506020810190506144d4565b80880195505050505b505092915050565b6000614511602483614b5a565b91507f696e74657266616365496d706c656d656e74657228627974657333322c62797460008301527f65733429000000000000000000000000000000000000000000000000000000006020830152602482019050919050565b6000604083016000808401858303600087015261458783826140e3565b9250506001840154905061459a81614ccc565b6145a7602087018261428f565b50819250505092915050565b6145bc81614bf5565b82525050565b6145cb81614c23565b82525050565b6145da81614c2d565b82525050565b60006145ed8284866142e9565b91508190509392505050565b60006146058284614347565b915081905092915050565b600061461d8284866143de565b91508190509392505050565b600061463482614504565b9150819050919050565b60006020820190506146536000830184614076565b92915050565b600060208201905061466e6000830184614049565b92915050565b60006020820190506146896000830184614058565b92915050565b600060408201905081810360008301526146a98185614085565b90506146b8602083018461429e565b9392505050565b600060208201905081810360008301526146d98184614148565b905092915050565b600060208201905081810360008301526146fb81846141a6565b905092915050565b6000602082019050818103600083015261471d818461420b565b905092915050565b600060208201905061473a6000830184614280565b92915050565b6000602082019050614755600083018461429e565b92915050565b6000604082019050614770600083018561429e565b61477d602083018461429e565b9392505050565b600060208201905061479960008301846142ad565b92915050565b600060208201905081810360008301526147ba8184866142bc565b90509392505050565b600060208201905081810360008301526147dd818461430e565b905092915050565b600060408201905081810360008301526147ff818561430e565b905061480e60208301846145b3565b9392505050565b6000606082019050818103600083015261482f818661430e565b905061483e60208301856145b3565b8181036040830152614850818461430e565b9050949350505050565b600060208201905081810360008301526148758184866143b1565b90509392505050565b60006020820190508181036000830152614898818461443c565b905092915050565b600060208201905081810360008301526148ba8184614403565b905092915050565b600060208201905081810360008301526148dc8184614475565b905092915050565b600060208201905081810360008301526148fe818461456a565b905092915050565b600060208201905061491b60008301846145c2565b92915050565b600060408201905061493660008301856145c2565b8181036020830152614948818461430e565b90509392505050565b600060208201905061496660008301846145d1565b92915050565b6000604051905081810181811067ffffffffffffffff8211171561498f57600080fd5b8060405250919050565b600067ffffffffffffffff8211156149b057600080fd5b601f19601f8301169050602081019050919050565b6000819050602082019050919050565b60008190508160005260206000209050919050565b6000819050602082019050919050565b60008190508160005260206000209050919050565b6000819050602082019050919050565b60008190508160005260206000209050919050565b600081519050919050565b600081549050919050565b600081519050919050565b600081549050919050565b600081519050919050565b600081519050919050565b600081519050919050565b600081519050919050565b600081519050919050565b6000602082019050919050565b6000600182019050919050565b6000602082019050919050565b6000600182019050919050565b6000602082019050919050565b600082825260208201905092915050565b600082825260208201905092915050565b600082825260208201905092915050565b600082825260208201905092915050565b600082825260208201905092915050565b600082825260208201905092915050565b600081905092915050565b600082825260208201905092915050565b600081905092915050565b600073ffffffffffffffffffffffffffffffffffffffff82169050919050565b6000819050919050565b6000614b9a82614c03565b9050919050565b6000614bac82614c03565b9050919050565b60008115159050919050565b6000819050919050565b60007fffffffff0000000000000000000000000000000000000000000000000000000082169050919050565b600061ffff82169050919050565b600073ffffffffffffffffffffffffffffffffffffffff82169050919050565b6000819050919050565b600060ff82169050919050565b6000614c4582614c4c565b9050919050565b6000614c5782614c5e565b9050919050565b6000614c6982614c03565b9050919050565b82818337600083830152505050565b60005b83811015614c9d578082015181840152602081019050614c82565b83811115614cac576000848401525b50505050565b6000614cc5614cc083614d1d565b614b65565b9050919050565b6000614cdf614cda83614d1d565b614b85565b9050919050565b6000614cf28254614cb2565b9050919050565b6000614d058254614ccc565b9050919050565b6000601f19601f8301169050919050565b60008160001c9050919050565b614d3381614b8f565b8114614d3e57600080fd5b50565b614d4a81614bb3565b8114614d5557600080fd5b50565b614d6181614bbf565b8114614d6c57600080fd5b50565b614d7881614bc9565b8114614d8357600080fd5b50565b614d8f81614bf5565b8114614d9a57600080fd5b50565b614da681614c23565b8114614db157600080fd5b50565b614dbd81614c2d565b8114614dc857600080fd5b5056fea365627a7a72315820cbc069afc103cc2100478a5c08d055a01f0126e076773d1327648d2465dfa1236c6578706572696d656e74616cf564736f6c63430005110040",
  "linkReferences": {},
  "deployedLinkReferences": {}
}