{
  "contracts/DomainNotifier.sol": {
    "DomainNotifier": {
      "abi": [
        {
          "anonymous": false,
          "inputs": [
            {
              "indexed": true,
              "internalType": "bytes32",
              "name": "node",
              "type": "bytes32"
            }
          ],
          "name": "DomainUpdated",
          "type": "event"
        },
        {
          "constant": false,
          "inputs": [
            {
              "internalType": "bytes32",
              "name": "node",
              "type": "bytes32"
            }
          ],
          "name": "domainUpdated",
          "outputs": [],
          "payable": false,
          "stateMutability": "nonpayable",
          "type": "function"
        }
      ],
      "evm": {
        "bytecode": {
          "linkReferences": {},
          "object": "6080604052348015600f57600080fd5b5060bd8061001e6000396000f3fe6080604052348015600f57600080fd5b506004361060285760003560e01c80636161016414602d575b600080fd5b605660048036036020811015604157600080fd5b81019080803590602001909291905050506058565b005b807f8c7bc2aee1d48bb46b825273bef0ffd000ccf7d354d5be84bd1e7fe6a208db4960405160405180910390a25056fea265627a7a7231582033e16ec71aba53123e0a29df4d804f60aedc5d9a474b03aea7d56c5a40c0db6664736f6c63430005110032",
          "opcodes": "PUSH1 0x80 PUSH1 0x40 MSTORE CALLVALUE DUP1 ISZERO PUSH1 0xF JUMPI PUSH1 0x0 DUP1 REVERT JUMPDEST POP PUSH1 0xBD DUP1 PUSH2 0x1E PUSH1 0x0 CODECOPY PUSH1 0x0 RETURN INVALID PUSH1 0x80 PUSH1 0x40 MSTORE CALLVALUE DUP1 ISZERO PUSH1 0xF JUMPI PUSH1 0x0 DUP1 REVERT JUMPDEST POP PUSH1 0x4 CALLDATASIZE LT PUSH1 0x28 JUMPI PUSH1 0x0 CALLDATALOAD PUSH1 0xE0 SHR DUP1 PUSH4 0x61610164 EQ PUSH1 0x2D JUMPI JUMPDEST PUSH1 0x0 DUP1 REVERT JUMPDEST PUSH1 0x56 PUSH1 0x4 DUP1 CALLDATASIZE SUB PUSH1 0x20 DUP2 LT ISZERO PUSH1 0x41 JUMPI PUSH1 0x0 DUP1 REVERT JUMPDEST DUP2 ADD SWAP1 DUP1 DUP1 CALLDATALOAD SWAP1 PUSH1 0x20 ADD SWAP1 SWAP3 SWAP2 SWAP1 POP POP POP PUSH1 0x58 JUMP JUMPDEST STOP JUMPDEST DUP1 PUSH32 0x8C7BC2AEE1D48BB46B825273BEF0FFD000CCF7D354D5BE84BD1E7FE6A208DB49 PUSH1 0x40 MLOAD PUSH1 0x40 MLOAD DUP1 SWAP2 SUB SWAP1 LOG2 POP JUMP INVALID LOG2 PUSH6 0x627A7A723158 KECCAK256 CALLER 0xE1 PUSH15 0xC71ABA53123E0A29DF4D804F60AEDC 0x5D SWAP11 SELFBALANCE 0x4B SUB 0xAE 0xA7 0xD5 PUSH13 0x5A40C0DB6664736F6C63430005 GT STOP ORIGIN "
        },
        "methodIdentifiers": {
          "domainUpdated(bytes32)": "61610164"
        }
      }
    }
  }
}