{
  "contractName": "DomainNotifier",
  "abi": [
    {
      "inputs": [
        {
          "internalType": "contract ENS",
          "name": "ens",
          "type": "address"
        }
      ],
      "payable": false,
      "stateMutability": "nonpayable",
      "type": "constructor"
    },
    {
      "anonymous": false,
      "inputs": [
        {
          "indexed": true,
          "internalType": "bytes32",
          "name": "node",
          "type": "bytes32"
        }
      ],
      "name": "DomainUpdated",
      "type": "event"
    },
    {
      "constant": false,
      "inputs": [
        {
          "internalType": "bytes32",
          "name": "node",
          "type": "bytes32"
        }
      ],
      "name": "domainUpdated",
      "outputs": [],
      "payable": false,
      "stateMutability": "nonpayable",
      "type": "function"
    }
  ],
  "bytecode": "0x608060405234801561001057600080fd5b506040516102413803806102418339818101604052602081101561003357600080fd5b8101908080519060200190929190505050806000806101000a81548173ffffffffffffffffffffffffffffffffffffffff021916908373ffffffffffffffffffffffffffffffffffffffff160217905550506101ad806100946000396000f3fe608060405234801561001057600080fd5b506004361061002b5760003560e01c80636161016414610030575b600080fd5b61005c6004803603602081101561004657600080fd5b810190808035906020019092919050505061005e565b005b60008060009054906101000a900473ffffffffffffffffffffffffffffffffffffffff1673ffffffffffffffffffffffffffffffffffffffff16630178b8bf836040518263ffffffff1660e01b81526004018082815260200191505060206040518083038186803b1580156100d257600080fd5b505afa1580156100e6573d6000803e3d6000fd5b505050506040513d60208110156100fc57600080fd5b810190808051906020019092919050505090503373ffffffffffffffffffffffffffffffffffffffff168173ffffffffffffffffffffffffffffffffffffffff161461014757600080fd5b817f8c7bc2aee1d48bb46b825273bef0ffd000ccf7d354d5be84bd1e7fe6a208db4960405160405180910390a2505056fea265627a7a72315820af615149bd4f6188c888c07577f26d5d7a90df63e52a271544cc77c17b70c5d164736f6c63430005110032",
  "source": "pragma solidity 0.5.17;\n\nimport \"@ensdomains/ens/contracts/ENS.sol\";\n\ncontract DomainNotifier {\n    event DomainUpdated(bytes32 indexed node);\n\n    ENS _ens;\n\n    constructor(ENS ens) public {\n        _ens = ens;\n    }\n\n    function domainUpdated(bytes32 node) external {\n        address resolver = _ens.resolver(node);\n        require(resolver == msg.sender);\n        emit DomainUpdated(node);\n    }\n}\n",
  "sourcePath": "/Users/john/ew/iam-contracts/iam-contracts/contracts/DomainNotifier.sol",
  "compiler": {
    "name": "solc",
    "version": "0.5.17+commit.d19bba13.Emscripten.clang"
  },
  "schemaVersion": "3.3.4",
  "updatedAt": "2021-04-07T10:49:07.889Z",
  "devdoc": {
    "methods": {}
  },
  "userdoc": {
    "methods": {}
  }
}