{
  "_format": "hh-sol-artifact-1",
  "contractName": "RoleDefinitionResolver",
  "sourceName": "contracts/RoleDefinitionResolver.sol",
  "abi": [
    {
      "inputs": [
        {
          "internalType": "contract ENS",
          "name": "_ens",
          "type": "address"
        }
      ],
      "payable": false,
      "stateMutability": "nonpayable",
      "type": "constructor"
    },
    {
      "anonymous": false,
      "inputs": [
        {
          "indexed": true,
          "internalType": "bytes32",
          "name": "node",
          "type": "bytes32"
        },
        {
          "indexed": true,
          "internalType": "uint256",
          "name": "contentType",
          "type": "uint256"
        }
      ],
      "name": "ABIChanged",
      "type": "event"
    },
    {
      "anonymous": false,
      "inputs": [
        {
          "indexed": true,
          "internalType": "bytes32",
          "name": "node",
          "type": "bytes32"
        },
        {
          "indexed": false,
          "internalType": "address",
          "name": "a",
          "type": "address"
        }
      ],
      "name": "AddrChanged",
      "type": "event"
    },
    {
      "anonymous": false,
      "inputs": [
        {
          "indexed": true,
          "internalType": "bytes32",
          "name": "node",
          "type": "bytes32"
        },
        {
          "indexed": false,
          "internalType": "uint256",
          "name": "coinType",
          "type": "uint256"
        },
        {
          "indexed": false,
          "internalType": "bytes",
          "name": "newAddress",
          "type": "bytes"
        }
      ],
      "name": "AddressChanged",
      "type": "event"
    },
    {
      "anonymous": false,
      "inputs": [
        {
          "indexed": true,
          "internalType": "bytes32",
          "name": "node",
          "type": "bytes32"
        },
        {
          "indexed": true,
          "internalType": "address",
          "name": "owner",
          "type": "address"
        },
        {
          "indexed": true,
          "internalType": "address",
          "name": "target",
          "type": "address"
        },
        {
          "indexed": false,
          "internalType": "bool",
          "name": "isAuthorised",
          "type": "bool"
        }
      ],
      "name": "AuthorisationChanged",
      "type": "event"
    },
    {
      "anonymous": false,
      "inputs": [
        {
          "indexed": true,
          "internalType": "bytes32",
          "name": "node",
          "type": "bytes32"
        },
        {
          "indexed": false,
          "internalType": "bytes",
          "name": "hash",
          "type": "bytes"
        }
      ],
      "name": "ContenthashChanged",
      "type": "event"
    },
    {
      "anonymous": false,
      "inputs": [
        {
          "indexed": true,
          "internalType": "bytes32",
          "name": "node",
          "type": "bytes32"
        },
        {
          "indexed": false,
          "internalType": "bytes",
          "name": "name",
          "type": "bytes"
        },
        {
          "indexed": false,
          "internalType": "uint16",
          "name": "resource",
          "type": "uint16"
        },
        {
          "indexed": false,
          "internalType": "bytes",
          "name": "record",
          "type": "bytes"
        }
      ],
      "name": "DNSRecordChanged",
      "type": "event"
    },
    {
      "anonymous": false,
      "inputs": [
        {
          "indexed": true,
          "internalType": "bytes32",
          "name": "node",
          "type": "bytes32"
        },
        {
          "indexed": false,
          "internalType": "bytes",
          "name": "name",
          "type": "bytes"
        },
        {
          "indexed": false,
          "internalType": "uint16",
          "name": "resource",
          "type": "uint16"
        }
      ],
      "name": "DNSRecordDeleted",
      "type": "event"
    },
    {
      "anonymous": false,
      "inputs": [
        {
          "indexed": true,
          "internalType": "bytes32",
          "name": "node",
          "type": "bytes32"
        }
      ],
      "name": "DNSZoneCleared",
      "type": "event"
    },
    {
      "anonymous": false,
      "inputs": [
        {
          "indexed": true,
          "internalType": "bytes32",
          "name": "node",
          "type": "bytes32"
        },
        {
          "indexed": true,
          "internalType": "bytes4",
          "name": "interfaceID",
          "type": "bytes4"
        },
        {
          "indexed": false,
          "internalType": "address",
          "name": "implementer",
          "type": "address"
        }
      ],
      "name": "InterfaceChanged",
      "type": "event"
    },
    {
      "anonymous": false,
      "inputs": [
        {
          "indexed": true,
          "internalType": "bytes32",
          "name": "node",
          "type": "bytes32"
        },
        {
          "indexed": false,
          "internalType": "uint8",
          "name": "newType",
          "type": "uint8"
        }
      ],
      "name": "IssuerTypeChanged",
      "type": "event"
    },
    {
      "anonymous": false,
      "inputs": [
        {
          "indexed": true,
          "internalType": "bytes32",
          "name": "node",
          "type": "bytes32"
        },
        {
          "components": [
            {
              "internalType": "address[]",
              "name": "dids",
              "type": "address[]"
            },
            {
              "internalType": "bytes32",
              "name": "role",
              "type": "bytes32"
            }
          ],
          "indexed": false,
          "internalType": "struct IssuersResolver.Issuers",
          "name": "newIssuers",
          "type": "tuple"
        }
      ],
      "name": "IssuersChanged",
      "type": "event"
    },
    {
      "anonymous": false,
      "inputs": [
        {
          "indexed": true,
          "internalType": "bytes32",
          "name": "node",
          "type": "bytes32"
        },
        {
          "indexed": false,
          "internalType": "string",
          "name": "name",
          "type": "string"
        }
      ],
      "name": "NameChanged",
      "type": "event"
    },
    {
      "anonymous": false,
      "inputs": [
        {
          "indexed": true,
          "internalType": "bytes32",
          "name": "node",
          "type": "bytes32"
        },
        {
          "indexed": false,
          "internalType": "bytes32",
          "name": "x",
          "type": "bytes32"
        },
        {
          "indexed": false,
          "internalType": "bytes32",
          "name": "y",
          "type": "bytes32"
        }
      ],
      "name": "PubkeyChanged",
      "type": "event"
    },
    {
      "anonymous": false,
      "inputs": [
        {
          "indexed": true,
          "internalType": "bytes32",
          "name": "node",
          "type": "bytes32"
        },
        {
          "indexed": true,
          "internalType": "string",
          "name": "indexedKey",
          "type": "string"
        },
        {
          "indexed": false,
          "internalType": "string",
          "name": "key",
          "type": "string"
        }
      ],
      "name": "TextChanged",
      "type": "event"
    },
    {
      "anonymous": false,
      "inputs": [
        {
          "indexed": true,
          "internalType": "bytes32",
          "name": "node",
          "type": "bytes32"
        },
        {
          "indexed": false,
          "internalType": "uint16",
          "name": "newVersion",
          "type": "uint16"
        }
      ],
      "name": "VersionNumberChanged",
      "type": "event"
    },
    {
      "constant": true,
      "inputs": [
        {
          "internalType": "bytes32",
          "name": "node",
          "type": "bytes32"
        },
        {
          "internalType": "uint256",
          "name": "contentTypes",
          "type": "uint256"
        }
      ],
      "name": "ABI",
      "outputs": [
        {
          "internalType": "uint256",
          "name": "",
          "type": "uint256"
        },
        {
          "internalType": "bytes",
          "name": "",
          "type": "bytes"
        }
      ],
      "payable": false,
      "stateMutability": "view",
      "type": "function"
    },
    {
      "constant": true,
      "inputs": [
        {
          "internalType": "bytes32",
          "name": "node",
          "type": "bytes32"
        }
      ],
      "name": "addr",
      "outputs": [
        {
          "internalType": "address payable",
          "name": "",
          "type": "address"
        }
      ],
      "payable": false,
      "stateMutability": "view",
      "type": "function"
    },
    {
      "constant": true,
      "inputs": [
        {
          "internalType": "bytes32",
          "name": "node",
          "type": "bytes32"
        },
        {
          "internalType": "uint256",
          "name": "coinType",
          "type": "uint256"
        }
      ],
      "name": "addr",
      "outputs": [
        {
          "internalType": "bytes",
          "name": "",
          "type": "bytes"
        }
      ],
      "payable": false,
      "stateMutability": "view",
      "type": "function"
    },
    {
      "constant": true,
      "inputs": [
        {
          "internalType": "bytes32",
          "name": "",
          "type": "bytes32"
        },
        {
          "internalType": "address",
          "name": "",
          "type": "address"
        },
        {
          "internalType": "address",
          "name": "",
          "type": "address"
        }
      ],
      "name": "authorisations",
      "outputs": [
        {
          "internalType": "bool",
          "name": "",
          "type": "bool"
        }
      ],
      "payable": false,
      "stateMutability": "view",
      "type": "function"
    },
    {
      "constant": false,
      "inputs": [
        {
          "internalType": "bytes32",
          "name": "node",
          "type": "bytes32"
        }
      ],
      "name": "clearDNSZone",
      "outputs": [],
      "payable": false,
      "stateMutability": "nonpayable",
      "type": "function"
    },
    {
      "constant": true,
      "inputs": [
        {
          "internalType": "bytes32",
          "name": "node",
          "type": "bytes32"
        }
      ],
      "name": "contenthash",
      "outputs": [
        {
          "internalType": "bytes",
          "name": "",
          "type": "bytes"
        }
      ],
      "payable": false,
      "stateMutability": "view",
      "type": "function"
    },
    {
      "constant": true,
      "inputs": [
        {
          "internalType": "bytes32",
          "name": "node",
          "type": "bytes32"
        },
        {
          "internalType": "bytes32",
          "name": "name",
          "type": "bytes32"
        },
        {
          "internalType": "uint16",
          "name": "resource",
          "type": "uint16"
        }
      ],
      "name": "dnsRecord",
      "outputs": [
        {
          "internalType": "bytes",
          "name": "",
          "type": "bytes"
        }
      ],
      "payable": false,
      "stateMutability": "view",
      "type": "function"
    },
    {
      "constant": true,
      "inputs": [
        {
          "internalType": "bytes32",
          "name": "node",
          "type": "bytes32"
        },
        {
          "internalType": "bytes32",
          "name": "name",
          "type": "bytes32"
        }
      ],
      "name": "hasDNSRecords",
      "outputs": [
        {
          "internalType": "bool",
          "name": "",
          "type": "bool"
        }
      ],
      "payable": false,
      "stateMutability": "view",
      "type": "function"
    },
    {
      "constant": true,
      "inputs": [
        {
          "internalType": "bytes32",
          "name": "node",
          "type": "bytes32"
        },
        {
          "internalType": "bytes4",
          "name": "interfaceID",
          "type": "bytes4"
        }
      ],
      "name": "interfaceImplementer",
      "outputs": [
        {
          "internalType": "address",
          "name": "",
          "type": "address"
        }
      ],
      "payable": false,
      "stateMutability": "view",
      "type": "function"
    },
    {
      "constant": true,
      "inputs": [
        {
          "internalType": "bytes32",
          "name": "node",
          "type": "bytes32"
        }
      ],
      "name": "issuerType",
      "outputs": [
        {
          "internalType": "uint8",
          "name": "",
          "type": "uint8"
        }
      ],
      "payable": false,
      "stateMutability": "view",
      "type": "function"
    },
    {
      "constant": true,
      "inputs": [
        {
          "internalType": "bytes32",
          "name": "",
          "type": "bytes32"
        }
      ],
      "name": "issuerTypes",
      "outputs": [
        {
          "internalType": "uint8",
          "name": "",
          "type": "uint8"
        }
      ],
      "payable": false,
      "stateMutability": "view",
      "type": "function"
    },
    {
      "constant": true,
      "inputs": [
        {
          "internalType": "bytes32",
          "name": "node",
          "type": "bytes32"
        }
      ],
      "name": "issuers",
      "outputs": [
        {
          "internalType": "address[]",
          "name": "dids",
          "type": "address[]"
        },
        {
          "internalType": "bytes32",
          "name": "role",
          "type": "bytes32"
        }
      ],
      "payable": false,
      "stateMutability": "view",
      "type": "function"
    },
    {
      "constant": false,
      "inputs": [
        {
          "internalType": "bytes[]",
          "name": "data",
          "type": "bytes[]"
        }
      ],
      "name": "multicall",
      "outputs": [
        {
          "internalType": "bytes[]",
          "name": "results",
          "type": "bytes[]"
        }
      ],
      "payable": false,
      "stateMutability": "nonpayable",
      "type": "function"
    },
    {
      "constant": true,
      "inputs": [
        {
          "internalType": "bytes32",
          "name": "node",
          "type": "bytes32"
        }
      ],
      "name": "name",
      "outputs": [
        {
          "internalType": "string",
          "name": "",
          "type": "string"
        }
      ],
      "payable": false,
      "stateMutability": "view",
      "type": "function"
    },
    {
      "constant": true,
      "inputs": [
        {
          "internalType": "bytes32",
          "name": "node",
          "type": "bytes32"
        }
      ],
      "name": "pubkey",
      "outputs": [
        {
          "internalType": "bytes32",
          "name": "x",
          "type": "bytes32"
        },
        {
          "internalType": "bytes32",
          "name": "y",
          "type": "bytes32"
        }
      ],
      "payable": false,
      "stateMutability": "view",
      "type": "function"
    },
    {
      "constant": false,
      "inputs": [
        {
          "internalType": "bytes32",
          "name": "node",
          "type": "bytes32"
        },
        {
          "internalType": "uint256",
          "name": "contentType",
          "type": "uint256"
        },
        {
          "internalType": "bytes",
          "name": "data",
          "type": "bytes"
        }
      ],
      "name": "setABI",
      "outputs": [],
      "payable": false,
      "stateMutability": "nonpayable",
      "type": "function"
    },
    {
      "constant": false,
      "inputs": [
        {
          "internalType": "bytes32",
          "name": "node",
          "type": "bytes32"
        },
        {
          "internalType": "uint256",
          "name": "coinType",
          "type": "uint256"
        },
        {
          "internalType": "bytes",
          "name": "a",
          "type": "bytes"
        }
      ],
      "name": "setAddr",
      "outputs": [],
      "payable": false,
      "stateMutability": "nonpayable",
      "type": "function"
    },
    {
      "constant": false,
      "inputs": [
        {
          "internalType": "bytes32",
          "name": "node",
          "type": "bytes32"
        },
        {
          "internalType": "address",
          "name": "a",
          "type": "address"
        }
      ],
      "name": "setAddr",
      "outputs": [],
      "payable": false,
      "stateMutability": "nonpayable",
      "type": "function"
    },
    {
      "constant": false,
      "inputs": [
        {
          "internalType": "bytes32",
          "name": "node",
          "type": "bytes32"
        },
        {
          "internalType": "address",
          "name": "target",
          "type": "address"
        },
        {
          "internalType": "bool",
          "name": "isAuthorised",
          "type": "bool"
        }
      ],
      "name": "setAuthorisation",
      "outputs": [],
      "payable": false,
      "stateMutability": "nonpayable",
      "type": "function"
    },
    {
      "constant": false,
      "inputs": [
        {
          "internalType": "bytes32",
          "name": "node",
          "type": "bytes32"
        },
        {
          "internalType": "bytes",
          "name": "hash",
          "type": "bytes"
        }
      ],
      "name": "setContenthash",
      "outputs": [],
      "payable": false,
      "stateMutability": "nonpayable",
      "type": "function"
    },
    {
      "constant": false,
      "inputs": [
        {
          "internalType": "bytes32",
          "name": "node",
          "type": "bytes32"
        },
        {
          "internalType": "bytes",
          "name": "data",
          "type": "bytes"
        }
      ],
      "name": "setDNSRecords",
      "outputs": [],
      "payable": false,
      "stateMutability": "nonpayable",
      "type": "function"
    },
    {
      "constant": false,
      "inputs": [
        {
          "internalType": "bytes32",
          "name": "node",
          "type": "bytes32"
        },
        {
          "internalType": "bytes4",
          "name": "interfaceID",
          "type": "bytes4"
        },
        {
          "internalType": "address",
          "name": "implementer",
          "type": "address"
        }
      ],
      "name": "setInterface",
      "outputs": [],
      "payable": false,
      "stateMutability": "nonpayable",
      "type": "function"
    },
    {
      "constant": false,
      "inputs": [
        {
          "internalType": "bytes32",
          "name": "node",
          "type": "bytes32"
        },
        {
          "internalType": "address[]",
          "name": "dids",
          "type": "address[]"
        }
      ],
      "name": "setIssuerDids",
      "outputs": [],
      "payable": false,
      "stateMutability": "nonpayable",
      "type": "function"
    },
    {
      "constant": false,
      "inputs": [
        {
          "internalType": "bytes32",
          "name": "node",
          "type": "bytes32"
        },
        {
          "internalType": "bytes32",
          "name": "role",
          "type": "bytes32"
        }
      ],
      "name": "setIssuerRole",
      "outputs": [],
      "payable": false,
      "stateMutability": "nonpayable",
      "type": "function"
    },
    {
      "constant": false,
      "inputs": [
        {
          "internalType": "bytes32",
          "name": "node",
          "type": "bytes32"
        },
        {
          "internalType": "uint8",
          "name": "issuerType",
          "type": "uint8"
        }
      ],
      "name": "setIssuerType",
      "outputs": [],
      "payable": false,
      "stateMutability": "nonpayable",
      "type": "function"
    },
    {
      "constant": false,
      "inputs": [
        {
          "internalType": "bytes32",
          "name": "node",
          "type": "bytes32"
        },
        {
          "internalType": "string",
          "name": "name",
          "type": "string"
        }
      ],
      "name": "setName",
      "outputs": [],
      "payable": false,
      "stateMutability": "nonpayable",
      "type": "function"
    },
    {
      "constant": false,
      "inputs": [
        {
          "internalType": "bytes32",
          "name": "node",
          "type": "bytes32"
        },
        {
          "internalType": "bytes32",
          "name": "x",
          "type": "bytes32"
        },
        {
          "internalType": "bytes32",
          "name": "y",
          "type": "bytes32"
        }
      ],
      "name": "setPubkey",
      "outputs": [],
      "payable": false,
      "stateMutability": "nonpayable",
      "type": "function"
    },
    {
      "constant": false,
      "inputs": [
        {
          "internalType": "bytes32",
          "name": "node",
          "type": "bytes32"
        },
        {
          "internalType": "string",
          "name": "key",
          "type": "string"
        },
        {
          "internalType": "string",
          "name": "value",
          "type": "string"
        }
      ],
      "name": "setText",
      "outputs": [],
      "payable": false,
      "stateMutability": "nonpayable",
      "type": "function"
    },
    {
      "constant": false,
      "inputs": [
        {
          "internalType": "bytes32",
          "name": "node",
          "type": "bytes32"
        },
        {
          "internalType": "uint16",
          "name": "versionNumber",
          "type": "uint16"
        }
      ],
      "name": "setVersionNumber",
      "outputs": [],
      "payable": false,
      "stateMutability": "nonpayable",
      "type": "function"
    },
    {
      "constant": true,
      "inputs": [
        {
          "internalType": "bytes4",
          "name": "interfaceID",
          "type": "bytes4"
        }
      ],
      "name": "supportsInterface",
      "outputs": [
        {
          "internalType": "bool",
          "name": "",
          "type": "bool"
        }
      ],
      "payable": false,
      "stateMutability": "pure",
      "type": "function"
    },
    {
      "constant": true,
      "inputs": [
        {
          "internalType": "bytes32",
          "name": "node",
          "type": "bytes32"
        },
        {
          "internalType": "string",
          "name": "key",
          "type": "string"
        }
      ],
      "name": "text",
      "outputs": [
        {
          "internalType": "string",
          "name": "",
          "type": "string"
        }
      ],
      "payable": false,
      "stateMutability": "view",
      "type": "function"
    },
    {
      "constant": true,
      "inputs": [
        {
          "internalType": "bytes32",
          "name": "node",
          "type": "bytes32"
        }
      ],
      "name": "versionNumber",
      "outputs": [
        {
          "internalType": "uint16",
          "name": "",
          "type": "uint16"
        }
      ],
      "payable": false,
      "stateMutability": "view",
      "type": "function"
    },
    {
      "constant": true,
      "inputs": [
        {
          "internalType": "bytes32",
          "name": "",
          "type": "bytes32"
        }
      ],
      "name": "versionNumbers",
      "outputs": [
        {
          "internalType": "uint16",
          "name": "",
          "type": "uint16"
        }
      ],
      "payable": false,
      "stateMutability": "view",
      "type": "function"
    }
  ],
  "bytecode": "0x60806040523480156200001157600080fd5b50604051620044a0380380620044a0833981810160405262000037919081019062000098565b8080600a60006101000a81548173ffffffffffffffffffffffffffffffffffffffff021916908373ffffffffffffffffffffffffffffffffffffffff160217905550505062000126565b60008151905062000092816200010c565b92915050565b600060208284031215620000ab57600080fd5b6000620000bb8482850162000081565b91505092915050565b6000620000d182620000ec565b9050919050565b6000620000e582620000c4565b9050919050565b600073ffffffffffffffffffffffffffffffffffffffff82169050919050565b6200011781620000d8565b81146200012357600080fd5b50565b61436a80620001366000396000f3fe608060405234801561001057600080fd5b50600436106101fb5760003560e01c8063691f34311161011a578063bc1c58d1116100ad578063d055e4f81161007c578063d055e4f81461063f578063d5fa2b001461066f578063e59d895d1461068b578063f1cb7e06146106a7578063f86bc879146106d7576101fb565b8063bc1c58d11461057d578063c53a4413146105ad578063c585f697146105de578063c86902331461060e576101fb565b8063a8fa5682116100e9578063a8fa5682146104e5578063ac9650d814610515578063ad5780af14610545578063bad72cbe14610561576101fb565b8063691f34311461046157806377372213146104915780638b95dd71146104ad578063916b848a146104c9576101fb565b80633b3b57de116101925780635146bd64116101615780635146bd64146103c957806355329f3f146103f957806359d1d43c14610415578063623195b014610445576101fb565b80633b3b57de146103315780633e884c3d146103615780633e9ce7941461037d5780634cbf6ba414610399576101fb565b80632203ab56116101ce5780632203ab561461029857806329cd62ea146102c9578063304e6ade146102e5578063338bc8fa14610301576101fb565b806301ffc9a7146102005780630af179d71461023057806310f13a8c1461024c578063124a319c14610268575b600080fd5b61021a600480360361021591908101906137fc565b610707565b6040516102279190613d5e565b60405180910390f35b61024a6004803603610245919081019061353c565b610768565b005b610266600480360361026191908101906135ec565b610996565b005b610282600480360361027d91908101906134b1565b610a44565b60405161028f9190613cbb565b60405180910390f35b6102b260048036036102ad91908101906136b1565b610e2f565b6040516102c0929190613f16565b60405180910390f35b6102e360048036036102de9190810190613413565b610f7e565b005b6102ff60048036036102fa919081019061353c565b611010565b005b61031b6004803603610316919081019061327c565b611086565b6040516103289190613efb565b60405180910390f35b61034b6004803603610346919081019061327c565b6110b1565b6040516103589190613cf1565b60405180910390f35b61037b60048036036103769190810190613675565b6110e8565b005b61039760048036036103929190810190613330565b611187565b005b6103b360048036036103ae91908101906133d7565b611297565b6040516103c09190613d5e565b60405180910390f35b6103e360048036036103de919081019061327c565b6112ff565b6040516103f09190613efb565b60405180910390f35b610413600480360361040e91908101906137c0565b611320565b005b61042f600480360361042a9190810190613594565b6113bc565b60405161043c9190613eb7565b60405180910390f35b61045f600480360361045a91908101906136ed565b611491565b005b61047b6004803603610476919081019061327c565b61151e565b6040516104889190613eb7565b60405180910390f35b6104ab60048036036104a69190810190613594565b6115d3565b005b6104c760048036036104c29190810190613759565b611649565b005b6104e360048036036104de91908101906133d7565b61171f565b005b6104ff60048036036104fa9190810190613462565b6117be565b60405161050c9190613dfc565b60405180910390f35b61052f600480360361052a9190810190613237565b6118c3565b60405161053c9190613d3c565b60405180910390f35b61055f600480360361055a919081019061327c565b611a19565b005b61057b6004803603610576919081019061337f565b611a80565b005b6105976004803603610592919081019061327c565b611b23565b6040516105a49190613dfc565b60405180910390f35b6105c760048036036105c2919081019061327c565b611bd8565b6040516105d5929190613d0c565b60405180910390f35b6105f860048036036105f3919081019061327c565b611c9a565b6040516106059190613f46565b60405180910390f35b6106286004803603610623919081019061327c565b611cc4565b604051610636929190613d94565b60405180910390f35b6106596004803603610654919081019061327c565b611cfe565b6040516106669190613f46565b60405180910390f35b610689600480360361068491908101906132a5565b611d1e565b005b6106a560048036036106a091908101906134ed565b611d4a565b005b6106c160048036036106bc91908101906136b1565b611e5c565b6040516106ce9190613dfc565b60405180910390f35b6106f160048036036106ec91908101906132e1565b611f23565b6040516106fe9190613d5e565b60405180910390f35b600063c585f69760e01b7bffffffffffffffffffffffffffffffffffffffffffffffffffffffff1916827bffffffffffffffffffffffffffffffffffffffffffffffffffffffff19161480610761575061076082611f5f565b5b9050919050565b8261077281611fc0565b61077b57600080fd5b600080905060008090506060806000610792612cae565b6107ea60008a8a8080601f016020809104026020016040519081016040528093929190818152602001838380828437600081840152601f19601f8201169050808301925050505050505061214990919063ffffffff16565b90505b6107f681612173565b6109235760008661ffff161415610852578060400151955061081781612189565b93508360405160200161082a9190613c76565b60405160208183030381529060405280519060200120915061084b816121c0565b9250610915565b606061085d82612189565b9050816040015161ffff168761ffff1614158061088a575061088881866121f090919063ffffffff16565b155b15610913576108ec8b86898d8d8080601f016020809104026020016040519081016040528093929190818152602001838380828437600081840152601f19601f820116905080830192505050505050508a8b88602001510360008b5114612217565b816040015196508160200151955080945084805190602001209250610910826121c0565b93505b505b61091e81612547565b6107ed565b5060008351111561098b5761098a8984878b8b8080601f016020809104026020016040519081016040528093929190818152602001838380828437600081840152601f19601f8201169050808301925050505050505088898e8e9050036000895114612217565b5b505050505050505050565b846109a081611fc0565b6109a957600080fd5b82826009600089815260200190815260200160002087876040516109ce929190613c8d565b908152602001604051809103902091906109e9929190612cf9565b5084846040516109fa929190613c8d565b6040518091039020867fd8c9334b1a9c2f9da342a0a2b32629c1a229b6445dad78947f674b44444a75508787604051610a34929190613e93565b60405180910390a3505050505050565b600080600660008581526020019081526020016000206000847bffffffffffffffffffffffffffffffffffffffffffffffffffffffff19167bffffffffffffffffffffffffffffffffffffffffffffffffffffffff1916815260200190815260200160002060009054906101000a900473ffffffffffffffffffffffffffffffffffffffff169050600073ffffffffffffffffffffffffffffffffffffffff168173ffffffffffffffffffffffffffffffffffffffff1614610b095780915050610e29565b6000610b14856110b1565b9050600073ffffffffffffffffffffffffffffffffffffffff168173ffffffffffffffffffffffffffffffffffffffff161415610b5657600092505050610e29565b600060608273ffffffffffffffffffffffffffffffffffffffff166301ffc9a760e01b604051602401610b899190613dbd565b6040516020818303038152906040527f01ffc9a7000000000000000000000000000000000000000000000000000000007bffffffffffffffffffffffffffffffffffffffffffffffffffffffff19166020820180517bffffffffffffffffffffffffffffffffffffffffffffffffffffffff8381831617835250505050604051610c139190613c76565b600060405180830381855afa9150503d8060008114610c4e576040519150601f19603f3d011682016040523d82523d6000602084013e610c53565b606091505b5091509150811580610c66575060208151105b80610cad5750600060f81b81601f81518110610c7e57fe5b602001015160f81c60f81b7effffffffffffffffffffffffffffffffffffffffffffffffffffffffffffff1916145b15610cbf576000945050505050610e29565b8273ffffffffffffffffffffffffffffffffffffffff1686604051602401610ce79190613dbd565b6040516020818303038152906040527f01ffc9a7000000000000000000000000000000000000000000000000000000007bffffffffffffffffffffffffffffffffffffffffffffffffffffffff19166020820180517bffffffffffffffffffffffffffffffffffffffffffffffffffffffff8381831617835250505050604051610d719190613c76565b600060405180830381855afa9150503d8060008114610dac576040519150601f19603f3d011682016040523d82523d6000602084013e610db1565b606091505b508092508193505050811580610dc8575060208151105b80610e0f5750600060f81b81601f81518110610de057fe5b602001015160f81c60f81b7effffffffffffffffffffffffffffffffffffffffffffffffffffffffffffff1916145b15610e21576000945050505050610e29565b829450505050505b92915050565b60006060600080600086815260200190815260200160002090506000600190505b848111610f5b57600085821614158015610e9057506000826000838152602001908152602001600020805460018160011615610100020316600290049050115b15610f4f5780826000838152602001908152602001600020808054600181600116156101000203166002900480601f016020809104026020016040519081016040528092919081815260200182805460018160011615610100020316600290048015610f3d5780601f10610f1257610100808354040283529160200191610f3d565b820191906000526020600020905b815481529060010190602001808311610f2057829003601f168201915b50505050509050935093505050610f77565b600181901b9050610e50565b5060006040518060200160405280600081525081915092509250505b9250929050565b82610f8881611fc0565b610f9157600080fd5b604051806040016040528084815260200183815250600860008681526020019081526020016000206000820151816000015560208201518160010155905050837f1d6f5e03d3f63eb58751986629a5439baee5079ff04f345becb66e23eb154e468484604051611002929190613d94565b60405180910390a250505050565b8261101a81611fc0565b61102357600080fd5b8282600260008781526020019081526020016000209190611045929190612d79565b50837fe379c1624ed7e714cc0937528a32359d69d5281337765313dba4e081b72d75788484604051611078929190613dd8565b60405180910390a250505050565b6000600d600083815260200190815260200160002060009054906101000a900461ffff169050919050565b600060606110c083603c611e5c565b90506000815114156110d65760009150506110e3565b6110df8161265b565b9150505b919050565b816110f281611fc0565b6110fb57600080fd5b81600d600085815260200190815260200160002060006101000a81548161ffff021916908361ffff160217905550827fa230dc8fb82f50f5395930e75aa5115d3fbd5164770ec07592b80d1e49cf31aa600d600086815260200190815260200160002060009054906101000a900461ffff1660405161117a9190613efb565b60405180910390a2505050565b80600b600085815260200190815260200160002060003373ffffffffffffffffffffffffffffffffffffffff1673ffffffffffffffffffffffffffffffffffffffff16815260200190815260200160002060008473ffffffffffffffffffffffffffffffffffffffff1673ffffffffffffffffffffffffffffffffffffffff16815260200190815260200160002060006101000a81548160ff0219169083151502179055508173ffffffffffffffffffffffffffffffffffffffff163373ffffffffffffffffffffffffffffffffffffffff16847fe1c5610a6e0cbe10764ecd182adcef1ec338dc4e199c99c32ce98f38e12791df8460405161128a9190613d5e565b60405180910390a4505050565b60008060056000858152602001908152602001600020600060036000878152602001908152602001600020548152602001908152602001600020600084815260200190815260200160002060009054906101000a900461ffff1661ffff161415905092915050565b600d6020528060005260406000206000915054906101000a900461ffff1681565b8161132a81611fc0565b61133357600080fd5b81600e600085815260200190815260200160002060006101000a81548160ff021916908360ff160217905550827f7fc5f6d56736f6859a63066a1e8f557dc0b34a3a0af625f99db5a258963399d3600e600086815260200190815260200160002060009054906101000a900460ff166040516113af9190613f46565b60405180910390a2505050565b60606009600085815260200190815260200160002083836040516113e1929190613c8d565b90815260200160405180910390208054600181600116156101000203166002900480601f0160208091040260200160405190810160405280929190818152602001828054600181600116156101000203166002900480156114835780601f1061145857610100808354040283529160200191611483565b820191906000526020600020905b81548152906001019060200180831161146657829003601f168201915b505050505090509392505050565b8361149b81611fc0565b6114a457600080fd5b6000846001860316146114b657600080fd5b8282600080888152602001908152602001600020600087815260200190815260200160002091906114e8929190612d79565b5083857faa121bbeef5f32f5961a2a28966e769023910fc9479059ee3495d4c1a696efe360405160405180910390a35050505050565b6060600760008381526020019081526020016000208054600181600116156101000203166002900480601f0160208091040260200160405190810160405280929190818152602001828054600181600116156101000203166002900480156115c75780601f1061159c576101008083540402835291602001916115c7565b820191906000526020600020905b8154815290600101906020018083116115aa57829003601f168201915b50505050509050919050565b826115dd81611fc0565b6115e657600080fd5b8282600760008781526020019081526020016000209190611608929190612cf9565b50837fb7d29e911041e8d9b843369e890bcb72c9388692ba48b65ac54e7214c4c348f7848460405161163b929190613e93565b60405180910390a250505050565b8261165381611fc0565b61165c57600080fd5b837f65412581168e88a1e60c6459d7f44ae83ad0832e670826c05a4e2476b57af752848460405161168e929190613f16565b60405180910390a2603c8314156116e057837f52d7d861f09ab3d26239d492e8968629f95e9e318cf0b73bfddc441522a15fd26116ca8461265b565b6040516116d79190613cd6565b60405180910390a25b816001600086815260200190815260200160002060008581526020019081526020016000209080519060200190611718929190612df9565b5050505050565b8161172981611fc0565b61173257600080fd5b81600c600085815260200190815260200160002060010181905550600c6000848152602001908152602001600020600001600061176f9190612e79565b827fab0ef04b258ea77c9247dad5b03ada5b2ed5b370f62963b9f84bd9066d499e5c600c60008681526020019081526020016000206040516117b19190613ed9565b60405180910390a2505050565b606060046000858152602001908152602001600020600060036000878152602001908152602001600020548152602001908152602001600020600084815260200190815260200160002060008361ffff1661ffff1681526020019081526020016000208054600181600116156101000203166002900480601f0160208091040260200160405190810160405280929190818152602001828054600181600116156101000203166002900480156118b55780601f1061188a576101008083540402835291602001916118b5565b820191906000526020600020905b81548152906001019060200180831161189857829003601f168201915b505050505090509392505050565b6060828290506040519080825280602002602001820160405280156118fc57816020015b60608152602001906001900390816118e75790505b50905060008090505b83839050811015611a0f57600060603073ffffffffffffffffffffffffffffffffffffffff1686868581811061193757fe5b905060200281018035600160200383360303811261195457600080fd5b8083019250508135905060208201915067ffffffffffffffff81111561197957600080fd5b60018102360382131561198b57600080fd5b604051611999929190613c5d565b600060405180830381855af49150503d80600081146119d4576040519150601f19603f3d011682016040523d82523d6000602084013e6119d9565b606091505b5091509150816119e857600080fd5b808484815181106119f557fe5b602002602001018190525050508080600101915050611905565b5080905092915050565b80611a2381611fc0565b611a2c57600080fd5b6003600083815260200190815260200160002060008154809291906001019190505550817fb757169b8492ca2f1c6619d9d76ce22803035c3b1d5f6930dffe7b127c1a198360405160405180910390a25050565b82611a8a81611fc0565b611a9357600080fd5b8282600c60008781526020019081526020016000206000019190611ab8929190612e9a565b50600c600085815260200190815260200160002060010160009055837fab0ef04b258ea77c9247dad5b03ada5b2ed5b370f62963b9f84bd9066d499e5c600c6000878152602001908152602001600020604051611b159190613ed9565b60405180910390a250505050565b6060600260008381526020019081526020016000208054600181600116156101000203166002900480601f016020809104026020016040519081016040528092919081815260200182805460018160011615610100020316600290048015611bcc5780601f10611ba157610100808354040283529160200191611bcc565b820191906000526020600020905b815481529060010190602001808311611baf57829003601f168201915b50505050509050919050565b60606000600c6000848152602001908152602001600020600001600c60008581526020019081526020016000206001015481805480602002602001604051908101604052809291908181526020018280548015611c8a57602002820191906000526020600020905b8160009054906101000a900473ffffffffffffffffffffffffffffffffffffffff1673ffffffffffffffffffffffffffffffffffffffff1681526020019060010190808311611c40575b5050505050915091509150915091565b6000600e600083815260200190815260200160002060009054906101000a900460ff169050919050565b6000806008600084815260200190815260200160002060000154600860008581526020019081526020016000206001015491509150915091565b600e6020528060005260406000206000915054906101000a900460ff1681565b81611d2881611fc0565b611d3157600080fd5b611d4583603c611d408561267e565b611649565b505050565b82611d5481611fc0565b611d5d57600080fd5b81600660008681526020019081526020016000206000857bffffffffffffffffffffffffffffffffffffffffffffffffffffffff19167bffffffffffffffffffffffffffffffffffffffffffffffffffffffff1916815260200190815260200160002060006101000a81548173ffffffffffffffffffffffffffffffffffffffff021916908373ffffffffffffffffffffffffffffffffffffffff160217905550827bffffffffffffffffffffffffffffffffffffffffffffffffffffffff1916847f7c69f06bea0bdef565b709e93a147836b0063ba2dd89f02d0b7e8d931e6a6daa84604051611e4e9190613cbb565b60405180910390a350505050565b60606001600084815260200190815260200160002060008381526020019081526020016000208054600181600116156101000203166002900480601f016020809104026020016040519081016040528092919081815260200182805460018160011615610100020316600290048015611f165780601f10611eeb57610100808354040283529160200191611f16565b820191906000526020600020905b815481529060010190602001808311611ef957829003601f168201915b5050505050905092915050565b600b602052826000526040600020602052816000526040600020602052806000526040600020600092509250509054906101000a900460ff1681565b600063338bc8fa60e01b7bffffffffffffffffffffffffffffffffffffffffffffffffffffffff1916827bffffffffffffffffffffffffffffffffffffffffffffffffffffffff19161480611fb95750611fb8826126c9565b5b9050919050565b600080600a60009054906101000a900473ffffffffffffffffffffffffffffffffffffffff1673ffffffffffffffffffffffffffffffffffffffff166302571be3846040518263ffffffff1660e01b815260040161201e9190613d79565b60206040518083038186803b15801561203657600080fd5b505afa15801561204a573d6000803e3d6000fd5b505050506040513d601f19601f8201168201806040525061206e919081019061320e565b90503373ffffffffffffffffffffffffffffffffffffffff168173ffffffffffffffffffffffffffffffffffffffff1614806121415750600b600084815260200190815260200160002060008273ffffffffffffffffffffffffffffffffffffffff1673ffffffffffffffffffffffffffffffffffffffff16815260200190815260200160002060003373ffffffffffffffffffffffffffffffffffffffff1673ffffffffffffffffffffffffffffffffffffffff16815260200190815260200160002060009054906101000a900460ff165b915050919050565b612151612cae565b828160000181905250818160c001818152505061216d81612547565b92915050565b6000816000015151826020015110159050919050565b60606121b982602001516121a58460000151856020015161272a565b84600001516127859092919063ffffffff16565b9050919050565b60606121e98260a001518360a001518460c001510384600001516127859092919063ffffffff16565b9050919050565b60008151835114801561220f575061220e83600084600087516127f8565b5b905092915050565b60006003600089815260200190815260200160002054905060008780519060200120905060606122528686896127859092919063ffffffff16565b905083156123c7576000600460008c81526020019081526020016000206000858152602001908152602001600020600084815260200190815260200160002060008a61ffff1661ffff1681526020019081526020016000208054600181600116156101000203166002900490501461232e57600560008b815260200190815260200160002060008481526020019081526020016000206000838152602001908152602001600020600081819054906101000a900461ffff16809291906001900391906101000a81548161ffff021916908361ffff160217905550505b600460008b81526020019081526020016000206000848152602001908152602001600020600083815260200190815260200160002060008961ffff1661ffff16815260200190815260200160002060006123889190612f3a565b897f03528ed0c2a3ebc993b12ce3c16bb382f9c7d88ef7d8a1bf290eaf35955a12078a8a6040516123ba929190613e1e565b60405180910390a261253b565b6000600460008c81526020019081526020016000206000858152602001908152602001600020600084815260200190815260200160002060008a61ffff1661ffff168152602001908152602001600020805460018160011615610100020316600290049050141561249b57600560008b815260200190815260200160002060008481526020019081526020016000206000838152602001908152602001600020600081819054906101000a900461ffff168092919060010191906101000a81548161ffff021916908361ffff160217905550505b80600460008c81526020019081526020016000206000858152602001908152602001600020600084815260200190815260200160002060008a61ffff1661ffff16815260200190815260200160002090805190602001906124fd929190612df9565b50897f52a608b3303a48862d07a73d82fa221318c0027fbbcfb1b2329bface3f19ff2b8a8a8460405161253293929190613e4e565b60405180910390a25b50505050505050505050565b8060c0015181602001818152505080600001515181602001511061256a57612658565b600061257e8260000151836020015161272a565b826020015101905061259d81836000015161281c90919063ffffffff16565b826040019061ffff16908161ffff16815250506002810190506125cd81836000015161281c90919063ffffffff16565b826060019061ffff16908161ffff16815250506002810190506125fd81836000015161284290919063ffffffff16565b826080019063ffffffff16908163ffffffff1681525050600481019050600061263382846000015161281c90919063ffffffff16565b61ffff169050600282019150818360a00181815250508082018360c001818152505050505b50565b6000601482511461266b57600080fd5b600c6101000a6020830151049050919050565b606060146040519080825280601f01601f1916602001820160405280156126b45781602001600182028038833980820191505090505b509050600c6101000a82026020820152919050565b600063c53a441360e01b7bffffffffffffffffffffffffffffffffffffffffffffffffffffffff1916827bffffffffffffffffffffffffffffffffffffffffffffffffffffffff1916148061272357506127228261286a565b5b9050919050565b6000808290505b600115612779578351811061274257fe5b600061275782866128cb90919063ffffffff16565b60ff169050600181018201915060008114156127735750612779565b50612731565b82810391505092915050565b60608351828401111561279757600080fd5b6060826040519080825280601f01601f1916602001820160405280156127cc5781602001600182028038833980820191505090505b50905060008060208301915085602088010190506127eb8282876128ef565b8293505050509392505050565b6000612805848484612938565b612810878785612938565b14905095945050505050565b6000825160028301111561282f57600080fd5b61ffff8260028501015116905092915050565b6000825160048301111561285557600080fd5b63ffffffff8260048501015116905092915050565b60006359d1d43c60e01b7bffffffffffffffffffffffffffffffffffffffffffffffffffffffff1916827bffffffffffffffffffffffffffffffffffffffffffffffffffffffff191614806128c457506128c38261295b565b5b9050919050565b60008282815181106128d957fe5b602001015160f81c60f81b60f81c905092915050565b5b6020811061291357815183526020830192506020820191506020810390506128f0565b60006001826020036101000a0390508019835116818551168181178652505050505050565b60008351828401111561294a57600080fd5b818360208601012090509392505050565b600063c869023360e01b7bffffffffffffffffffffffffffffffffffffffffffffffffffffffff1916827bffffffffffffffffffffffffffffffffffffffffffffffffffffffff191614806129b557506129b4826129bc565b5b9050919050565b600063691f343160e01b7bffffffffffffffffffffffffffffffffffffffffffffffffffffffff1916827bffffffffffffffffffffffffffffffffffffffffffffffffffffffff19161480612a165750612a1582612a1d565b5b9050919050565b6000604051612a2b90613ca6565b60405180910390207bffffffffffffffffffffffffffffffffffffffffffffffffffffffff1916827bffffffffffffffffffffffffffffffffffffffffffffffffffffffff19161480612a835750612a8282612a8a565b5b9050919050565b600063a8fa568260e01b7bffffffffffffffffffffffffffffffffffffffffffffffffffffffff1916827bffffffffffffffffffffffffffffffffffffffffffffffffffffffff19161480612ae45750612ae382612aeb565b5b9050919050565b600063bc1c58d160e01b7bffffffffffffffffffffffffffffffffffffffffffffffffffffffff1916827bffffffffffffffffffffffffffffffffffffffffffffffffffffffff19161480612b455750612b4482612b4c565b5b9050919050565b6000633b3b57de60e01b7bffffffffffffffffffffffffffffffffffffffffffffffffffffffff1916827bffffffffffffffffffffffffffffffffffffffffffffffffffffffff19161480612be5575063f1cb7e0660e01b7bffffffffffffffffffffffffffffffffffffffffffffffffffffffff1916827bffffffffffffffffffffffffffffffffffffffffffffffffffffffff1916145b80612bf55750612bf482612bfc565b5b9050919050565b6000632203ab5660e01b7bffffffffffffffffffffffffffffffffffffffffffffffffffffffff1916827bffffffffffffffffffffffffffffffffffffffffffffffffffffffff19161480612c565750612c5582612c5d565b5b9050919050565b60006301ffc9a760e01b7bffffffffffffffffffffffffffffffffffffffffffffffffffffffff1916827bffffffffffffffffffffffffffffffffffffffffffffffffffffffff1916149050919050565b6040518060e001604052806060815260200160008152602001600061ffff168152602001600061ffff168152602001600063ffffffff16815260200160008152602001600081525090565b828054600181600116156101000203166002900490600052602060002090601f016020900481019282601f10612d3a57803560ff1916838001178555612d68565b82800160010185558215612d68579182015b82811115612d67578235825591602001919060010190612d4c565b5b509050612d759190612f82565b5090565b828054600181600116156101000203166002900490600052602060002090601f016020900481019282601f10612dba57803560ff1916838001178555612de8565b82800160010185558215612de8579182015b82811115612de7578235825591602001919060010190612dcc565b5b509050612df59190612f82565b5090565b828054600181600116156101000203166002900490600052602060002090601f016020900481019282601f10612e3a57805160ff1916838001178555612e68565b82800160010185558215612e68579182015b82811115612e67578251825591602001919060010190612e4c565b5b509050612e759190612f82565b5090565b5080546000825590600052602060002090810190612e979190612f82565b50565b828054828255906000526020600020908101928215612f29579160200282015b82811115612f2857823573ffffffffffffffffffffffffffffffffffffffff168260006101000a81548173ffffffffffffffffffffffffffffffffffffffff021916908373ffffffffffffffffffffffffffffffffffffffff16021790555091602001919060010190612eba565b5b509050612f369190612fa7565b5090565b50805460018160011615610100020316600290046000825580601f10612f605750612f7f565b601f016020900490600052602060002090810190612f7e9190612f82565b5b50565b612fa491905b80821115612fa0576000816000905550600101612f88565b5090565b90565b612fe791905b80821115612fe357600081816101000a81549073ffffffffffffffffffffffffffffffffffffffff021916905550600101612fad565b5090565b90565b600081359050612ff981614286565b92915050565b60008151905061300e81614286565b92915050565b60008083601f84011261302657600080fd5b8235905067ffffffffffffffff81111561303f57600080fd5b60208301915083602082028301111561305757600080fd5b9250929050565b60008083601f84011261307057600080fd5b8235905067ffffffffffffffff81111561308957600080fd5b6020830191508360208202830111156130a157600080fd5b9250929050565b6000813590506130b78161429d565b92915050565b6000813590506130cc816142b4565b92915050565b6000813590506130e1816142cb565b92915050565b60008083601f8401126130f957600080fd5b8235905067ffffffffffffffff81111561311257600080fd5b60208301915083600182028301111561312a57600080fd5b9250929050565b600082601f83011261314257600080fd5b813561315561315082613f8e565b613f61565b9150808252602083016020830185838301111561317157600080fd5b61317c8382846141df565b50505092915050565b60008083601f84011261319757600080fd5b8235905067ffffffffffffffff8111156131b057600080fd5b6020830191508360018202830111156131c857600080fd5b9250929050565b6000813590506131de816142e2565b92915050565b6000813590506131f3816142f9565b92915050565b60008135905061320881614310565b92915050565b60006020828403121561322057600080fd5b600061322e84828501612fff565b91505092915050565b6000806020838503121561324a57600080fd5b600083013567ffffffffffffffff81111561326457600080fd5b6132708582860161305e565b92509250509250929050565b60006020828403121561328e57600080fd5b600061329c848285016130bd565b91505092915050565b600080604083850312156132b857600080fd5b60006132c6858286016130bd565b92505060206132d785828601612fea565b9150509250929050565b6000806000606084860312156132f657600080fd5b6000613304868287016130bd565b935050602061331586828701612fea565b925050604061332686828701612fea565b9150509250925092565b60008060006060848603121561334557600080fd5b6000613353868287016130bd565b935050602061336486828701612fea565b9250506040613375868287016130a8565b9150509250925092565b60008060006040848603121561339457600080fd5b60006133a2868287016130bd565b935050602084013567ffffffffffffffff8111156133bf57600080fd5b6133cb86828701613014565b92509250509250925092565b600080604083850312156133ea57600080fd5b60006133f8858286016130bd565b9250506020613409858286016130bd565b9150509250929050565b60008060006060848603121561342857600080fd5b6000613436868287016130bd565b9350506020613447868287016130bd565b9250506040613458868287016130bd565b9150509250925092565b60008060006060848603121561347757600080fd5b6000613485868287016130bd565b9350506020613496868287016130bd565b92505060406134a7868287016131cf565b9150509250925092565b600080604083850312156134c457600080fd5b60006134d2858286016130bd565b92505060206134e3858286016130d2565b9150509250929050565b60008060006060848603121561350257600080fd5b6000613510868287016130bd565b9350506020613521868287016130d2565b925050604061353286828701612fea565b9150509250925092565b60008060006040848603121561355157600080fd5b600061355f868287016130bd565b935050602084013567ffffffffffffffff81111561357c57600080fd5b613588868287016130e7565b92509250509250925092565b6000806000604084860312156135a957600080fd5b60006135b7868287016130bd565b935050602084013567ffffffffffffffff8111156135d457600080fd5b6135e086828701613185565b92509250509250925092565b60008060008060006060868803121561360457600080fd5b6000613612888289016130bd565b955050602086013567ffffffffffffffff81111561362f57600080fd5b61363b88828901613185565b9450945050604086013567ffffffffffffffff81111561365a57600080fd5b61366688828901613185565b92509250509295509295909350565b6000806040838503121561368857600080fd5b6000613696858286016130bd565b92505060206136a7858286016131cf565b9150509250929050565b600080604083850312156136c457600080fd5b60006136d2858286016130bd565b92505060206136e3858286016131e4565b9150509250929050565b6000806000806060858703121561370357600080fd5b6000613711878288016130bd565b9450506020613722878288016131e4565b935050604085013567ffffffffffffffff81111561373f57600080fd5b61374b878288016130e7565b925092505092959194509250565b60008060006060848603121561376e57600080fd5b600061377c868287016130bd565b935050602061378d868287016131e4565b925050604084013567ffffffffffffffff8111156137aa57600080fd5b6137b686828701613131565b9150509250925092565b600080604083850312156137d357600080fd5b60006137e1858286016130bd565b92505060206137f2858286016131f9565b9150509250929050565b60006020828403121561380e57600080fd5b600061381c848285016130d2565b91505092915050565b6000613831838361386f565b60208301905092915050565b60006138498383613abd565b905092915050565b61385a816141a9565b82525050565b61386981614110565b82525050565b613878816140fe565b82525050565b613887816140fe565b82525050565b600061389882613fef565b6138a28185614069565b93506138ad83613fba565b8060005b838110156138de5781516138c58882613825565b97506138d083614031565b9250506001810190506138b1565b5085935050505092915050565b60006138f682613ffa565b6139008185614058565b935061390b83613fca565b8060005b838110156139435761392082614255565b61392a8882613825565b97506139358361403e565b92505060018101905061390f565b5085935050505092915050565b600061395b82614005565b613965818561407a565b93508360208202850161397785613fdf565b8060005b858110156139b35784840389528151613994858261383d565b945061399f8361404b565b925060208a0199505060018101905061397b565b50829750879550505050505092915050565b6139ce81614122565b82525050565b6139dd8161412e565b82525050565b6139ec8161412e565b82525050565b6139fb81614138565b82525050565b6000613a0d838561409c565b9350613a1a8385846141df565b613a2383614268565b840190509392505050565b6000613a3a83856140ad565b9350613a478385846141df565b82840190509392505050565b6000613a5e8261401b565b613a68818561409c565b9350613a788185602086016141ee565b613a8181614268565b840191505092915050565b6000613a978261401b565b613aa181856140ad565b9350613ab18185602086016141ee565b80840191505092915050565b6000613ac882614010565b613ad2818561408b565b9350613ae28185602086016141ee565b613aeb81614268565b840191505092915050565b6000613b0283856140b8565b9350613b0f8385846141df565b613b1883614268565b840190509392505050565b6000613b2f83856140c9565b9350613b3c8385846141df565b82840190509392505050565b6000613b5382614026565b613b5d81856140b8565b9350613b6d8185602086016141ee565b613b7681614268565b840191505092915050565b6000613b8e6024836140c9565b91507f696e74657266616365496d706c656d656e74657228627974657333322c62797460008301527f65733429000000000000000000000000000000000000000000000000000000006020830152602482019050919050565b60006040830160008084018583036000870152613c0483826138eb565b92505060018401549050613c178161423b565b613c2460208701826139d4565b50819250505092915050565b613c3981614164565b82525050565b613c4881614192565b82525050565b613c578161419c565b82525050565b6000613c6a828486613a2e565b91508190509392505050565b6000613c828284613a8c565b915081905092915050565b6000613c9a828486613b23565b91508190509392505050565b6000613cb182613b81565b9150819050919050565b6000602082019050613cd0600083018461387e565b92915050565b6000602082019050613ceb6000830184613851565b92915050565b6000602082019050613d066000830184613860565b92915050565b60006040820190508181036000830152613d26818561388d565b9050613d3560208301846139e3565b9392505050565b60006020820190508181036000830152613d568184613950565b905092915050565b6000602082019050613d7360008301846139c5565b92915050565b6000602082019050613d8e60008301846139e3565b92915050565b6000604082019050613da960008301856139e3565b613db660208301846139e3565b9392505050565b6000602082019050613dd260008301846139f2565b92915050565b60006020820190508181036000830152613df3818486613a01565b90509392505050565b60006020820190508181036000830152613e168184613a53565b905092915050565b60006040820190508181036000830152613e388185613a53565b9050613e476020830184613c30565b9392505050565b60006060820190508181036000830152613e688186613a53565b9050613e776020830185613c30565b8181036040830152613e898184613a53565b9050949350505050565b60006020820190508181036000830152613eae818486613af6565b90509392505050565b60006020820190508181036000830152613ed18184613b48565b905092915050565b60006020820190508181036000830152613ef38184613be7565b905092915050565b6000602082019050613f106000830184613c30565b92915050565b6000604082019050613f2b6000830185613c3f565b8181036020830152613f3d8184613a53565b90509392505050565b6000602082019050613f5b6000830184613c4e565b92915050565b6000604051905081810181811067ffffffffffffffff82111715613f8457600080fd5b8060405250919050565b600067ffffffffffffffff821115613fa557600080fd5b601f19601f8301169050602081019050919050565b6000819050602082019050919050565b60008190508160005260206000209050919050565b6000819050602082019050919050565b600081519050919050565b600081549050919050565b600081519050919050565b600081519050919050565b600081519050919050565b600081519050919050565b6000602082019050919050565b6000600182019050919050565b6000602082019050919050565b600082825260208201905092915050565b600082825260208201905092915050565b600082825260208201905092915050565b600082825260208201905092915050565b600082825260208201905092915050565b600081905092915050565b600082825260208201905092915050565b600081905092915050565b600073ffffffffffffffffffffffffffffffffffffffff82169050919050565b6000819050919050565b600061410982614172565b9050919050565b600061411b82614172565b9050919050565b60008115159050919050565b6000819050919050565b60007fffffffff0000000000000000000000000000000000000000000000000000000082169050919050565b600061ffff82169050919050565b600073ffffffffffffffffffffffffffffffffffffffff82169050919050565b6000819050919050565b600060ff82169050919050565b60006141b4826141bb565b9050919050565b60006141c6826141cd565b9050919050565b60006141d882614172565b9050919050565b82818337600083830152505050565b60005b8381101561420c5780820151818401526020810190506141f1565b8381111561421b576000848401525b50505050565b600061423461422f83614279565b6140d4565b9050919050565b600061424e61424983614279565b6140f4565b9050919050565b60006142618254614221565b9050919050565b6000601f19601f8301169050919050565b60008160001c9050919050565b61428f816140fe565b811461429a57600080fd5b50565b6142a681614122565b81146142b157600080fd5b50565b6142bd8161412e565b81146142c857600080fd5b50565b6142d481614138565b81146142df57600080fd5b50565b6142eb81614164565b81146142f657600080fd5b50565b61430281614192565b811461430d57600080fd5b50565b6143198161419c565b811461432457600080fd5b5056fea365627a7a723158208040f32fa6b12231f546652a1274fdd05fad183a5bd60ed790313ba5dfc74cc06c6578706572696d656e74616cf564736f6c63430005110040",
  "linkReferences": {},
  "deployedLinkReferences": {}
}