{
  "_format": "hh-sol-artifact-1",
  "contractName": "RoleDefinitionResolver",
  "sourceName": "contracts/RoleDefinitionResolver.sol",
  "abi": [
    {
      "inputs": [
        {
          "internalType": "contract ENS",
          "name": "_ens",
          "type": "address"
        }
      ],
      "payable": false,
      "stateMutability": "nonpayable",
      "type": "constructor"
    },
    {
      "anonymous": false,
      "inputs": [
        {
          "indexed": true,
          "internalType": "bytes32",
          "name": "node",
          "type": "bytes32"
        },
        {
          "indexed": true,
          "internalType": "uint256",
          "name": "contentType",
          "type": "uint256"
        }
      ],
      "name": "ABIChanged",
      "type": "event"
    },
    {
      "anonymous": false,
      "inputs": [
        {
          "indexed": true,
          "internalType": "bytes32",
          "name": "node",
          "type": "bytes32"
        },
        {
          "indexed": false,
          "internalType": "address",
          "name": "a",
          "type": "address"
        }
      ],
      "name": "AddrChanged",
      "type": "event"
    },
    {
      "anonymous": false,
      "inputs": [
        {
          "indexed": true,
          "internalType": "bytes32",
          "name": "node",
          "type": "bytes32"
        },
        {
          "indexed": false,
          "internalType": "uint256",
          "name": "coinType",
          "type": "uint256"
        },
        {
          "indexed": false,
          "internalType": "bytes",
          "name": "newAddress",
          "type": "bytes"
        }
      ],
      "name": "AddressChanged",
      "type": "event"
    },
    {
      "anonymous": false,
      "inputs": [
        {
          "indexed": true,
          "internalType": "bytes32",
          "name": "node",
          "type": "bytes32"
        },
        {
          "indexed": true,
          "internalType": "address",
          "name": "owner",
          "type": "address"
        },
        {
          "indexed": true,
          "internalType": "address",
          "name": "target",
          "type": "address"
        },
        {
          "indexed": false,
          "internalType": "bool",
          "name": "isAuthorised",
          "type": "bool"
        }
      ],
      "name": "AuthorisationChanged",
      "type": "event"
    },
    {
      "anonymous": false,
      "inputs": [
        {
          "indexed": true,
          "internalType": "bytes32",
          "name": "node",
          "type": "bytes32"
        },
        {
          "indexed": false,
          "internalType": "bytes",
          "name": "hash",
          "type": "bytes"
        }
      ],
      "name": "ContenthashChanged",
      "type": "event"
    },
    {
      "anonymous": false,
      "inputs": [
        {
          "indexed": true,
          "internalType": "bytes32",
          "name": "node",
          "type": "bytes32"
        },
        {
          "indexed": false,
          "internalType": "bytes",
          "name": "name",
          "type": "bytes"
        },
        {
          "indexed": false,
          "internalType": "uint16",
          "name": "resource",
          "type": "uint16"
        },
        {
          "indexed": false,
          "internalType": "bytes",
          "name": "record",
          "type": "bytes"
        }
      ],
      "name": "DNSRecordChanged",
      "type": "event"
    },
    {
      "anonymous": false,
      "inputs": [
        {
          "indexed": true,
          "internalType": "bytes32",
          "name": "node",
          "type": "bytes32"
        },
        {
          "indexed": false,
          "internalType": "bytes",
          "name": "name",
          "type": "bytes"
        },
        {
          "indexed": false,
          "internalType": "uint16",
          "name": "resource",
          "type": "uint16"
        }
      ],
      "name": "DNSRecordDeleted",
      "type": "event"
    },
    {
      "anonymous": false,
      "inputs": [
        {
          "indexed": true,
          "internalType": "bytes32",
          "name": "node",
          "type": "bytes32"
        }
      ],
      "name": "DNSZoneCleared",
      "type": "event"
    },
    {
      "anonymous": false,
      "inputs": [
        {
          "indexed": true,
          "internalType": "bytes32",
          "name": "node",
          "type": "bytes32"
        },
        {
          "indexed": false,
          "internalType": "uint256",
          "name": "addedType",
          "type": "uint256"
        }
      ],
      "name": "EnrolmentConditionTypeAdded",
      "type": "event"
    },
    {
      "anonymous": false,
      "inputs": [
        {
          "indexed": true,
          "internalType": "bytes32",
          "name": "node",
          "type": "bytes32"
        },
        {
          "indexed": false,
          "internalType": "uint256",
          "name": "removedType",
          "type": "uint256"
        }
      ],
      "name": "EnrolmentConditionTypeRemoved",
      "type": "event"
    },
    {
      "anonymous": false,
      "inputs": [
        {
          "indexed": true,
          "internalType": "bytes32",
          "name": "node",
          "type": "bytes32"
        },
        {
          "indexed": true,
          "internalType": "bytes4",
          "name": "interfaceID",
          "type": "bytes4"
        },
        {
          "indexed": false,
          "internalType": "address",
          "name": "implementer",
          "type": "address"
        }
      ],
      "name": "InterfaceChanged",
      "type": "event"
    },
    {
      "anonymous": false,
      "inputs": [
        {
          "indexed": true,
          "internalType": "bytes32",
          "name": "node",
          "type": "bytes32"
        },
        {
          "indexed": false,
          "internalType": "uint8",
          "name": "newType",
          "type": "uint8"
        }
      ],
      "name": "IssuerTypeChanged",
      "type": "event"
    },
    {
      "anonymous": false,
      "inputs": [
        {
          "indexed": true,
          "internalType": "bytes32",
          "name": "node",
          "type": "bytes32"
        },
        {
          "components": [
            {
              "internalType": "address[]",
              "name": "dids",
              "type": "address[]"
            },
            {
              "internalType": "bytes32",
              "name": "role",
              "type": "bytes32"
            }
          ],
          "indexed": false,
          "internalType": "struct IssuersResolver.Issuers",
          "name": "newIssuers",
          "type": "tuple"
        }
      ],
      "name": "IssuersChanged",
      "type": "event"
    },
    {
      "anonymous": false,
      "inputs": [
        {
          "indexed": true,
          "internalType": "bytes32",
          "name": "node",
          "type": "bytes32"
        },
        {
          "indexed": false,
          "internalType": "string",
          "name": "name",
          "type": "string"
        }
      ],
      "name": "NameChanged",
      "type": "event"
    },
    {
      "anonymous": false,
      "inputs": [
        {
          "indexed": true,
          "internalType": "bytes32",
          "name": "node",
          "type": "bytes32"
        },
        {
          "indexed": false,
          "internalType": "bytes32[]",
          "name": "newPrerequisiteRoles",
          "type": "bytes32[]"
        }
      ],
      "name": "PrerequisiteRolesChanged",
      "type": "event"
    },
    {
      "anonymous": false,
      "inputs": [
        {
          "indexed": true,
          "internalType": "bytes32",
          "name": "node",
          "type": "bytes32"
        },
        {
          "indexed": false,
          "internalType": "bytes32",
          "name": "x",
          "type": "bytes32"
        },
        {
          "indexed": false,
          "internalType": "bytes32",
          "name": "y",
          "type": "bytes32"
        }
      ],
      "name": "PubkeyChanged",
      "type": "event"
    },
    {
      "anonymous": false,
      "inputs": [
        {
          "indexed": true,
          "internalType": "bytes32",
          "name": "node",
          "type": "bytes32"
        },
        {
          "indexed": true,
          "internalType": "string",
          "name": "indexedKey",
          "type": "string"
        },
        {
          "indexed": false,
          "internalType": "string",
          "name": "key",
          "type": "string"
        }
      ],
      "name": "TextChanged",
      "type": "event"
    },
    {
      "anonymous": false,
      "inputs": [
        {
          "indexed": true,
          "internalType": "bytes32",
          "name": "node",
          "type": "bytes32"
        },
        {
          "indexed": false,
          "internalType": "uint16",
          "name": "newVersion",
          "type": "uint16"
        }
      ],
      "name": "VersionNumberChanged",
      "type": "event"
    },
    {
      "constant": true,
      "inputs": [
        {
          "internalType": "bytes32",
          "name": "node",
          "type": "bytes32"
        },
        {
          "internalType": "uint256",
          "name": "contentTypes",
          "type": "uint256"
        }
      ],
      "name": "ABI",
      "outputs": [
        {
          "internalType": "uint256",
          "name": "",
          "type": "uint256"
        },
        {
          "internalType": "bytes",
          "name": "",
          "type": "bytes"
        }
      ],
      "payable": false,
      "stateMutability": "view",
      "type": "function"
    },
    {
      "constant": false,
      "inputs": [
        {
          "internalType": "bytes32",
          "name": "node",
          "type": "bytes32"
        },
        {
          "internalType": "uint256",
          "name": "conditionType",
          "type": "uint256"
        }
      ],
      "name": "addConditionType",
      "outputs": [],
      "payable": false,
      "stateMutability": "nonpayable",
      "type": "function"
    },
    {
      "constant": true,
      "inputs": [
        {
          "internalType": "bytes32",
          "name": "node",
          "type": "bytes32"
        }
      ],
      "name": "addr",
      "outputs": [
        {
          "internalType": "address payable",
          "name": "",
          "type": "address"
        }
      ],
      "payable": false,
      "stateMutability": "view",
      "type": "function"
    },
    {
      "constant": true,
      "inputs": [
        {
          "internalType": "bytes32",
          "name": "node",
          "type": "bytes32"
        },
        {
          "internalType": "uint256",
          "name": "coinType",
          "type": "uint256"
        }
      ],
      "name": "addr",
      "outputs": [
        {
          "internalType": "bytes",
          "name": "",
          "type": "bytes"
        }
      ],
      "payable": false,
      "stateMutability": "view",
      "type": "function"
    },
    {
      "constant": true,
      "inputs": [
        {
          "internalType": "bytes32",
          "name": "",
          "type": "bytes32"
        },
        {
          "internalType": "address",
          "name": "",
          "type": "address"
        },
        {
          "internalType": "address",
          "name": "",
          "type": "address"
        }
      ],
      "name": "authorisations",
      "outputs": [
        {
          "internalType": "bool",
          "name": "",
          "type": "bool"
        }
      ],
      "payable": false,
      "stateMutability": "view",
      "type": "function"
    },
    {
      "constant": false,
      "inputs": [
        {
          "internalType": "bytes32",
          "name": "node",
          "type": "bytes32"
        }
      ],
      "name": "clearDNSZone",
      "outputs": [],
      "payable": false,
      "stateMutability": "nonpayable",
      "type": "function"
    },
    {
      "constant": true,
      "inputs": [
        {
          "internalType": "bytes32",
          "name": "",
          "type": "bytes32"
        },
        {
          "internalType": "uint256",
          "name": "",
          "type": "uint256"
        }
      ],
      "name": "conditionTypes",
      "outputs": [
        {
          "internalType": "bool",
          "name": "",
          "type": "bool"
        }
      ],
      "payable": false,
      "stateMutability": "view",
      "type": "function"
    },
    {
      "constant": true,
      "inputs": [
        {
          "internalType": "bytes32",
          "name": "node",
          "type": "bytes32"
        }
      ],
      "name": "contenthash",
      "outputs": [
        {
          "internalType": "bytes",
          "name": "",
          "type": "bytes"
        }
      ],
      "payable": false,
      "stateMutability": "view",
      "type": "function"
    },
    {
      "constant": true,
      "inputs": [
        {
          "internalType": "bytes32",
          "name": "node",
          "type": "bytes32"
        },
        {
          "internalType": "bytes32",
          "name": "name",
          "type": "bytes32"
        },
        {
          "internalType": "uint16",
          "name": "resource",
          "type": "uint16"
        }
      ],
      "name": "dnsRecord",
      "outputs": [
        {
          "internalType": "bytes",
          "name": "",
          "type": "bytes"
        }
      ],
      "payable": false,
      "stateMutability": "view",
      "type": "function"
    },
    {
      "constant": true,
      "inputs": [
        {
          "internalType": "bytes32",
          "name": "node",
          "type": "bytes32"
        },
        {
          "internalType": "bytes32",
          "name": "name",
          "type": "bytes32"
        }
      ],
      "name": "hasDNSRecords",
      "outputs": [
        {
          "internalType": "bool",
          "name": "",
          "type": "bool"
        }
      ],
      "payable": false,
      "stateMutability": "view",
      "type": "function"
    },
    {
      "constant": true,
      "inputs": [
        {
          "internalType": "bytes32",
          "name": "node",
          "type": "bytes32"
        },
        {
          "internalType": "bytes4",
          "name": "interfaceID",
          "type": "bytes4"
        }
      ],
      "name": "interfaceImplementer",
      "outputs": [
        {
          "internalType": "address",
          "name": "",
          "type": "address"
        }
      ],
      "payable": false,
      "stateMutability": "view",
      "type": "function"
    },
    {
      "constant": true,
      "inputs": [
        {
          "internalType": "bytes32",
          "name": "node",
          "type": "bytes32"
        }
      ],
      "name": "issuerType",
      "outputs": [
        {
          "internalType": "uint8",
          "name": "",
          "type": "uint8"
        }
      ],
      "payable": false,
      "stateMutability": "view",
      "type": "function"
    },
    {
      "constant": true,
      "inputs": [
        {
          "internalType": "bytes32",
          "name": "",
          "type": "bytes32"
        }
      ],
      "name": "issuerTypes",
      "outputs": [
        {
          "internalType": "uint8",
          "name": "",
          "type": "uint8"
        }
      ],
      "payable": false,
      "stateMutability": "view",
      "type": "function"
    },
    {
      "constant": true,
      "inputs": [
        {
          "internalType": "bytes32",
          "name": "node",
          "type": "bytes32"
        }
      ],
      "name": "issuers",
      "outputs": [
        {
          "internalType": "address[]",
          "name": "dids",
          "type": "address[]"
        },
        {
          "internalType": "bytes32",
          "name": "role",
          "type": "bytes32"
        }
      ],
      "payable": false,
      "stateMutability": "view",
      "type": "function"
    },
    {
      "constant": false,
      "inputs": [
        {
          "internalType": "bytes[]",
          "name": "data",
          "type": "bytes[]"
        }
      ],
      "name": "multicall",
      "outputs": [
        {
          "internalType": "bytes[]",
          "name": "results",
          "type": "bytes[]"
        }
      ],
      "payable": false,
      "stateMutability": "nonpayable",
      "type": "function"
    },
    {
      "constant": true,
      "inputs": [
        {
          "internalType": "bytes32",
          "name": "node",
          "type": "bytes32"
        }
      ],
      "name": "name",
      "outputs": [
        {
          "internalType": "string",
          "name": "",
          "type": "string"
        }
      ],
      "payable": false,
      "stateMutability": "view",
      "type": "function"
    },
    {
      "constant": true,
      "inputs": [
        {
          "internalType": "bytes32",
          "name": "node",
          "type": "bytes32"
        }
      ],
      "name": "prerequisiteRoles",
      "outputs": [
        {
          "internalType": "bytes32[]",
          "name": "roles",
          "type": "bytes32[]"
        }
      ],
      "payable": false,
      "stateMutability": "view",
      "type": "function"
    },
    {
      "constant": true,
      "inputs": [
        {
          "internalType": "bytes32",
          "name": "node",
          "type": "bytes32"
        }
      ],
      "name": "pubkey",
      "outputs": [
        {
          "internalType": "bytes32",
          "name": "x",
          "type": "bytes32"
        },
        {
          "internalType": "bytes32",
          "name": "y",
          "type": "bytes32"
        }
      ],
      "payable": false,
      "stateMutability": "view",
      "type": "function"
    },
    {
      "constant": false,
      "inputs": [
        {
          "internalType": "bytes32",
          "name": "node",
          "type": "bytes32"
        },
        {
          "internalType": "uint256",
          "name": "conditionType",
          "type": "uint256"
        }
      ],
      "name": "removeConditionType",
      "outputs": [],
      "payable": false,
      "stateMutability": "nonpayable",
      "type": "function"
    },
    {
      "constant": true,
      "inputs": [
        {
          "internalType": "bytes32",
          "name": "node",
          "type": "bytes32"
        },
        {
          "internalType": "uint256",
          "name": "condition",
          "type": "uint256"
        }
      ],
      "name": "requiresConditionType",
      "outputs": [
        {
          "internalType": "bool",
          "name": "",
          "type": "bool"
        }
      ],
      "payable": false,
      "stateMutability": "view",
      "type": "function"
    },
    {
      "constant": false,
      "inputs": [
        {
          "internalType": "bytes32",
          "name": "node",
          "type": "bytes32"
        },
        {
          "internalType": "uint256",
          "name": "contentType",
          "type": "uint256"
        },
        {
          "internalType": "bytes",
          "name": "data",
          "type": "bytes"
        }
      ],
      "name": "setABI",
      "outputs": [],
      "payable": false,
      "stateMutability": "nonpayable",
      "type": "function"
    },
    {
      "constant": false,
      "inputs": [
        {
          "internalType": "bytes32",
          "name": "node",
          "type": "bytes32"
        },
        {
          "internalType": "uint256",
          "name": "coinType",
          "type": "uint256"
        },
        {
          "internalType": "bytes",
          "name": "a",
          "type": "bytes"
        }
      ],
      "name": "setAddr",
      "outputs": [],
      "payable": false,
      "stateMutability": "nonpayable",
      "type": "function"
    },
    {
      "constant": false,
      "inputs": [
        {
          "internalType": "bytes32",
          "name": "node",
          "type": "bytes32"
        },
        {
          "internalType": "address",
          "name": "a",
          "type": "address"
        }
      ],
      "name": "setAddr",
      "outputs": [],
      "payable": false,
      "stateMutability": "nonpayable",
      "type": "function"
    },
    {
      "constant": false,
      "inputs": [
        {
          "internalType": "bytes32",
          "name": "node",
          "type": "bytes32"
        },
        {
          "internalType": "address",
          "name": "target",
          "type": "address"
        },
        {
          "internalType": "bool",
          "name": "isAuthorised",
          "type": "bool"
        }
      ],
      "name": "setAuthorisation",
      "outputs": [],
      "payable": false,
      "stateMutability": "nonpayable",
      "type": "function"
    },
    {
      "constant": false,
      "inputs": [
        {
          "internalType": "bytes32",
          "name": "node",
          "type": "bytes32"
        },
        {
          "internalType": "bytes",
          "name": "hash",
          "type": "bytes"
        }
      ],
      "name": "setContenthash",
      "outputs": [],
      "payable": false,
      "stateMutability": "nonpayable",
      "type": "function"
    },
    {
      "constant": false,
      "inputs": [
        {
          "internalType": "bytes32",
          "name": "node",
          "type": "bytes32"
        },
        {
          "internalType": "bytes",
          "name": "data",
          "type": "bytes"
        }
      ],
      "name": "setDNSRecords",
      "outputs": [],
      "payable": false,
      "stateMutability": "nonpayable",
      "type": "function"
    },
    {
      "constant": false,
      "inputs": [
        {
          "internalType": "bytes32",
          "name": "node",
          "type": "bytes32"
        },
        {
          "internalType": "bytes4",
          "name": "interfaceID",
          "type": "bytes4"
        },
        {
          "internalType": "address",
          "name": "implementer",
          "type": "address"
        }
      ],
      "name": "setInterface",
      "outputs": [],
      "payable": false,
      "stateMutability": "nonpayable",
      "type": "function"
    },
    {
      "constant": false,
      "inputs": [
        {
          "internalType": "bytes32",
          "name": "node",
          "type": "bytes32"
        },
        {
          "internalType": "address[]",
          "name": "dids",
          "type": "address[]"
        }
      ],
      "name": "setIssuerDids",
      "outputs": [],
      "payable": false,
      "stateMutability": "nonpayable",
      "type": "function"
    },
    {
      "constant": false,
      "inputs": [
        {
          "internalType": "bytes32",
          "name": "node",
          "type": "bytes32"
        },
        {
          "internalType": "bytes32",
          "name": "role",
          "type": "bytes32"
        }
      ],
      "name": "setIssuerRole",
      "outputs": [],
      "payable": false,
      "stateMutability": "nonpayable",
      "type": "function"
    },
    {
      "constant": false,
      "inputs": [
        {
          "internalType": "bytes32",
          "name": "node",
          "type": "bytes32"
        },
        {
          "internalType": "uint8",
          "name": "issuerType",
          "type": "uint8"
        }
      ],
      "name": "setIssuerType",
      "outputs": [],
      "payable": false,
      "stateMutability": "nonpayable",
      "type": "function"
    },
    {
      "constant": false,
      "inputs": [
        {
          "internalType": "bytes32",
          "name": "node",
          "type": "bytes32"
        },
        {
          "internalType": "string",
          "name": "name",
          "type": "string"
        }
      ],
      "name": "setName",
      "outputs": [],
      "payable": false,
      "stateMutability": "nonpayable",
      "type": "function"
    },
    {
      "constant": false,
      "inputs": [
        {
          "internalType": "bytes32",
          "name": "node",
          "type": "bytes32"
        },
        {
          "internalType": "bytes32[]",
          "name": "roles",
          "type": "bytes32[]"
        }
      ],
      "name": "setPrerequisiteRoles",
      "outputs": [],
      "payable": false,
      "stateMutability": "nonpayable",
      "type": "function"
    },
    {
      "constant": false,
      "inputs": [
        {
          "internalType": "bytes32",
          "name": "node",
          "type": "bytes32"
        },
        {
          "internalType": "bytes32",
          "name": "x",
          "type": "bytes32"
        },
        {
          "internalType": "bytes32",
          "name": "y",
          "type": "bytes32"
        }
      ],
      "name": "setPubkey",
      "outputs": [],
      "payable": false,
      "stateMutability": "nonpayable",
      "type": "function"
    },
    {
      "constant": false,
      "inputs": [
        {
          "internalType": "bytes32",
          "name": "node",
          "type": "bytes32"
        },
        {
          "internalType": "string",
          "name": "key",
          "type": "string"
        },
        {
          "internalType": "string",
          "name": "value",
          "type": "string"
        }
      ],
      "name": "setText",
      "outputs": [],
      "payable": false,
      "stateMutability": "nonpayable",
      "type": "function"
    },
    {
      "constant": false,
      "inputs": [
        {
          "internalType": "bytes32",
          "name": "node",
          "type": "bytes32"
        },
        {
          "internalType": "uint16",
          "name": "versionNumber",
          "type": "uint16"
        }
      ],
      "name": "setVersionNumber",
      "outputs": [],
      "payable": false,
      "stateMutability": "nonpayable",
      "type": "function"
    },
    {
      "constant": true,
      "inputs": [
        {
          "internalType": "bytes4",
          "name": "interfaceID",
          "type": "bytes4"
        }
      ],
      "name": "supportsInterface",
      "outputs": [
        {
          "internalType": "bool",
          "name": "",
          "type": "bool"
        }
      ],
      "payable": false,
      "stateMutability": "pure",
      "type": "function"
    },
    {
      "constant": true,
      "inputs": [
        {
          "internalType": "bytes32",
          "name": "node",
          "type": "bytes32"
        },
        {
          "internalType": "string",
          "name": "key",
          "type": "string"
        }
      ],
      "name": "text",
      "outputs": [
        {
          "internalType": "string",
          "name": "",
          "type": "string"
        }
      ],
      "payable": false,
      "stateMutability": "view",
      "type": "function"
    },
    {
      "constant": true,
      "inputs": [
        {
          "internalType": "bytes32",
          "name": "node",
          "type": "bytes32"
        }
      ],
      "name": "versionNumber",
      "outputs": [
        {
          "internalType": "uint16",
          "name": "",
          "type": "uint16"
        }
      ],
      "payable": false,
      "stateMutability": "view",
      "type": "function"
    },
    {
      "constant": true,
      "inputs": [
        {
          "internalType": "bytes32",
          "name": "",
          "type": "bytes32"
        }
      ],
      "name": "versionNumbers",
      "outputs": [
        {
          "internalType": "uint16",
          "name": "",
          "type": "uint16"
        }
      ],
      "payable": false,
      "stateMutability": "view",
      "type": "function"
    }
  ],
  "bytecode": "0x60806040523480156200001157600080fd5b5060405162004c4338038062004c43833981810160405262000037919081019062000098565b8080600a60006101000a81548173ffffffffffffffffffffffffffffffffffffffff021916908373ffffffffffffffffffffffffffffffffffffffff160217905550505062000126565b60008151905062000092816200010c565b92915050565b600060208284031215620000ab57600080fd5b6000620000bb8482850162000081565b91505092915050565b6000620000d182620000ec565b9050919050565b6000620000e582620000c4565b9050919050565b600073ffffffffffffffffffffffffffffffffffffffff82169050919050565b6200011781620000d8565b81146200012357600080fd5b50565b614b0d80620001366000396000f3fe608060405234801561001057600080fd5b506004361061023d5760003560e01c8063916b848a1161013b578063c585f697116100b8578063d5fa2b001161007c578063d5fa2b0014610779578063e2173f5414610795578063e59d895d146107b1578063f1cb7e06146107cd578063f86bc879146107fd5761023d565b8063c585f6971461069c578063c7b24e23146106cc578063c8690233146106e8578063c986c40414610719578063d055e4f8146107495761023d565b8063ad5780af116100ff578063ad5780af146105d3578063afe767c6146105ef578063bad72cbe1461061f578063bc1c58d11461063b578063c53a44131461066b5761023d565b8063916b848a1461050b5780639c4e8ad014610527578063a364d91d14610557578063a8fa568214610573578063ac9650d8146105a35761023d565b80633e884c3d116101c957806359d1d43c1161018d57806359d1d43c14610457578063623195b014610487578063691f3431146104a357806377372213146104d35780638b95dd71146104ef5761023d565b80633e884c3d146103a35780633e9ce794146103bf5780634cbf6ba4146103db5780635146bd641461040b57806355329f3f1461043b5761023d565b80632203ab56116102105780632203ab56146102da57806329cd62ea1461030b578063304e6ade14610327578063338bc8fa146103435780633b3b57de146103735761023d565b806301ffc9a7146102425780630af179d71461027257806310f13a8c1461028e578063124a319c146102aa575b600080fd5b61025c60048036036102579190810190613dec565b61082d565b604051610269919061446d565b60405180910390f35b61028c60048036036102879190810190613b2c565b61088e565b005b6102a860048036036102a39190810190613bdc565b610abc565b005b6102c460048036036102bf9190810190613aa1565b610b6a565b6040516102d19190614386565b60405180910390f35b6102f460048036036102ef9190810190613ca1565b610f55565b604051610302929190614640565b60405180910390f35b61032560048036036103209190810190613a03565b6110a4565b005b610341600480360361033c9190810190613b2c565b611136565b005b61035d60048036036103589190810190613814565b6111ac565b60405161036a919061460a565b60405180910390f35b61038d60048036036103889190810190613814565b6111d7565b60405161039a91906143bc565b60405180910390f35b6103bd60048036036103b89190810190613c65565b61120e565b005b6103d960048036036103d491908101906138c8565b6112ad565b005b6103f560048036036103f091908101906139c7565b6113bd565b604051610402919061446d565b60405180910390f35b61042560048036036104209190810190613814565b611425565b604051610432919061460a565b60405180910390f35b61045560048036036104509190810190613db0565b611446565b005b610471600480360361046c9190810190613b84565b6114e2565b60405161047e91906145c6565b60405180910390f35b6104a1600480360361049c9190810190613cdd565b6115b7565b005b6104bd60048036036104b89190810190613814565b611644565b6040516104ca91906145c6565b60405180910390f35b6104ed60048036036104e89190810190613b84565b6116f9565b005b61050960048036036105049190810190613d49565b61176f565b005b610525600480360361052091908101906139c7565b611845565b005b610541600480360361053c9190810190613ca1565b6118e4565b60405161054e919061446d565b60405180910390f35b610571600480360361056c9190810190613ca1565b611913565b005b61058d60048036036105889190810190613a52565b6119df565b60405161059a919061450b565b60405180910390f35b6105bd60048036036105b891908101906137cf565b611ae4565b6040516105ca919061444b565b60405180910390f35b6105ed60048036036105e89190810190613814565b611c3a565b005b61060960048036036106049190810190613ca1565b611ca1565b604051610616919061446d565b60405180910390f35b61063960048036036106349190810190613917565b611cdd565b005b61065560048036036106509190810190613814565b611d80565b604051610662919061450b565b60405180910390f35b61068560048036036106809190810190613814565b611e35565b6040516106939291906143d7565b60405180910390f35b6106b660048036036106b19190810190613814565b611ef7565b6040516106c39190614670565b60405180910390f35b6106e660048036036106e1919081019061396f565b611f21565b005b61070260048036036106fd9190810190613814565b611fa7565b6040516107109291906144a3565b60405180910390f35b610733600480360361072e9190810190613814565b611fe1565b6040516107409190614407565b60405180910390f35b610763600480360361075e9190810190613814565b61204c565b6040516107709190614670565b60405180910390f35b610793600480360361078e919081019061383d565b61206c565b005b6107af60048036036107aa9190810190613ca1565b612098565b005b6107cb60048036036107c69190810190613add565b612164565b005b6107e760048036036107e29190810190613ca1565b612276565b6040516107f4919061450b565b60405180910390f35b61081760048036036108129190810190613879565b61233d565b604051610824919061446d565b60405180910390f35b600063c986c40460e01b7bffffffffffffffffffffffffffffffffffffffffffffffffffffffff1916827bffffffffffffffffffffffffffffffffffffffffffffffffffffffff19161480610887575061088682612379565b5b9050919050565b82610898816123da565b6108a157600080fd5b6000809050600080905060608060006108b861318a565b61091060008a8a8080601f016020809104026020016040519081016040528093929190818152602001838380828437600081840152601f19601f8201169050808301925050505050505061256390919063ffffffff16565b90505b61091c8161258d565b610a495760008661ffff161415610978578060400151955061093d816125a3565b9350836040516020016109509190614341565b604051602081830303815290604052805190602001209150610971816125da565b9250610a3b565b6060610983826125a3565b9050816040015161ffff168761ffff161415806109b057506109ae818661260a90919063ffffffff16565b155b15610a3957610a128b86898d8d8080601f016020809104026020016040519081016040528093929190818152602001838380828437600081840152601f19601f820116905080830192505050505050508a8b88602001510360008b5114612631565b816040015196508160200151955080945084805190602001209250610a36826125da565b93505b505b610a4481612961565b610913565b50600083511115610ab157610ab08984878b8b8080601f016020809104026020016040519081016040528093929190818152602001838380828437600081840152601f19601f8201169050808301925050505050505088898e8e9050036000895114612631565b5b505050505050505050565b84610ac6816123da565b610acf57600080fd5b8282600960008981526020019081526020016000208787604051610af4929190614358565b90815260200160405180910390209190610b0f9291906131d5565b508484604051610b20929190614358565b6040518091039020867fd8c9334b1a9c2f9da342a0a2b32629c1a229b6445dad78947f674b44444a75508787604051610b5a9291906145a2565b60405180910390a3505050505050565b600080600660008581526020019081526020016000206000847bffffffffffffffffffffffffffffffffffffffffffffffffffffffff19167bffffffffffffffffffffffffffffffffffffffffffffffffffffffff1916815260200190815260200160002060009054906101000a900473ffffffffffffffffffffffffffffffffffffffff169050600073ffffffffffffffffffffffffffffffffffffffff168173ffffffffffffffffffffffffffffffffffffffff1614610c2f5780915050610f4f565b6000610c3a856111d7565b9050600073ffffffffffffffffffffffffffffffffffffffff168173ffffffffffffffffffffffffffffffffffffffff161415610c7c57600092505050610f4f565b600060608273ffffffffffffffffffffffffffffffffffffffff166301ffc9a760e01b604051602401610caf91906144cc565b6040516020818303038152906040527f01ffc9a7000000000000000000000000000000000000000000000000000000007bffffffffffffffffffffffffffffffffffffffffffffffffffffffff19166020820180517bffffffffffffffffffffffffffffffffffffffffffffffffffffffff8381831617835250505050604051610d399190614341565b600060405180830381855afa9150503d8060008114610d74576040519150601f19603f3d011682016040523d82523d6000602084013e610d79565b606091505b5091509150811580610d8c575060208151105b80610dd35750600060f81b81601f81518110610da457fe5b602001015160f81c60f81b7effffffffffffffffffffffffffffffffffffffffffffffffffffffffffffff1916145b15610de5576000945050505050610f4f565b8273ffffffffffffffffffffffffffffffffffffffff1686604051602401610e0d91906144cc565b6040516020818303038152906040527f01ffc9a7000000000000000000000000000000000000000000000000000000007bffffffffffffffffffffffffffffffffffffffffffffffffffffffff19166020820180517bffffffffffffffffffffffffffffffffffffffffffffffffffffffff8381831617835250505050604051610e979190614341565b600060405180830381855afa9150503d8060008114610ed2576040519150601f19603f3d011682016040523d82523d6000602084013e610ed7565b606091505b508092508193505050811580610eee575060208151105b80610f355750600060f81b81601f81518110610f0657fe5b602001015160f81c60f81b7effffffffffffffffffffffffffffffffffffffffffffffffffffffffffffff1916145b15610f47576000945050505050610f4f565b829450505050505b92915050565b60006060600080600086815260200190815260200160002090506000600190505b84811161108157600085821614158015610fb657506000826000838152602001908152602001600020805460018160011615610100020316600290049050115b156110755780826000838152602001908152602001600020808054600181600116156101000203166002900480601f0160208091040260200160405190810160405280929190818152602001828054600181600116156101000203166002900480156110635780601f1061103857610100808354040283529160200191611063565b820191906000526020600020905b81548152906001019060200180831161104657829003601f168201915b5050505050905093509350505061109d565b600181901b9050610f76565b5060006040518060200160405280600081525081915092509250505b9250929050565b826110ae816123da565b6110b757600080fd5b604051806040016040528084815260200183815250600860008681526020019081526020016000206000820151816000015560208201518160010155905050837f1d6f5e03d3f63eb58751986629a5439baee5079ff04f345becb66e23eb154e4684846040516111289291906144a3565b60405180910390a250505050565b82611140816123da565b61114957600080fd5b828260026000878152602001908152602001600020919061116b929190613255565b50837fe379c1624ed7e714cc0937528a32359d69d5281337765313dba4e081b72d7578848460405161119e9291906144e7565b60405180910390a250505050565b6000600c600083815260200190815260200160002060009054906101000a900461ffff169050919050565b600060606111e683603c612276565b90506000815114156111fc576000915050611209565b61120581612a75565b9150505b919050565b81611218816123da565b61122157600080fd5b81600c600085815260200190815260200160002060006101000a81548161ffff021916908361ffff160217905550827fa230dc8fb82f50f5395930e75aa5115d3fbd5164770ec07592b80d1e49cf31aa600c600086815260200190815260200160002060009054906101000a900461ffff166040516112a0919061460a565b60405180910390a2505050565b80600b600085815260200190815260200160002060003373ffffffffffffffffffffffffffffffffffffffff1673ffffffffffffffffffffffffffffffffffffffff16815260200190815260200160002060008473ffffffffffffffffffffffffffffffffffffffff1673ffffffffffffffffffffffffffffffffffffffff16815260200190815260200160002060006101000a81548160ff0219169083151502179055508173ffffffffffffffffffffffffffffffffffffffff163373ffffffffffffffffffffffffffffffffffffffff16847fe1c5610a6e0cbe10764ecd182adcef1ec338dc4e199c99c32ce98f38e12791df846040516113b0919061446d565b60405180910390a4505050565b60008060056000858152602001908152602001600020600060036000878152602001908152602001600020548152602001908152602001600020600084815260200190815260200160002060009054906101000a900461ffff1661ffff161415905092915050565b600c6020528060005260406000206000915054906101000a900461ffff1681565b81611450816123da565b61145957600080fd5b81600d600085815260200190815260200160002060006101000a81548160ff021916908360ff160217905550827f7fc5f6d56736f6859a63066a1e8f557dc0b34a3a0af625f99db5a258963399d3600d600086815260200190815260200160002060009054906101000a900460ff166040516114d59190614670565b60405180910390a2505050565b6060600960008581526020019081526020016000208383604051611507929190614358565b90815260200160405180910390208054600181600116156101000203166002900480601f0160208091040260200160405190810160405280929190818152602001828054600181600116156101000203166002900480156115a95780601f1061157e576101008083540402835291602001916115a9565b820191906000526020600020905b81548152906001019060200180831161158c57829003601f168201915b505050505090509392505050565b836115c1816123da565b6115ca57600080fd5b6000846001860316146115dc57600080fd5b82826000808881526020019081526020016000206000878152602001908152602001600020919061160e929190613255565b5083857faa121bbeef5f32f5961a2a28966e769023910fc9479059ee3495d4c1a696efe360405160405180910390a35050505050565b6060600760008381526020019081526020016000208054600181600116156101000203166002900480601f0160208091040260200160405190810160405280929190818152602001828054600181600116156101000203166002900480156116ed5780601f106116c2576101008083540402835291602001916116ed565b820191906000526020600020905b8154815290600101906020018083116116d057829003601f168201915b50505050509050919050565b82611703816123da565b61170c57600080fd5b828260076000878152602001908152602001600020919061172e9291906131d5565b50837fb7d29e911041e8d9b843369e890bcb72c9388692ba48b65ac54e7214c4c348f784846040516117619291906145a2565b60405180910390a250505050565b82611779816123da565b61178257600080fd5b837f65412581168e88a1e60c6459d7f44ae83ad0832e670826c05a4e2476b57af75284846040516117b4929190614640565b60405180910390a2603c83141561180657837f52d7d861f09ab3d26239d492e8968629f95e9e318cf0b73bfddc441522a15fd26117f084612a75565b6040516117fd91906143a1565b60405180910390a25b81600160008681526020019081526020016000206000858152602001908152602001600020908051906020019061183e9291906132d5565b5050505050565b8161184f816123da565b61185857600080fd5b81600e600085815260200190815260200160002060010181905550600e600084815260200190815260200160002060000160006118959190613355565b827fab0ef04b258ea77c9247dad5b03ada5b2ed5b370f62963b9f84bd9066d499e5c600e60008681526020019081526020016000206040516118d791906145e8565b60405180910390a2505050565b600f6020528160005260406000206020528060005260406000206000915091509054906101000a900460ff1681565b8161191d816123da565b61192657600080fd5b60011515600f6000858152602001908152602001600020600084815260200190815260200160002060009054906101000a900460ff16151514156119da576000600f6000858152602001908152602001600020600084815260200190815260200160002060006101000a81548160ff021916908315150217905550827f5ac1414b47930d4ad0c77f47c69ebbfe89e68c4bdd0f1fd33d3172775eb363fd836040516119d19190614625565b60405180910390a25b505050565b606060046000858152602001908152602001600020600060036000878152602001908152602001600020548152602001908152602001600020600084815260200190815260200160002060008361ffff1661ffff1681526020019081526020016000208054600181600116156101000203166002900480601f016020809104026020016040519081016040528092919081815260200182805460018160011615610100020316600290048015611ad65780601f10611aab57610100808354040283529160200191611ad6565b820191906000526020600020905b815481529060010190602001808311611ab957829003601f168201915b505050505090509392505050565b606082829050604051908082528060200260200182016040528015611b1d57816020015b6060815260200190600190039081611b085790505b50905060008090505b83839050811015611c3057600060603073ffffffffffffffffffffffffffffffffffffffff16868685818110611b5857fe5b9050602002810180356001602003833603038112611b7557600080fd5b8083019250508135905060208201915067ffffffffffffffff811115611b9a57600080fd5b600181023603821315611bac57600080fd5b604051611bba929190614328565b600060405180830381855af49150503d8060008114611bf5576040519150601f19603f3d011682016040523d82523d6000602084013e611bfa565b606091505b509150915081611c0957600080fd5b80848481518110611c1657fe5b602002602001018190525050508080600101915050611b26565b5080905092915050565b80611c44816123da565b611c4d57600080fd5b6003600083815260200190815260200160002060008154809291906001019190505550817fb757169b8492ca2f1c6619d9d76ce22803035c3b1d5f6930dffe7b127c1a198360405160405180910390a25050565b6000600f6000848152602001908152602001600020600083815260200190815260200160002060009054906101000a900460ff16905092915050565b82611ce7816123da565b611cf057600080fd5b8282600e60008781526020019081526020016000206000019190611d15929190613376565b50600e600085815260200190815260200160002060010160009055837fab0ef04b258ea77c9247dad5b03ada5b2ed5b370f62963b9f84bd9066d499e5c600e6000878152602001908152602001600020604051611d7291906145e8565b60405180910390a250505050565b6060600260008381526020019081526020016000208054600181600116156101000203166002900480601f016020809104026020016040519081016040528092919081815260200182805460018160011615610100020316600290048015611e295780601f10611dfe57610100808354040283529160200191611e29565b820191906000526020600020905b815481529060010190602001808311611e0c57829003601f168201915b50505050509050919050565b60606000600e6000848152602001908152602001600020600001600e60008581526020019081526020016000206001015481805480602002602001604051908101604052809291908181526020018280548015611ee757602002820191906000526020600020905b8160009054906101000a900473ffffffffffffffffffffffffffffffffffffffff1673ffffffffffffffffffffffffffffffffffffffff1681526020019060010190808311611e9d575b5050505050915091509150915091565b6000600d600083815260200190815260200160002060009054906101000a900460ff169050919050565b82611f2b816123da565b611f3457600080fd5b8282601060008781526020019081526020016000209190611f56929190613416565b50837f7cfaaaaecccb264a886d12a7242843edafee25a939747c5b94c8a2b4eb44c33860106000878152602001908152602001600020604051611f999190614429565b60405180910390a250505050565b6000806008600084815260200190815260200160002060000154600860008581526020019081526020016000206001015491509150915091565b60606010600083815260200190815260200160002080548060200260200160405190810160405280929190818152602001828054801561204057602002820191906000526020600020905b81548152602001906001019080831161202c575b50505050509050919050565b600d6020528060005260406000206000915054906101000a900460ff1681565b81612076816123da565b61207f57600080fd5b61209383603c61208e85612a98565b61176f565b505050565b816120a2816123da565b6120ab57600080fd5b60001515600f6000858152602001908152602001600020600084815260200190815260200160002060009054906101000a900460ff161515141561215f576001600f6000858152602001908152602001600020600084815260200190815260200160002060006101000a81548160ff021916908315150217905550827fd3fc6df4f8e11bb656345bcadf975802828de54c04eedb91954350b6a2cd70b3836040516121569190614625565b60405180910390a25b505050565b8261216e816123da565b61217757600080fd5b81600660008681526020019081526020016000206000857bffffffffffffffffffffffffffffffffffffffffffffffffffffffff19167bffffffffffffffffffffffffffffffffffffffffffffffffffffffff1916815260200190815260200160002060006101000a81548173ffffffffffffffffffffffffffffffffffffffff021916908373ffffffffffffffffffffffffffffffffffffffff160217905550827bffffffffffffffffffffffffffffffffffffffffffffffffffffffff1916847f7c69f06bea0bdef565b709e93a147836b0063ba2dd89f02d0b7e8d931e6a6daa846040516122689190614386565b60405180910390a350505050565b60606001600084815260200190815260200160002060008381526020019081526020016000208054600181600116156101000203166002900480601f0160208091040260200160405190810160405280929190818152602001828054600181600116156101000203166002900480156123305780601f1061230557610100808354040283529160200191612330565b820191906000526020600020905b81548152906001019060200180831161231357829003601f168201915b5050505050905092915050565b600b602052826000526040600020602052816000526040600020602052806000526040600020600092509250509054906101000a900460ff1681565b600063afe767c660e01b7bffffffffffffffffffffffffffffffffffffffffffffffffffffffff1916827bffffffffffffffffffffffffffffffffffffffffffffffffffffffff191614806123d357506123d282612ae3565b5b9050919050565b600080600a60009054906101000a900473ffffffffffffffffffffffffffffffffffffffff1673ffffffffffffffffffffffffffffffffffffffff166302571be3846040518263ffffffff1660e01b81526004016124389190614488565b60206040518083038186803b15801561245057600080fd5b505afa158015612464573d6000803e3d6000fd5b505050506040513d601f19601f8201168201806040525061248891908101906137a6565b90503373ffffffffffffffffffffffffffffffffffffffff168173ffffffffffffffffffffffffffffffffffffffff16148061255b5750600b600084815260200190815260200160002060008273ffffffffffffffffffffffffffffffffffffffff1673ffffffffffffffffffffffffffffffffffffffff16815260200190815260200160002060003373ffffffffffffffffffffffffffffffffffffffff1673ffffffffffffffffffffffffffffffffffffffff16815260200190815260200160002060009054906101000a900460ff165b915050919050565b61256b61318a565b828160000181905250818160c001818152505061258781612961565b92915050565b6000816000015151826020015110159050919050565b60606125d382602001516125bf84600001518560200151612b44565b8460000151612b9f9092919063ffffffff16565b9050919050565b60606126038260a001518360a001518460c00151038460000151612b9f9092919063ffffffff16565b9050919050565b60008151835114801561262957506126288360008460008751612c12565b5b905092915050565b600060036000898152602001908152602001600020549050600087805190602001209050606061266c868689612b9f9092919063ffffffff16565b905083156127e1576000600460008c81526020019081526020016000206000858152602001908152602001600020600084815260200190815260200160002060008a61ffff1661ffff1681526020019081526020016000208054600181600116156101000203166002900490501461274857600560008b815260200190815260200160002060008481526020019081526020016000206000838152602001908152602001600020600081819054906101000a900461ffff16809291906001900391906101000a81548161ffff021916908361ffff160217905550505b600460008b81526020019081526020016000206000848152602001908152602001600020600083815260200190815260200160002060008961ffff1661ffff16815260200190815260200160002060006127a29190613463565b897f03528ed0c2a3ebc993b12ce3c16bb382f9c7d88ef7d8a1bf290eaf35955a12078a8a6040516127d492919061452d565b60405180910390a2612955565b6000600460008c81526020019081526020016000206000858152602001908152602001600020600084815260200190815260200160002060008a61ffff1661ffff16815260200190815260200160002080546001816001161561010002031660029004905014156128b557600560008b815260200190815260200160002060008481526020019081526020016000206000838152602001908152602001600020600081819054906101000a900461ffff168092919060010191906101000a81548161ffff021916908361ffff160217905550505b80600460008c81526020019081526020016000206000858152602001908152602001600020600084815260200190815260200160002060008a61ffff1661ffff16815260200190815260200160002090805190602001906129179291906132d5565b50897f52a608b3303a48862d07a73d82fa221318c0027fbbcfb1b2329bface3f19ff2b8a8a8460405161294c9392919061455d565b60405180910390a25b50505050505050505050565b8060c0015181602001818152505080600001515181602001511061298457612a72565b600061299882600001518360200151612b44565b82602001510190506129b7818360000151612c3690919063ffffffff16565b826040019061ffff16908161ffff16815250506002810190506129e7818360000151612c3690919063ffffffff16565b826060019061ffff16908161ffff1681525050600281019050612a17818360000151612c5c90919063ffffffff16565b826080019063ffffffff16908163ffffffff16815250506004810190506000612a4d828460000151612c3690919063ffffffff16565b61ffff169050600282019150818360a00181815250508082018360c001818152505050505b50565b60006014825114612a8557600080fd5b600c6101000a6020830151049050919050565b606060146040519080825280601f01601f191660200182016040528015612ace5781602001600182028038833980820191505090505b509050600c6101000a82026020820152919050565b600063c53a441360e01b7bffffffffffffffffffffffffffffffffffffffffffffffffffffffff1916827bffffffffffffffffffffffffffffffffffffffffffffffffffffffff19161480612b3d5750612b3c82612c84565b5b9050919050565b6000808290505b600115612b935783518110612b5c57fe5b6000612b718286612ce590919063ffffffff16565b60ff16905060018101820191506000811415612b8d5750612b93565b50612b4b565b82810391505092915050565b606083518284011115612bb157600080fd5b6060826040519080825280601f01601f191660200182016040528015612be65781602001600182028038833980820191505090505b5090506000806020830191508560208801019050612c05828287612d09565b8293505050509392505050565b6000612c1f848484612d52565b612c2a878785612d52565b14905095945050505050565b60008251600283011115612c4957600080fd5b61ffff8260028501015116905092915050565b60008251600483011115612c6f57600080fd5b63ffffffff8260048501015116905092915050565b600063c585f69760e01b7bffffffffffffffffffffffffffffffffffffffffffffffffffffffff1916827bffffffffffffffffffffffffffffffffffffffffffffffffffffffff19161480612cde5750612cdd82612d75565b5b9050919050565b6000828281518110612cf357fe5b602001015160f81c60f81b60f81c905092915050565b5b60208110612d2d5781518352602083019250602082019150602081039050612d0a565b60006001826020036101000a0390508019835116818551168181178652505050505050565b600083518284011115612d6457600080fd5b818360208601012090509392505050565b600063338bc8fa60e01b7bffffffffffffffffffffffffffffffffffffffffffffffffffffffff1916827bffffffffffffffffffffffffffffffffffffffffffffffffffffffff19161480612dcf5750612dce82612dd6565b5b9050919050565b60006359d1d43c60e01b7bffffffffffffffffffffffffffffffffffffffffffffffffffffffff1916827bffffffffffffffffffffffffffffffffffffffffffffffffffffffff19161480612e305750612e2f82612e37565b5b9050919050565b600063c869023360e01b7bffffffffffffffffffffffffffffffffffffffffffffffffffffffff1916827bffffffffffffffffffffffffffffffffffffffffffffffffffffffff19161480612e915750612e9082612e98565b5b9050919050565b600063691f343160e01b7bffffffffffffffffffffffffffffffffffffffffffffffffffffffff1916827bffffffffffffffffffffffffffffffffffffffffffffffffffffffff19161480612ef25750612ef182612ef9565b5b9050919050565b6000604051612f0790614371565b60405180910390207bffffffffffffffffffffffffffffffffffffffffffffffffffffffff1916827bffffffffffffffffffffffffffffffffffffffffffffffffffffffff19161480612f5f5750612f5e82612f66565b5b9050919050565b600063a8fa568260e01b7bffffffffffffffffffffffffffffffffffffffffffffffffffffffff1916827bffffffffffffffffffffffffffffffffffffffffffffffffffffffff19161480612fc05750612fbf82612fc7565b5b9050919050565b600063bc1c58d160e01b7bffffffffffffffffffffffffffffffffffffffffffffffffffffffff1916827bffffffffffffffffffffffffffffffffffffffffffffffffffffffff19161480613021575061302082613028565b5b9050919050565b6000633b3b57de60e01b7bffffffffffffffffffffffffffffffffffffffffffffffffffffffff1916827bffffffffffffffffffffffffffffffffffffffffffffffffffffffff191614806130c1575063f1cb7e0660e01b7bffffffffffffffffffffffffffffffffffffffffffffffffffffffff1916827bffffffffffffffffffffffffffffffffffffffffffffffffffffffff1916145b806130d157506130d0826130d8565b5b9050919050565b6000632203ab5660e01b7bffffffffffffffffffffffffffffffffffffffffffffffffffffffff1916827bffffffffffffffffffffffffffffffffffffffffffffffffffffffff19161480613132575061313182613139565b5b9050919050565b60006301ffc9a760e01b7bffffffffffffffffffffffffffffffffffffffffffffffffffffffff1916827bffffffffffffffffffffffffffffffffffffffffffffffffffffffff1916149050919050565b6040518060e001604052806060815260200160008152602001600061ffff168152602001600061ffff168152602001600063ffffffff16815260200160008152602001600081525090565b828054600181600116156101000203166002900490600052602060002090601f016020900481019282601f1061321657803560ff1916838001178555613244565b82800160010185558215613244579182015b82811115613243578235825591602001919060010190613228565b5b50905061325191906134ab565b5090565b828054600181600116156101000203166002900490600052602060002090601f016020900481019282601f1061329657803560ff19168380011785556132c4565b828001600101855582156132c4579182015b828111156132c35782358255916020019190600101906132a8565b5b5090506132d191906134ab565b5090565b828054600181600116156101000203166002900490600052602060002090601f016020900481019282601f1061331657805160ff1916838001178555613344565b82800160010185558215613344579182015b82811115613343578251825591602001919060010190613328565b5b50905061335191906134ab565b5090565b508054600082559060005260206000209081019061337391906134ab565b50565b828054828255906000526020600020908101928215613405579160200282015b8281111561340457823573ffffffffffffffffffffffffffffffffffffffff168260006101000a81548173ffffffffffffffffffffffffffffffffffffffff021916908373ffffffffffffffffffffffffffffffffffffffff16021790555091602001919060010190613396565b5b50905061341291906134d0565b5090565b828054828255906000526020600020908101928215613452579160200282015b82811115613451578235825591602001919060010190613436565b5b50905061345f9190613513565b5090565b50805460018160011615610100020316600290046000825580601f1061348957506134a8565b601f0160209004906000526020600020908101906134a791906134ab565b5b50565b6134cd91905b808211156134c95760008160009055506001016134b1565b5090565b90565b61351091905b8082111561350c57600081816101000a81549073ffffffffffffffffffffffffffffffffffffffff0219169055506001016134d6565b5090565b90565b61353591905b80821115613531576000816000905550600101613519565b5090565b90565b60008135905061354781614a29565b92915050565b60008151905061355c81614a29565b92915050565b60008083601f84011261357457600080fd5b8235905067ffffffffffffffff81111561358d57600080fd5b6020830191508360208202830111156135a557600080fd5b9250929050565b60008083601f8401126135be57600080fd5b8235905067ffffffffffffffff8111156135d757600080fd5b6020830191508360208202830111156135ef57600080fd5b9250929050565b60008083601f84011261360857600080fd5b8235905067ffffffffffffffff81111561362157600080fd5b60208301915083602082028301111561363957600080fd5b9250929050565b60008135905061364f81614a40565b92915050565b60008135905061366481614a57565b92915050565b60008135905061367981614a6e565b92915050565b60008083601f84011261369157600080fd5b8235905067ffffffffffffffff8111156136aa57600080fd5b6020830191508360018202830111156136c257600080fd5b9250929050565b600082601f8301126136da57600080fd5b81356136ed6136e8826146b8565b61468b565b9150808252602083016020830185838301111561370957600080fd5b61371483828461496f565b50505092915050565b60008083601f84011261372f57600080fd5b8235905067ffffffffffffffff81111561374857600080fd5b60208301915083600182028301111561376057600080fd5b9250929050565b60008135905061377681614a85565b92915050565b60008135905061378b81614a9c565b92915050565b6000813590506137a081614ab3565b92915050565b6000602082840312156137b857600080fd5b60006137c68482850161354d565b91505092915050565b600080602083850312156137e257600080fd5b600083013567ffffffffffffffff8111156137fc57600080fd5b613808858286016135f6565b92509250509250929050565b60006020828403121561382657600080fd5b600061383484828501613655565b91505092915050565b6000806040838503121561385057600080fd5b600061385e85828601613655565b925050602061386f85828601613538565b9150509250929050565b60008060006060848603121561388e57600080fd5b600061389c86828701613655565b93505060206138ad86828701613538565b92505060406138be86828701613538565b9150509250925092565b6000806000606084860312156138dd57600080fd5b60006138eb86828701613655565b93505060206138fc86828701613538565b925050604061390d86828701613640565b9150509250925092565b60008060006040848603121561392c57600080fd5b600061393a86828701613655565b935050602084013567ffffffffffffffff81111561395757600080fd5b61396386828701613562565b92509250509250925092565b60008060006040848603121561398457600080fd5b600061399286828701613655565b935050602084013567ffffffffffffffff8111156139af57600080fd5b6139bb868287016135ac565b92509250509250925092565b600080604083850312156139da57600080fd5b60006139e885828601613655565b92505060206139f985828601613655565b9150509250929050565b600080600060608486031215613a1857600080fd5b6000613a2686828701613655565b9350506020613a3786828701613655565b9250506040613a4886828701613655565b9150509250925092565b600080600060608486031215613a6757600080fd5b6000613a7586828701613655565b9350506020613a8686828701613655565b9250506040613a9786828701613767565b9150509250925092565b60008060408385031215613ab457600080fd5b6000613ac285828601613655565b9250506020613ad38582860161366a565b9150509250929050565b600080600060608486031215613af257600080fd5b6000613b0086828701613655565b9350506020613b118682870161366a565b9250506040613b2286828701613538565b9150509250925092565b600080600060408486031215613b4157600080fd5b6000613b4f86828701613655565b935050602084013567ffffffffffffffff811115613b6c57600080fd5b613b788682870161367f565b92509250509250925092565b600080600060408486031215613b9957600080fd5b6000613ba786828701613655565b935050602084013567ffffffffffffffff811115613bc457600080fd5b613bd08682870161371d565b92509250509250925092565b600080600080600060608688031215613bf457600080fd5b6000613c0288828901613655565b955050602086013567ffffffffffffffff811115613c1f57600080fd5b613c2b8882890161371d565b9450945050604086013567ffffffffffffffff811115613c4a57600080fd5b613c568882890161371d565b92509250509295509295909350565b60008060408385031215613c7857600080fd5b6000613c8685828601613655565b9250506020613c9785828601613767565b9150509250929050565b60008060408385031215613cb457600080fd5b6000613cc285828601613655565b9250506020613cd38582860161377c565b9150509250929050565b60008060008060608587031215613cf357600080fd5b6000613d0187828801613655565b9450506020613d128782880161377c565b935050604085013567ffffffffffffffff811115613d2f57600080fd5b613d3b8782880161367f565b925092505092959194509250565b600080600060608486031215613d5e57600080fd5b6000613d6c86828701613655565b9350506020613d7d8682870161377c565b925050604084013567ffffffffffffffff811115613d9a57600080fd5b613da6868287016136c9565b9150509250925092565b60008060408385031215613dc357600080fd5b6000613dd185828601613655565b9250506020613de285828601613791565b9150509250929050565b600060208284031215613dfe57600080fd5b6000613e0c8482850161366a565b91505092915050565b6000613e218383613e77565b60208301905092915050565b6000613e39838361409f565b60208301905092915050565b6000613e518383614188565b905092915050565b613e6281614939565b82525050565b613e71816148a0565b82525050565b613e808161488e565b82525050565b613e8f8161488e565b82525050565b6000613ea08261473e565b613eaa81856147e8565b9350613eb5836146e4565b8060005b83811015613ee6578151613ecd8882613e15565b9750613ed883614796565b925050600181019050613eb9565b5085935050505092915050565b6000613efe82614749565b613f0881856147d7565b9350613f13836146f4565b8060005b83811015613f4b57613f28826149e5565b613f328882613e15565b9750613f3d836147a3565b925050600181019050613f17565b5085935050505092915050565b6000613f6382614754565b613f6d81856147f9565b9350613f7883614709565b8060005b83811015613fa9578151613f908882613e2d565b9750613f9b836147b0565b925050600181019050613f7c565b5085935050505092915050565b6000613fc18261475f565b613fcb81856147f9565b9350613fd683614719565b8060005b8381101561400e57613feb826149f8565b613ff58882613e2d565b9750614000836147bd565b925050600181019050613fda565b5085935050505092915050565b60006140268261476a565b614030818561480a565b9350836020820285016140428561472e565b8060005b8581101561407e578484038952815161405f8582613e45565b945061406a836147ca565b925060208a01995050600181019050614046565b50829750879550505050505092915050565b614099816148b2565b82525050565b6140a8816148be565b82525050565b6140b7816148be565b82525050565b6140c6816148c8565b82525050565b60006140d8838561482c565b93506140e583858461496f565b6140ee83614a0b565b840190509392505050565b6000614105838561483d565b935061411283858461496f565b82840190509392505050565b600061412982614780565b614133818561482c565b935061414381856020860161497e565b61414c81614a0b565b840191505092915050565b600061416282614780565b61416c818561483d565b935061417c81856020860161497e565b80840191505092915050565b600061419382614775565b61419d818561481b565b93506141ad81856020860161497e565b6141b681614a0b565b840191505092915050565b60006141cd8385614848565b93506141da83858461496f565b6141e383614a0b565b840190509392505050565b60006141fa8385614859565b935061420783858461496f565b82840190509392505050565b600061421e8261478b565b6142288185614848565b935061423881856020860161497e565b61424181614a0b565b840191505092915050565b6000614259602483614859565b91507f696e74657266616365496d706c656d656e74657228627974657333322c62797460008301527f65733429000000000000000000000000000000000000000000000000000000006020830152602482019050919050565b600060408301600080840185830360008701526142cf8382613ef3565b925050600184015490506142e2816149cb565b6142ef602087018261409f565b50819250505092915050565b614304816148f4565b82525050565b61431381614922565b82525050565b6143228161492c565b82525050565b60006143358284866140f9565b91508190509392505050565b600061434d8284614157565b915081905092915050565b60006143658284866141ee565b91508190509392505050565b600061437c8261424c565b9150819050919050565b600060208201905061439b6000830184613e86565b92915050565b60006020820190506143b66000830184613e59565b92915050565b60006020820190506143d16000830184613e68565b92915050565b600060408201905081810360008301526143f18185613e95565b905061440060208301846140ae565b9392505050565b600060208201905081810360008301526144218184613f58565b905092915050565b600060208201905081810360008301526144438184613fb6565b905092915050565b60006020820190508181036000830152614465818461401b565b905092915050565b60006020820190506144826000830184614090565b92915050565b600060208201905061449d60008301846140ae565b92915050565b60006040820190506144b860008301856140ae565b6144c560208301846140ae565b9392505050565b60006020820190506144e160008301846140bd565b92915050565b600060208201905081810360008301526145028184866140cc565b90509392505050565b60006020820190508181036000830152614525818461411e565b905092915050565b60006040820190508181036000830152614547818561411e565b905061455660208301846142fb565b9392505050565b60006060820190508181036000830152614577818661411e565b905061458660208301856142fb565b8181036040830152614598818461411e565b9050949350505050565b600060208201905081810360008301526145bd8184866141c1565b90509392505050565b600060208201905081810360008301526145e08184614213565b905092915050565b6000602082019050818103600083015261460281846142b2565b905092915050565b600060208201905061461f60008301846142fb565b92915050565b600060208201905061463a600083018461430a565b92915050565b6000604082019050614655600083018561430a565b8181036020830152614667818461411e565b90509392505050565b60006020820190506146856000830184614319565b92915050565b6000604051905081810181811067ffffffffffffffff821117156146ae57600080fd5b8060405250919050565b600067ffffffffffffffff8211156146cf57600080fd5b601f19601f8301169050602081019050919050565b6000819050602082019050919050565b60008190508160005260206000209050919050565b6000819050602082019050919050565b60008190508160005260206000209050919050565b6000819050602082019050919050565b600081519050919050565b600081549050919050565b600081519050919050565b600081549050919050565b600081519050919050565b600081519050919050565b600081519050919050565b600081519050919050565b6000602082019050919050565b6000600182019050919050565b6000602082019050919050565b6000600182019050919050565b6000602082019050919050565b600082825260208201905092915050565b600082825260208201905092915050565b600082825260208201905092915050565b600082825260208201905092915050565b600082825260208201905092915050565b600082825260208201905092915050565b600081905092915050565b600082825260208201905092915050565b600081905092915050565b600073ffffffffffffffffffffffffffffffffffffffff82169050919050565b6000819050919050565b600061489982614902565b9050919050565b60006148ab82614902565b9050919050565b60008115159050919050565b6000819050919050565b60007fffffffff0000000000000000000000000000000000000000000000000000000082169050919050565b600061ffff82169050919050565b600073ffffffffffffffffffffffffffffffffffffffff82169050919050565b6000819050919050565b600060ff82169050919050565b60006149448261494b565b9050919050565b60006149568261495d565b9050919050565b600061496882614902565b9050919050565b82818337600083830152505050565b60005b8381101561499c578082015181840152602081019050614981565b838111156149ab576000848401525b50505050565b60006149c46149bf83614a1c565b614864565b9050919050565b60006149de6149d983614a1c565b614884565b9050919050565b60006149f182546149b1565b9050919050565b6000614a0482546149cb565b9050919050565b6000601f19601f8301169050919050565b60008160001c9050919050565b614a328161488e565b8114614a3d57600080fd5b50565b614a49816148b2565b8114614a5457600080fd5b50565b614a60816148be565b8114614a6b57600080fd5b50565b614a77816148c8565b8114614a8257600080fd5b50565b614a8e816148f4565b8114614a9957600080fd5b50565b614aa581614922565b8114614ab057600080fd5b50565b614abc8161492c565b8114614ac757600080fd5b5056fea365627a7a723158204809ef71610a9ad9379944de93a06b62fac7c9fab79c79eb397bddb0f63605356c6578706572696d656e74616cf564736f6c63430005110040",
  "linkReferences": {},
  "deployedLinkReferences": {}
}