{
  "contractName": "PublicResolver",
  "abi": [
    {
      "inputs": [
        {
          "internalType": "contract ENS",
          "name": "_ens",
          "type": "address"
        }
      ],
      "payable": false,
      "stateMutability": "nonpayable",
      "type": "constructor"
    },
    {
      "anonymous": false,
      "inputs": [
        {
          "indexed": true,
          "internalType": "bytes32",
          "name": "node",
          "type": "bytes32"
        },
        {
          "indexed": true,
          "internalType": "uint256",
          "name": "contentType",
          "type": "uint256"
        }
      ],
      "name": "ABIChanged",
      "type": "event"
    },
    {
      "anonymous": false,
      "inputs": [
        {
          "indexed": true,
          "internalType": "bytes32",
          "name": "node",
          "type": "bytes32"
        },
        {
          "indexed": false,
          "internalType": "address",
          "name": "a",
          "type": "address"
        }
      ],
      "name": "AddrChanged",
      "type": "event"
    },
    {
      "anonymous": false,
      "inputs": [
        {
          "indexed": true,
          "internalType": "bytes32",
          "name": "node",
          "type": "bytes32"
        },
        {
          "indexed": false,
          "internalType": "uint256",
          "name": "coinType",
          "type": "uint256"
        },
        {
          "indexed": false,
          "internalType": "bytes",
          "name": "newAddress",
          "type": "bytes"
        }
      ],
      "name": "AddressChanged",
      "type": "event"
    },
    {
      "anonymous": false,
      "inputs": [
        {
          "indexed": true,
          "internalType": "bytes32",
          "name": "node",
          "type": "bytes32"
        },
        {
          "indexed": true,
          "internalType": "address",
          "name": "owner",
          "type": "address"
        },
        {
          "indexed": true,
          "internalType": "address",
          "name": "target",
          "type": "address"
        },
        {
          "indexed": false,
          "internalType": "bool",
          "name": "isAuthorised",
          "type": "bool"
        }
      ],
      "name": "AuthorisationChanged",
      "type": "event"
    },
    {
      "anonymous": false,
      "inputs": [
        {
          "indexed": true,
          "internalType": "bytes32",
          "name": "node",
          "type": "bytes32"
        },
        {
          "indexed": false,
          "internalType": "bytes",
          "name": "hash",
          "type": "bytes"
        }
      ],
      "name": "ContenthashChanged",
      "type": "event"
    },
    {
      "anonymous": false,
      "inputs": [
        {
          "indexed": true,
          "internalType": "bytes32",
          "name": "node",
          "type": "bytes32"
        },
        {
          "indexed": false,
          "internalType": "bytes",
          "name": "name",
          "type": "bytes"
        },
        {
          "indexed": false,
          "internalType": "uint16",
          "name": "resource",
          "type": "uint16"
        },
        {
          "indexed": false,
          "internalType": "bytes",
          "name": "record",
          "type": "bytes"
        }
      ],
      "name": "DNSRecordChanged",
      "type": "event"
    },
    {
      "anonymous": false,
      "inputs": [
        {
          "indexed": true,
          "internalType": "bytes32",
          "name": "node",
          "type": "bytes32"
        },
        {
          "indexed": false,
          "internalType": "bytes",
          "name": "name",
          "type": "bytes"
        },
        {
          "indexed": false,
          "internalType": "uint16",
          "name": "resource",
          "type": "uint16"
        }
      ],
      "name": "DNSRecordDeleted",
      "type": "event"
    },
    {
      "anonymous": false,
      "inputs": [
        {
          "indexed": true,
          "internalType": "bytes32",
          "name": "node",
          "type": "bytes32"
        }
      ],
      "name": "DNSZoneCleared",
      "type": "event"
    },
    {
      "anonymous": false,
      "inputs": [
        {
          "indexed": true,
          "internalType": "bytes32",
          "name": "node",
          "type": "bytes32"
        },
        {
          "indexed": true,
          "internalType": "bytes4",
          "name": "interfaceID",
          "type": "bytes4"
        },
        {
          "indexed": false,
          "internalType": "address",
          "name": "implementer",
          "type": "address"
        }
      ],
      "name": "InterfaceChanged",
      "type": "event"
    },
    {
      "anonymous": false,
      "inputs": [
        {
          "indexed": true,
          "internalType": "bytes32",
          "name": "node",
          "type": "bytes32"
        },
        {
          "indexed": false,
          "internalType": "string",
          "name": "name",
          "type": "string"
        }
      ],
      "name": "NameChanged",
      "type": "event"
    },
    {
      "anonymous": false,
      "inputs": [
        {
          "indexed": true,
          "internalType": "bytes32",
          "name": "node",
          "type": "bytes32"
        },
        {
          "indexed": false,
          "internalType": "bytes32",
          "name": "x",
          "type": "bytes32"
        },
        {
          "indexed": false,
          "internalType": "bytes32",
          "name": "y",
          "type": "bytes32"
        }
      ],
      "name": "PubkeyChanged",
      "type": "event"
    },
    {
      "anonymous": false,
      "inputs": [
        {
          "indexed": true,
          "internalType": "bytes32",
          "name": "node",
          "type": "bytes32"
        },
        {
          "indexed": true,
          "internalType": "string",
          "name": "indexedKey",
          "type": "string"
        },
        {
          "indexed": false,
          "internalType": "string",
          "name": "key",
          "type": "string"
        }
      ],
      "name": "TextChanged",
      "type": "event"
    },
    {
      "constant": true,
      "inputs": [
        {
          "internalType": "bytes32",
          "name": "node",
          "type": "bytes32"
        },
        {
          "internalType": "uint256",
          "name": "contentTypes",
          "type": "uint256"
        }
      ],
      "name": "ABI",
      "outputs": [
        {
          "internalType": "uint256",
          "name": "",
          "type": "uint256"
        },
        {
          "internalType": "bytes",
          "name": "",
          "type": "bytes"
        }
      ],
      "payable": false,
      "stateMutability": "view",
      "type": "function"
    },
    {
      "constant": true,
      "inputs": [
        {
          "internalType": "bytes32",
          "name": "node",
          "type": "bytes32"
        }
      ],
      "name": "addr",
      "outputs": [
        {
          "internalType": "address payable",
          "name": "",
          "type": "address"
        }
      ],
      "payable": false,
      "stateMutability": "view",
      "type": "function"
    },
    {
      "constant": true,
      "inputs": [
        {
          "internalType": "bytes32",
          "name": "node",
          "type": "bytes32"
        },
        {
          "internalType": "uint256",
          "name": "coinType",
          "type": "uint256"
        }
      ],
      "name": "addr",
      "outputs": [
        {
          "internalType": "bytes",
          "name": "",
          "type": "bytes"
        }
      ],
      "payable": false,
      "stateMutability": "view",
      "type": "function"
    },
    {
      "constant": true,
      "inputs": [
        {
          "internalType": "bytes32",
          "name": "",
          "type": "bytes32"
        },
        {
          "internalType": "address",
          "name": "",
          "type": "address"
        },
        {
          "internalType": "address",
          "name": "",
          "type": "address"
        }
      ],
      "name": "authorisations",
      "outputs": [
        {
          "internalType": "bool",
          "name": "",
          "type": "bool"
        }
      ],
      "payable": false,
      "stateMutability": "view",
      "type": "function"
    },
    {
      "constant": false,
      "inputs": [
        {
          "internalType": "bytes32",
          "name": "node",
          "type": "bytes32"
        }
      ],
      "name": "clearDNSZone",
      "outputs": [],
      "payable": false,
      "stateMutability": "nonpayable",
      "type": "function"
    },
    {
      "constant": true,
      "inputs": [
        {
          "internalType": "bytes32",
          "name": "node",
          "type": "bytes32"
        }
      ],
      "name": "contenthash",
      "outputs": [
        {
          "internalType": "bytes",
          "name": "",
          "type": "bytes"
        }
      ],
      "payable": false,
      "stateMutability": "view",
      "type": "function"
    },
    {
      "constant": true,
      "inputs": [
        {
          "internalType": "bytes32",
          "name": "node",
          "type": "bytes32"
        },
        {
          "internalType": "bytes32",
          "name": "name",
          "type": "bytes32"
        },
        {
          "internalType": "uint16",
          "name": "resource",
          "type": "uint16"
        }
      ],
      "name": "dnsRecord",
      "outputs": [
        {
          "internalType": "bytes",
          "name": "",
          "type": "bytes"
        }
      ],
      "payable": false,
      "stateMutability": "view",
      "type": "function"
    },
    {
      "constant": true,
      "inputs": [
        {
          "internalType": "bytes32",
          "name": "node",
          "type": "bytes32"
        },
        {
          "internalType": "bytes32",
          "name": "name",
          "type": "bytes32"
        }
      ],
      "name": "hasDNSRecords",
      "outputs": [
        {
          "internalType": "bool",
          "name": "",
          "type": "bool"
        }
      ],
      "payable": false,
      "stateMutability": "view",
      "type": "function"
    },
    {
      "constant": true,
      "inputs": [
        {
          "internalType": "bytes32",
          "name": "node",
          "type": "bytes32"
        },
        {
          "internalType": "bytes4",
          "name": "interfaceID",
          "type": "bytes4"
        }
      ],
      "name": "interfaceImplementer",
      "outputs": [
        {
          "internalType": "address",
          "name": "",
          "type": "address"
        }
      ],
      "payable": false,
      "stateMutability": "view",
      "type": "function"
    },
    {
      "constant": true,
      "inputs": [
        {
          "internalType": "bytes32",
          "name": "node",
          "type": "bytes32"
        }
      ],
      "name": "name",
      "outputs": [
        {
          "internalType": "string",
          "name": "",
          "type": "string"
        }
      ],
      "payable": false,
      "stateMutability": "view",
      "type": "function"
    },
    {
      "constant": true,
      "inputs": [
        {
          "internalType": "bytes32",
          "name": "node",
          "type": "bytes32"
        }
      ],
      "name": "pubkey",
      "outputs": [
        {
          "internalType": "bytes32",
          "name": "x",
          "type": "bytes32"
        },
        {
          "internalType": "bytes32",
          "name": "y",
          "type": "bytes32"
        }
      ],
      "payable": false,
      "stateMutability": "view",
      "type": "function"
    },
    {
      "constant": false,
      "inputs": [
        {
          "internalType": "bytes32",
          "name": "node",
          "type": "bytes32"
        },
        {
          "internalType": "uint256",
          "name": "contentType",
          "type": "uint256"
        },
        {
          "internalType": "bytes",
          "name": "data",
          "type": "bytes"
        }
      ],
      "name": "setABI",
      "outputs": [],
      "payable": false,
      "stateMutability": "nonpayable",
      "type": "function"
    },
    {
      "constant": false,
      "inputs": [
        {
          "internalType": "bytes32",
          "name": "node",
          "type": "bytes32"
        },
        {
          "internalType": "uint256",
          "name": "coinType",
          "type": "uint256"
        },
        {
          "internalType": "bytes",
          "name": "a",
          "type": "bytes"
        }
      ],
      "name": "setAddr",
      "outputs": [],
      "payable": false,
      "stateMutability": "nonpayable",
      "type": "function"
    },
    {
      "constant": false,
      "inputs": [
        {
          "internalType": "bytes32",
          "name": "node",
          "type": "bytes32"
        },
        {
          "internalType": "address",
          "name": "a",
          "type": "address"
        }
      ],
      "name": "setAddr",
      "outputs": [],
      "payable": false,
      "stateMutability": "nonpayable",
      "type": "function"
    },
    {
      "constant": false,
      "inputs": [
        {
          "internalType": "bytes32",
          "name": "node",
          "type": "bytes32"
        },
        {
          "internalType": "bytes",
          "name": "hash",
          "type": "bytes"
        }
      ],
      "name": "setContenthash",
      "outputs": [],
      "payable": false,
      "stateMutability": "nonpayable",
      "type": "function"
    },
    {
      "constant": false,
      "inputs": [
        {
          "internalType": "bytes32",
          "name": "node",
          "type": "bytes32"
        },
        {
          "internalType": "bytes",
          "name": "data",
          "type": "bytes"
        }
      ],
      "name": "setDNSRecords",
      "outputs": [],
      "payable": false,
      "stateMutability": "nonpayable",
      "type": "function"
    },
    {
      "constant": false,
      "inputs": [
        {
          "internalType": "bytes32",
          "name": "node",
          "type": "bytes32"
        },
        {
          "internalType": "bytes4",
          "name": "interfaceID",
          "type": "bytes4"
        },
        {
          "internalType": "address",
          "name": "implementer",
          "type": "address"
        }
      ],
      "name": "setInterface",
      "outputs": [],
      "payable": false,
      "stateMutability": "nonpayable",
      "type": "function"
    },
    {
      "constant": false,
      "inputs": [
        {
          "internalType": "bytes32",
          "name": "node",
          "type": "bytes32"
        },
        {
          "internalType": "string",
          "name": "name",
          "type": "string"
        }
      ],
      "name": "setName",
      "outputs": [],
      "payable": false,
      "stateMutability": "nonpayable",
      "type": "function"
    },
    {
      "constant": false,
      "inputs": [
        {
          "internalType": "bytes32",
          "name": "node",
          "type": "bytes32"
        },
        {
          "internalType": "bytes32",
          "name": "x",
          "type": "bytes32"
        },
        {
          "internalType": "bytes32",
          "name": "y",
          "type": "bytes32"
        }
      ],
      "name": "setPubkey",
      "outputs": [],
      "payable": false,
      "stateMutability": "nonpayable",
      "type": "function"
    },
    {
      "constant": false,
      "inputs": [
        {
          "internalType": "bytes32",
          "name": "node",
          "type": "bytes32"
        },
        {
          "internalType": "string",
          "name": "key",
          "type": "string"
        },
        {
          "internalType": "string",
          "name": "value",
          "type": "string"
        }
      ],
      "name": "setText",
      "outputs": [],
      "payable": false,
      "stateMutability": "nonpayable",
      "type": "function"
    },
    {
      "constant": true,
      "inputs": [
        {
          "internalType": "bytes4",
          "name": "interfaceID",
          "type": "bytes4"
        }
      ],
      "name": "supportsInterface",
      "outputs": [
        {
          "internalType": "bool",
          "name": "",
          "type": "bool"
        }
      ],
      "payable": false,
      "stateMutability": "pure",
      "type": "function"
    },
    {
      "constant": true,
      "inputs": [
        {
          "internalType": "bytes32",
          "name": "node",
          "type": "bytes32"
        },
        {
          "internalType": "string",
          "name": "key",
          "type": "string"
        }
      ],
      "name": "text",
      "outputs": [
        {
          "internalType": "string",
          "name": "",
          "type": "string"
        }
      ],
      "payable": false,
      "stateMutability": "view",
      "type": "function"
    },
    {
      "constant": false,
      "inputs": [
        {
          "internalType": "bytes32",
          "name": "node",
          "type": "bytes32"
        },
        {
          "internalType": "address",
          "name": "target",
          "type": "address"
        },
        {
          "internalType": "bool",
          "name": "isAuthorised",
          "type": "bool"
        }
      ],
      "name": "setAuthorisation",
      "outputs": [],
      "payable": false,
      "stateMutability": "nonpayable",
      "type": "function"
    },
    {
      "constant": false,
      "inputs": [
        {
          "internalType": "bytes[]",
          "name": "data",
          "type": "bytes[]"
        }
      ],
      "name": "multicall",
      "outputs": [
        {
          "internalType": "bytes[]",
          "name": "results",
          "type": "bytes[]"
        }
      ],
      "payable": false,
      "stateMutability": "nonpayable",
      "type": "function"
    }
  ],
  "bytecode": "0x60806040523480156200001157600080fd5b506040516200387d3803806200387d833981810160405262000037919081019062000096565b80600a60006101000a81548173ffffffffffffffffffffffffffffffffffffffff021916908373ffffffffffffffffffffffffffffffffffffffff1602179055505062000124565b60008151905062000090816200010a565b92915050565b600060208284031215620000a957600080fd5b6000620000b9848285016200007f565b91505092915050565b6000620000cf82620000ea565b9050919050565b6000620000e382620000c2565b9050919050565b600073ffffffffffffffffffffffffffffffffffffffff82169050919050565b6200011581620000d6565b81146200012157600080fd5b50565b61374980620001346000396000f3fe608060405234801561001057600080fd5b50600436106101585760003560e01c8063691f3431116100c3578063bc1c58d11161007c578063bc1c58d11461040a578063c86902331461043a578063d5fa2b001461046b578063e59d895d14610487578063f1cb7e06146104a3578063f86bc879146104d357610158565b8063691f34311461032657806377372213146103565780638b95dd7114610372578063a8fa56821461038e578063ac9650d8146103be578063ad5780af146103ee57610158565b8063304e6ade11610115578063304e6ade146102425780633b3b57de1461025e5780633e9ce7941461028e5780634cbf6ba4146102aa57806359d1d43c146102da578063623195b01461030a57610158565b806301ffc9a71461015d5780630af179d71461018d57806310f13a8c146101a9578063124a319c146101c55780632203ab56146101f557806329cd62ea14610226575b600080fd5b61017760048036036101729190810190612ecd565b610503565b60405161018491906132ae565b60405180910390f35b6101a760048036036101a29190810190612c85565b610564565b005b6101c360048036036101be9190810190612d35565b610792565b005b6101df60048036036101da9190810190612bfa565b610840565b6040516101ec919061323b565b60405180910390f35b61020f600480360361020a9190810190612dbe565b610c2b565b60405161021d929190613429565b60405180910390f35b610240600480360361023b9190810190612b5c565b610d7a565b005b61025c60048036036102579190810190612c85565b610e0c565b005b61027860048036036102739190810190612a1d565b610e82565b6040516102859190613271565b60405180910390f35b6102a860048036036102a39190810190612ad1565b610eb9565b005b6102c460048036036102bf9190810190612b20565b610fc9565b6040516102d191906132ae565b60405180910390f35b6102f460048036036102ef9190810190612cdd565b611031565b6040516103019190613407565b60405180910390f35b610324600480360361031f9190810190612dfa565b611106565b005b610340600480360361033b9190810190612a1d565b611193565b60405161034d9190613407565b60405180910390f35b610370600480360361036b9190810190612cdd565b611248565b005b61038c60048036036103879190810190612e66565b6112be565b005b6103a860048036036103a39190810190612bab565b611394565b6040516103b5919061334c565b60405180910390f35b6103d860048036036103d391908101906129d8565b611499565b6040516103e5919061328c565b60405180910390f35b61040860048036036104039190810190612a1d565b6115ef565b005b610424600480360361041f9190810190612a1d565b611656565b604051610431919061334c565b60405180910390f35b610454600480360361044f9190810190612a1d565b61170b565b6040516104629291906132e4565b60405180910390f35b61048560048036036104809190810190612a46565b611745565b005b6104a1600480360361049c9190810190612c36565b611771565b005b6104bd60048036036104b89190810190612dbe565b611883565b6040516104ca919061334c565b60405180910390f35b6104ed60048036036104e89190810190612a82565b61194a565b6040516104fa91906132ae565b60405180910390f35b60006359d1d43c60e01b7bffffffffffffffffffffffffffffffffffffffffffffffffffffffff1916827bffffffffffffffffffffffffffffffffffffffffffffffffffffffff1916148061055d575061055c82611986565b5b9050919050565b8261056e816119e7565b61057757600080fd5b60008090506000809050606080600061058e6125b2565b6105e660008a8a8080601f016020809104026020016040519081016040528093929190818152602001838380828437600081840152601f19601f82011690508083019250505050505050611b7090919063ffffffff16565b90505b6105f281611b9a565b61071f5760008661ffff16141561064e578060400151955061061381611bb0565b93508360405160200161062691906131f6565b60405160208183030381529060405280519060200120915061064781611be7565b9250610711565b606061065982611bb0565b9050816040015161ffff168761ffff1614158061068657506106848186611c1790919063ffffffff16565b155b1561070f576106e88b86898d8d8080601f016020809104026020016040519081016040528093929190818152602001838380828437600081840152601f19601f820116905080830192505050505050508a8b88602001510360008b5114611c3e565b81604001519650816020015195508094508480519060200120925061070c82611be7565b93505b505b61071a81611f6e565b6105e9565b50600083511115610787576107868984878b8b8080601f016020809104026020016040519081016040528093929190818152602001838380828437600081840152601f19601f8201169050808301925050505050505088898e8e9050036000895114611c3e565b5b505050505050505050565b8461079c816119e7565b6107a557600080fd5b82826009600089815260200190815260200160002087876040516107ca92919061320d565b908152602001604051809103902091906107e59291906125fd565b5084846040516107f692919061320d565b6040518091039020867fd8c9334b1a9c2f9da342a0a2b32629c1a229b6445dad78947f674b44444a755087876040516108309291906133e3565b60405180910390a3505050505050565b600080600660008581526020019081526020016000206000847bffffffffffffffffffffffffffffffffffffffffffffffffffffffff19167bffffffffffffffffffffffffffffffffffffffffffffffffffffffff1916815260200190815260200160002060009054906101000a900473ffffffffffffffffffffffffffffffffffffffff169050600073ffffffffffffffffffffffffffffffffffffffff168173ffffffffffffffffffffffffffffffffffffffff16146109055780915050610c25565b600061091085610e82565b9050600073ffffffffffffffffffffffffffffffffffffffff168173ffffffffffffffffffffffffffffffffffffffff16141561095257600092505050610c25565b600060608273ffffffffffffffffffffffffffffffffffffffff166301ffc9a760e01b604051602401610985919061330d565b6040516020818303038152906040527f01ffc9a7000000000000000000000000000000000000000000000000000000007bffffffffffffffffffffffffffffffffffffffffffffffffffffffff19166020820180517bffffffffffffffffffffffffffffffffffffffffffffffffffffffff8381831617835250505050604051610a0f91906131f6565b600060405180830381855afa9150503d8060008114610a4a576040519150601f19603f3d011682016040523d82523d6000602084013e610a4f565b606091505b5091509150811580610a62575060208151105b80610aa95750600060f81b81601f81518110610a7a57fe5b602001015160f81c60f81b7effffffffffffffffffffffffffffffffffffffffffffffffffffffffffffff1916145b15610abb576000945050505050610c25565b8273ffffffffffffffffffffffffffffffffffffffff1686604051602401610ae3919061330d565b6040516020818303038152906040527f01ffc9a7000000000000000000000000000000000000000000000000000000007bffffffffffffffffffffffffffffffffffffffffffffffffffffffff19166020820180517bffffffffffffffffffffffffffffffffffffffffffffffffffffffff8381831617835250505050604051610b6d91906131f6565b600060405180830381855afa9150503d8060008114610ba8576040519150601f19603f3d011682016040523d82523d6000602084013e610bad565b606091505b508092508193505050811580610bc4575060208151105b80610c0b5750600060f81b81601f81518110610bdc57fe5b602001015160f81c60f81b7effffffffffffffffffffffffffffffffffffffffffffffffffffffffffffff1916145b15610c1d576000945050505050610c25565b829450505050505b92915050565b60006060600080600086815260200190815260200160002090506000600190505b848111610d5757600085821614158015610c8c57506000826000838152602001908152602001600020805460018160011615610100020316600290049050115b15610d4b5780826000838152602001908152602001600020808054600181600116156101000203166002900480601f016020809104026020016040519081016040528092919081815260200182805460018160011615610100020316600290048015610d395780601f10610d0e57610100808354040283529160200191610d39565b820191906000526020600020905b815481529060010190602001808311610d1c57829003601f168201915b50505050509050935093505050610d73565b600181901b9050610c4c565b5060006040518060200160405280600081525081915092509250505b9250929050565b82610d84816119e7565b610d8d57600080fd5b604051806040016040528084815260200183815250600860008681526020019081526020016000206000820151816000015560208201518160010155905050837f1d6f5e03d3f63eb58751986629a5439baee5079ff04f345becb66e23eb154e468484604051610dfe9291906132e4565b60405180910390a250505050565b82610e16816119e7565b610e1f57600080fd5b8282600260008781526020019081526020016000209190610e4192919061267d565b50837fe379c1624ed7e714cc0937528a32359d69d5281337765313dba4e081b72d75788484604051610e74929190613328565b60405180910390a250505050565b60006060610e9183603c611883565b9050600081511415610ea7576000915050610eb4565b610eb081612082565b9150505b919050565b80600b600085815260200190815260200160002060003373ffffffffffffffffffffffffffffffffffffffff1673ffffffffffffffffffffffffffffffffffffffff16815260200190815260200160002060008473ffffffffffffffffffffffffffffffffffffffff1673ffffffffffffffffffffffffffffffffffffffff16815260200190815260200160002060006101000a81548160ff0219169083151502179055508173ffffffffffffffffffffffffffffffffffffffff163373ffffffffffffffffffffffffffffffffffffffff16847fe1c5610a6e0cbe10764ecd182adcef1ec338dc4e199c99c32ce98f38e12791df84604051610fbc91906132ae565b60405180910390a4505050565b60008060056000858152602001908152602001600020600060036000878152602001908152602001600020548152602001908152602001600020600084815260200190815260200160002060009054906101000a900461ffff1661ffff161415905092915050565b606060096000858152602001908152602001600020838360405161105692919061320d565b90815260200160405180910390208054600181600116156101000203166002900480601f0160208091040260200160405190810160405280929190818152602001828054600181600116156101000203166002900480156110f85780601f106110cd576101008083540402835291602001916110f8565b820191906000526020600020905b8154815290600101906020018083116110db57829003601f168201915b505050505090509392505050565b83611110816119e7565b61111957600080fd5b60008460018603161461112b57600080fd5b82826000808881526020019081526020016000206000878152602001908152602001600020919061115d92919061267d565b5083857faa121bbeef5f32f5961a2a28966e769023910fc9479059ee3495d4c1a696efe360405160405180910390a35050505050565b6060600760008381526020019081526020016000208054600181600116156101000203166002900480601f01602080910402602001604051908101604052809291908181526020018280546001816001161561010002031660029004801561123c5780601f106112115761010080835404028352916020019161123c565b820191906000526020600020905b81548152906001019060200180831161121f57829003601f168201915b50505050509050919050565b82611252816119e7565b61125b57600080fd5b828260076000878152602001908152602001600020919061127d9291906125fd565b50837fb7d29e911041e8d9b843369e890bcb72c9388692ba48b65ac54e7214c4c348f784846040516112b09291906133e3565b60405180910390a250505050565b826112c8816119e7565b6112d157600080fd5b837f65412581168e88a1e60c6459d7f44ae83ad0832e670826c05a4e2476b57af7528484604051611303929190613429565b60405180910390a2603c83141561135557837f52d7d861f09ab3d26239d492e8968629f95e9e318cf0b73bfddc441522a15fd261133f84612082565b60405161134c9190613256565b60405180910390a25b81600160008681526020019081526020016000206000858152602001908152602001600020908051906020019061138d9291906126fd565b5050505050565b606060046000858152602001908152602001600020600060036000878152602001908152602001600020548152602001908152602001600020600084815260200190815260200160002060008361ffff1661ffff1681526020019081526020016000208054600181600116156101000203166002900480601f01602080910402602001604051908101604052809291908181526020018280546001816001161561010002031660029004801561148b5780601f106114605761010080835404028352916020019161148b565b820191906000526020600020905b81548152906001019060200180831161146e57829003601f168201915b505050505090509392505050565b6060828290506040519080825280602002602001820160405280156114d257816020015b60608152602001906001900390816114bd5790505b50905060008090505b838390508110156115e557600060603073ffffffffffffffffffffffffffffffffffffffff1686868581811061150d57fe5b905060200281018035600160200383360303811261152a57600080fd5b8083019250508135905060208201915067ffffffffffffffff81111561154f57600080fd5b60018102360382131561156157600080fd5b60405161156f9291906131dd565b600060405180830381855af49150503d80600081146115aa576040519150601f19603f3d011682016040523d82523d6000602084013e6115af565b606091505b5091509150816115be57600080fd5b808484815181106115cb57fe5b6020026020010181905250505080806001019150506114db565b5080905092915050565b806115f9816119e7565b61160257600080fd5b6003600083815260200190815260200160002060008154809291906001019190505550817fb757169b8492ca2f1c6619d9d76ce22803035c3b1d5f6930dffe7b127c1a198360405160405180910390a25050565b6060600260008381526020019081526020016000208054600181600116156101000203166002900480601f0160208091040260200160405190810160405280929190818152602001828054600181600116156101000203166002900480156116ff5780601f106116d4576101008083540402835291602001916116ff565b820191906000526020600020905b8154815290600101906020018083116116e257829003601f168201915b50505050509050919050565b6000806008600084815260200190815260200160002060000154600860008581526020019081526020016000206001015491509150915091565b8161174f816119e7565b61175857600080fd5b61176c83603c611767856120a5565b6112be565b505050565b8261177b816119e7565b61178457600080fd5b81600660008681526020019081526020016000206000857bffffffffffffffffffffffffffffffffffffffffffffffffffffffff19167bffffffffffffffffffffffffffffffffffffffffffffffffffffffff1916815260200190815260200160002060006101000a81548173ffffffffffffffffffffffffffffffffffffffff021916908373ffffffffffffffffffffffffffffffffffffffff160217905550827bffffffffffffffffffffffffffffffffffffffffffffffffffffffff1916847f7c69f06bea0bdef565b709e93a147836b0063ba2dd89f02d0b7e8d931e6a6daa84604051611875919061323b565b60405180910390a350505050565b60606001600084815260200190815260200160002060008381526020019081526020016000208054600181600116156101000203166002900480601f01602080910402602001604051908101604052809291908181526020018280546001816001161561010002031660029004801561193d5780601f106119125761010080835404028352916020019161193d565b820191906000526020600020905b81548152906001019060200180831161192057829003601f168201915b5050505050905092915050565b600b602052826000526040600020602052816000526040600020602052806000526040600020600092509250509054906101000a900460ff1681565b600063c869023360e01b7bffffffffffffffffffffffffffffffffffffffffffffffffffffffff1916827bffffffffffffffffffffffffffffffffffffffffffffffffffffffff191614806119e057506119df826120f0565b5b9050919050565b600080600a60009054906101000a900473ffffffffffffffffffffffffffffffffffffffff1673ffffffffffffffffffffffffffffffffffffffff166302571be3846040518263ffffffff1660e01b8152600401611a4591906132c9565b60206040518083038186803b158015611a5d57600080fd5b505afa158015611a71573d6000803e3d6000fd5b505050506040513d601f19601f82011682018060405250611a9591908101906129af565b90503373ffffffffffffffffffffffffffffffffffffffff168173ffffffffffffffffffffffffffffffffffffffff161480611b685750600b600084815260200190815260200160002060008273ffffffffffffffffffffffffffffffffffffffff1673ffffffffffffffffffffffffffffffffffffffff16815260200190815260200160002060003373ffffffffffffffffffffffffffffffffffffffff1673ffffffffffffffffffffffffffffffffffffffff16815260200190815260200160002060009054906101000a900460ff165b915050919050565b611b786125b2565b828160000181905250818160c0018181525050611b9481611f6e565b92915050565b6000816000015151826020015110159050919050565b6060611be08260200151611bcc84600001518560200151612151565b84600001516121ac9092919063ffffffff16565b9050919050565b6060611c108260a001518360a001518460c001510384600001516121ac9092919063ffffffff16565b9050919050565b600081518351148015611c365750611c35836000846000875161221f565b5b905092915050565b6000600360008981526020019081526020016000205490506000878051906020012090506060611c798686896121ac9092919063ffffffff16565b90508315611dee576000600460008c81526020019081526020016000206000858152602001908152602001600020600084815260200190815260200160002060008a61ffff1661ffff16815260200190815260200160002080546001816001161561010002031660029004905014611d5557600560008b815260200190815260200160002060008481526020019081526020016000206000838152602001908152602001600020600081819054906101000a900461ffff16809291906001900391906101000a81548161ffff021916908361ffff160217905550505b600460008b81526020019081526020016000206000848152602001908152602001600020600083815260200190815260200160002060008961ffff1661ffff1681526020019081526020016000206000611daf919061277d565b897f03528ed0c2a3ebc993b12ce3c16bb382f9c7d88ef7d8a1bf290eaf35955a12078a8a604051611de192919061336e565b60405180910390a2611f62565b6000600460008c81526020019081526020016000206000858152602001908152602001600020600084815260200190815260200160002060008a61ffff1661ffff1681526020019081526020016000208054600181600116156101000203166002900490501415611ec257600560008b815260200190815260200160002060008481526020019081526020016000206000838152602001908152602001600020600081819054906101000a900461ffff168092919060010191906101000a81548161ffff021916908361ffff160217905550505b80600460008c81526020019081526020016000206000858152602001908152602001600020600084815260200190815260200160002060008a61ffff1661ffff1681526020019081526020016000209080519060200190611f249291906126fd565b50897f52a608b3303a48862d07a73d82fa221318c0027fbbcfb1b2329bface3f19ff2b8a8a84604051611f599392919061339e565b60405180910390a25b50505050505050505050565b8060c00151816020018181525050806000015151816020015110611f915761207f565b6000611fa582600001518360200151612151565b8260200151019050611fc481836000015161224390919063ffffffff16565b826040019061ffff16908161ffff1681525050600281019050611ff481836000015161224390919063ffffffff16565b826060019061ffff16908161ffff168152505060028101905061202481836000015161226990919063ffffffff16565b826080019063ffffffff16908163ffffffff1681525050600481019050600061205a82846000015161224390919063ffffffff16565b61ffff169050600282019150818360a00181815250508082018360c001818152505050505b50565b6000601482511461209257600080fd5b600c6101000a6020830151049050919050565b606060146040519080825280601f01601f1916602001820160405280156120db5781602001600182028038833980820191505090505b509050600c6101000a82026020820152919050565b600063691f343160e01b7bffffffffffffffffffffffffffffffffffffffffffffffffffffffff1916827bffffffffffffffffffffffffffffffffffffffffffffffffffffffff1916148061214a575061214982612291565b5b9050919050565b6000808290505b6001156121a0578351811061216957fe5b600061217e82866122fe90919063ffffffff16565b60ff1690506001810182019150600081141561219a57506121a0565b50612158565b82810391505092915050565b6060835182840111156121be57600080fd5b6060826040519080825280601f01601f1916602001820160405280156121f35781602001600182028038833980820191505090505b5090506000806020830191508560208801019050612212828287612322565b8293505050509392505050565b600061222c84848461236b565b61223787878561236b565b14905095945050505050565b6000825160028301111561225657600080fd5b61ffff8260028501015116905092915050565b6000825160048301111561227c57600080fd5b63ffffffff8260048501015116905092915050565b600060405161229f90613226565b60405180910390207bffffffffffffffffffffffffffffffffffffffffffffffffffffffff1916827bffffffffffffffffffffffffffffffffffffffffffffffffffffffff191614806122f757506122f68261238e565b5b9050919050565b600082828151811061230c57fe5b602001015160f81c60f81b60f81c905092915050565b5b602081106123465781518352602083019250602082019150602081039050612323565b60006001826020036101000a0390508019835116818551168181178652505050505050565b60008351828401111561237d57600080fd5b818360208601012090509392505050565b600063a8fa568260e01b7bffffffffffffffffffffffffffffffffffffffffffffffffffffffff1916827bffffffffffffffffffffffffffffffffffffffffffffffffffffffff191614806123e857506123e7826123ef565b5b9050919050565b600063bc1c58d160e01b7bffffffffffffffffffffffffffffffffffffffffffffffffffffffff1916827bffffffffffffffffffffffffffffffffffffffffffffffffffffffff19161480612449575061244882612450565b5b9050919050565b6000633b3b57de60e01b7bffffffffffffffffffffffffffffffffffffffffffffffffffffffff1916827bffffffffffffffffffffffffffffffffffffffffffffffffffffffff191614806124e9575063f1cb7e0660e01b7bffffffffffffffffffffffffffffffffffffffffffffffffffffffff1916827bffffffffffffffffffffffffffffffffffffffffffffffffffffffff1916145b806124f957506124f882612500565b5b9050919050565b6000632203ab5660e01b7bffffffffffffffffffffffffffffffffffffffffffffffffffffffff1916827bffffffffffffffffffffffffffffffffffffffffffffffffffffffff1916148061255a575061255982612561565b5b9050919050565b60006301ffc9a760e01b7bffffffffffffffffffffffffffffffffffffffffffffffffffffffff1916827bffffffffffffffffffffffffffffffffffffffffffffffffffffffff1916149050919050565b6040518060e001604052806060815260200160008152602001600061ffff168152602001600061ffff168152602001600063ffffffff16815260200160008152602001600081525090565b828054600181600116156101000203166002900490600052602060002090601f016020900481019282601f1061263e57803560ff191683800117855561266c565b8280016001018555821561266c579182015b8281111561266b578235825591602001919060010190612650565b5b50905061267991906127c5565b5090565b828054600181600116156101000203166002900490600052602060002090601f016020900481019282601f106126be57803560ff19168380011785556126ec565b828001600101855582156126ec579182015b828111156126eb5782358255916020019190600101906126d0565b5b5090506126f991906127c5565b5090565b828054600181600116156101000203166002900490600052602060002090601f016020900481019282601f1061273e57805160ff191683800117855561276c565b8280016001018555821561276c579182015b8281111561276b578251825591602001919060010190612750565b5b50905061277991906127c5565b5090565b50805460018160011615610100020316600290046000825580601f106127a357506127c2565b601f0160209004906000526020600020908101906127c191906127c5565b5b50565b6127e791905b808211156127e35760008160009055506001016127cb565b5090565b90565b6000813590506127f98161367c565b92915050565b60008151905061280e8161367c565b92915050565b60008083601f84011261282657600080fd5b8235905067ffffffffffffffff81111561283f57600080fd5b60208301915083602082028301111561285757600080fd5b9250929050565b60008135905061286d81613693565b92915050565b600081359050612882816136aa565b92915050565b600081359050612897816136c1565b92915050565b60008083601f8401126128af57600080fd5b8235905067ffffffffffffffff8111156128c857600080fd5b6020830191508360018202830111156128e057600080fd5b9250929050565b600082601f8301126128f857600080fd5b813561290b61290682613486565b613459565b9150808252602083016020830185838301111561292757600080fd5b612932838284613629565b50505092915050565b60008083601f84011261294d57600080fd5b8235905067ffffffffffffffff81111561296657600080fd5b60208301915083600182028301111561297e57600080fd5b9250929050565b600081359050612994816136d8565b92915050565b6000813590506129a9816136ef565b92915050565b6000602082840312156129c157600080fd5b60006129cf848285016127ff565b91505092915050565b600080602083850312156129eb57600080fd5b600083013567ffffffffffffffff811115612a0557600080fd5b612a1185828601612814565b92509250509250929050565b600060208284031215612a2f57600080fd5b6000612a3d84828501612873565b91505092915050565b60008060408385031215612a5957600080fd5b6000612a6785828601612873565b9250506020612a78858286016127ea565b9150509250929050565b600080600060608486031215612a9757600080fd5b6000612aa586828701612873565b9350506020612ab6868287016127ea565b9250506040612ac7868287016127ea565b9150509250925092565b600080600060608486031215612ae657600080fd5b6000612af486828701612873565b9350506020612b05868287016127ea565b9250506040612b168682870161285e565b9150509250925092565b60008060408385031215612b3357600080fd5b6000612b4185828601612873565b9250506020612b5285828601612873565b9150509250929050565b600080600060608486031215612b7157600080fd5b6000612b7f86828701612873565b9350506020612b9086828701612873565b9250506040612ba186828701612873565b9150509250925092565b600080600060608486031215612bc057600080fd5b6000612bce86828701612873565b9350506020612bdf86828701612873565b9250506040612bf086828701612985565b9150509250925092565b60008060408385031215612c0d57600080fd5b6000612c1b85828601612873565b9250506020612c2c85828601612888565b9150509250929050565b600080600060608486031215612c4b57600080fd5b6000612c5986828701612873565b9350506020612c6a86828701612888565b9250506040612c7b868287016127ea565b9150509250925092565b600080600060408486031215612c9a57600080fd5b6000612ca886828701612873565b935050602084013567ffffffffffffffff811115612cc557600080fd5b612cd18682870161289d565b92509250509250925092565b600080600060408486031215612cf257600080fd5b6000612d0086828701612873565b935050602084013567ffffffffffffffff811115612d1d57600080fd5b612d298682870161293b565b92509250509250925092565b600080600080600060608688031215612d4d57600080fd5b6000612d5b88828901612873565b955050602086013567ffffffffffffffff811115612d7857600080fd5b612d848882890161293b565b9450945050604086013567ffffffffffffffff811115612da357600080fd5b612daf8882890161293b565b92509250509295509295909350565b60008060408385031215612dd157600080fd5b6000612ddf85828601612873565b9250506020612df08582860161299a565b9150509250929050565b60008060008060608587031215612e1057600080fd5b6000612e1e87828801612873565b9450506020612e2f8782880161299a565b935050604085013567ffffffffffffffff811115612e4c57600080fd5b612e588782880161289d565b925092505092959194509250565b600080600060608486031215612e7b57600080fd5b6000612e8986828701612873565b9350506020612e9a8682870161299a565b925050604084013567ffffffffffffffff811115612eb757600080fd5b612ec3868287016128e7565b9150509250925092565b600060208284031215612edf57600080fd5b6000612eed84828501612888565b91505092915050565b6000612f028383613095565b905092915050565b612f13816135f3565b82525050565b612f2281613567565b82525050565b612f3181613555565b82525050565b6000612f42826134c2565b612f4c81856134fb565b935083602082028501612f5e856134b2565b8060005b85811015612f9a5784840389528151612f7b8582612ef6565b9450612f86836134ee565b925060208a01995050600181019050612f62565b50829750879550505050505092915050565b612fb581613579565b82525050565b612fc481613585565b82525050565b612fd38161358f565b82525050565b6000612fe5838561351d565b9350612ff2838584613629565b612ffb8361366b565b840190509392505050565b6000613012838561352e565b935061301f838584613629565b82840190509392505050565b6000613036826134d8565b613040818561351d565b9350613050818560208601613638565b6130598161366b565b840191505092915050565b600061306f826134d8565b613079818561352e565b9350613089818560208601613638565b80840191505092915050565b60006130a0826134cd565b6130aa818561350c565b93506130ba818560208601613638565b6130c38161366b565b840191505092915050565b60006130da8385613539565b93506130e7838584613629565b6130f08361366b565b840190509392505050565b6000613107838561354a565b9350613114838584613629565b82840190509392505050565b600061312b826134e3565b6131358185613539565b9350613145818560208601613638565b61314e8161366b565b840191505092915050565b600061316660248361354a565b91507f696e74657266616365496d706c656d656e74657228627974657333322c62797460008301527f65733429000000000000000000000000000000000000000000000000000000006020830152602482019050919050565b6131c8816135bb565b82525050565b6131d7816135e9565b82525050565b60006131ea828486613006565b91508190509392505050565b60006132028284613064565b915081905092915050565b600061321a8284866130fb565b91508190509392505050565b600061323182613159565b9150819050919050565b60006020820190506132506000830184612f28565b92915050565b600060208201905061326b6000830184612f0a565b92915050565b60006020820190506132866000830184612f19565b92915050565b600060208201905081810360008301526132a68184612f37565b905092915050565b60006020820190506132c36000830184612fac565b92915050565b60006020820190506132de6000830184612fbb565b92915050565b60006040820190506132f96000830185612fbb565b6133066020830184612fbb565b9392505050565b60006020820190506133226000830184612fca565b92915050565b60006020820190508181036000830152613343818486612fd9565b90509392505050565b60006020820190508181036000830152613366818461302b565b905092915050565b60006040820190508181036000830152613388818561302b565b905061339760208301846131bf565b9392505050565b600060608201905081810360008301526133b8818661302b565b90506133c760208301856131bf565b81810360408301526133d9818461302b565b9050949350505050565b600060208201905081810360008301526133fe8184866130ce565b90509392505050565b600060208201905081810360008301526134218184613120565b905092915050565b600060408201905061343e60008301856131ce565b8181036020830152613450818461302b565b90509392505050565b6000604051905081810181811067ffffffffffffffff8211171561347c57600080fd5b8060405250919050565b600067ffffffffffffffff82111561349d57600080fd5b601f19601f8301169050602081019050919050565b6000819050602082019050919050565b600081519050919050565b600081519050919050565b600081519050919050565b600081519050919050565b6000602082019050919050565b600082825260208201905092915050565b600082825260208201905092915050565b600082825260208201905092915050565b600081905092915050565b600082825260208201905092915050565b600081905092915050565b6000613560826135c9565b9050919050565b6000613572826135c9565b9050919050565b60008115159050919050565b6000819050919050565b60007fffffffff0000000000000000000000000000000000000000000000000000000082169050919050565b600061ffff82169050919050565b600073ffffffffffffffffffffffffffffffffffffffff82169050919050565b6000819050919050565b60006135fe82613605565b9050919050565b600061361082613617565b9050919050565b6000613622826135c9565b9050919050565b82818337600083830152505050565b60005b8381101561365657808201518184015260208101905061363b565b83811115613665576000848401525b50505050565b6000601f19601f8301169050919050565b61368581613555565b811461369057600080fd5b50565b61369c81613579565b81146136a757600080fd5b50565b6136b381613585565b81146136be57600080fd5b50565b6136ca8161358f565b81146136d557600080fd5b50565b6136e1816135bb565b81146136ec57600080fd5b50565b6136f8816135e9565b811461370357600080fd5b5056fea365627a7a723158206f8b1aa6d41ef03e9dd90ff434f7f079f73bff3ef9d9f8316c2506edeec6909c6c6578706572696d656e74616cf564736f6c63430005110040",
  "source": "pragma solidity ^0.5.0;\npragma experimental ABIEncoderV2;\n\nimport \"@ensdomains/ens/contracts/ENS.sol\";\nimport \"./profiles/ABIResolver.sol\";\nimport \"./profiles/AddrResolver.sol\";\nimport \"./profiles/ContentHashResolver.sol\";\nimport \"./profiles/DNSResolver.sol\";\nimport \"./profiles/InterfaceResolver.sol\";\nimport \"./profiles/NameResolver.sol\";\nimport \"./profiles/PubkeyResolver.sol\";\nimport \"./profiles/TextResolver.sol\";\n\n/**\n * A simple resolver anyone can use; only allows the owner of a node to set its\n * address.\n */\ncontract PublicResolver is ABIResolver, AddrResolver, ContentHashResolver, DNSResolver, InterfaceResolver, NameResolver, PubkeyResolver, TextResolver {\n    ENS ens;\n\n    /**\n     * A mapping of authorisations. An address that is authorised for a name\n     * may make any changes to the name that the owner could, but may not update\n     * the set of authorisations.\n     * (node, owner, caller) => isAuthorised\n     */\n    mapping(bytes32=>mapping(address=>mapping(address=>bool))) public authorisations;\n\n    event AuthorisationChanged(bytes32 indexed node, address indexed owner, address indexed target, bool isAuthorised);\n\n    constructor(ENS _ens) public {\n        ens = _ens;\n    }\n\n    /**\n     * @dev Sets or clears an authorisation.\n     * Authorisations are specific to the caller. Any account can set an authorisation\n     * for any name, but the authorisation that is checked will be that of the\n     * current owner of a name. Thus, transferring a name effectively clears any\n     * existing authorisations, and new authorisations can be set in advance of\n     * an ownership transfer if desired.\n     *\n     * @param node The name to change the authorisation on.\n     * @param target The address that is to be authorised or deauthorised.\n     * @param isAuthorised True if the address should be authorised, or false if it should be deauthorised.\n     */\n    function setAuthorisation(bytes32 node, address target, bool isAuthorised) external {\n        authorisations[node][msg.sender][target] = isAuthorised;\n        emit AuthorisationChanged(node, msg.sender, target, isAuthorised);\n    }\n\n    function isAuthorised(bytes32 node) internal view returns(bool) {\n        address owner = ens.owner(node);\n        return owner == msg.sender || authorisations[node][owner][msg.sender];\n    }\n\n    function multicall(bytes[] calldata data) external returns(bytes[] memory results) {\n        results = new bytes[](data.length);\n        for(uint i = 0; i < data.length; i++) {\n            (bool success, bytes memory result) = address(this).delegatecall(data[i]);\n            require(success);\n            results[i] = result;\n        }\n        return results;\n    }\n}\n",
  "sourcePath": "@ensdomains/resolver/contracts/PublicResolver.sol",
  "compiler": {
    "name": "solc",
    "version": "0.5.17+commit.d19bba13.Emscripten.clang"
  },
  "schemaVersion": "3.3.4",
  "updatedAt": "2021-04-09T21:29:55.778Z",
  "devdoc": {
    "methods": {
      "ABI(bytes32,uint256)": {
        "params": {
          "contentTypes": "A bitwise OR of the ABI formats accepted by the caller.",
          "node": "The ENS node to query"
        },
        "return": "contentType The content type of the return valuedata The ABI data"
      },
      "addr(bytes32)": {
        "params": {
          "node": "The ENS node to query."
        },
        "return": "The associated address."
      },
      "clearDNSZone(bytes32)": {
        "params": {
          "node": "the namehash of the node for which to clear the zone"
        }
      },
      "contenthash(bytes32)": {
        "params": {
          "node": "The ENS node to query."
        },
        "return": "The associated contenthash."
      },
      "dnsRecord(bytes32,bytes32,uint16)": {
        "params": {
          "name": "the keccak-256 hash of the fully-qualified name for which to fetch the record",
          "node": "the namehash of the node for which to fetch the record",
          "resource": "the ID of the resource as per https://en.wikipedia.org/wiki/List_of_DNS_record_types"
        },
        "return": "the DNS record in wire format if present, otherwise empty"
      },
      "hasDNSRecords(bytes32,bytes32)": {
        "params": {
          "name": "the namehash of the node for which to check the records",
          "node": "the namehash of the node for which to check the records"
        }
      },
      "interfaceImplementer(bytes32,bytes4)": {
        "params": {
          "interfaceID": "The EIP 168 interface ID to check for.",
          "node": "The ENS node to query."
        },
        "return": "The address that implements this interface, or 0 if the interface is unsupported."
      },
      "name(bytes32)": {
        "params": {
          "node": "The ENS node to query."
        },
        "return": "The associated name."
      },
      "pubkey(bytes32)": {
        "params": {
          "node": "The ENS node to query"
        },
        "return": "x, y the X and Y coordinates of the curve point for the public key."
      },
      "setABI(bytes32,uint256,bytes)": {
        "params": {
          "contentType": "The content type of the ABI",
          "data": "The ABI data.",
          "node": "The node to update."
        }
      },
      "setAddr(bytes32,address)": {
        "params": {
          "a": "The address to set.",
          "node": "The node to update."
        }
      },
      "setAuthorisation(bytes32,address,bool)": {
        "details": "Sets or clears an authorisation. Authorisations are specific to the caller. Any account can set an authorisation for any name, but the authorisation that is checked will be that of the current owner of a name. Thus, transferring a name effectively clears any existing authorisations, and new authorisations can be set in advance of an ownership transfer if desired.",
        "params": {
          "isAuthorised": "True if the address should be authorised, or false if it should be deauthorised.",
          "node": "The name to change the authorisation on.",
          "target": "The address that is to be authorised or deauthorised."
        }
      },
      "setContenthash(bytes32,bytes)": {
        "params": {
          "hash": "The contenthash to set",
          "node": "The node to update."
        }
      },
      "setDNSRecords(bytes32,bytes)": {
        "params": {
          "data": "the DNS wire format records to set",
          "node": "the namehash of the node for which to set the records"
        }
      },
      "setInterface(bytes32,bytes4,address)": {
        "params": {
          "implementer": "The address of a contract that implements this interface for this node.",
          "interfaceID": "The EIP 168 interface ID.",
          "node": "The node to update."
        }
      },
      "setName(bytes32,string)": {
        "params": {
          "name": "The name to set.",
          "node": "The node to update."
        }
      },
      "setPubkey(bytes32,bytes32,bytes32)": {
        "params": {
          "node": "The ENS node to query",
          "x": "the X coordinate of the curve point for the public key.",
          "y": "the Y coordinate of the curve point for the public key."
        }
      },
      "setText(bytes32,string,string)": {
        "params": {
          "key": "The key to set.",
          "node": "The node to update.",
          "value": "The text data value to set."
        }
      },
      "text(bytes32,string)": {
        "params": {
          "key": "The text data key to query.",
          "node": "The ENS node to query."
        },
        "return": "The associated text data."
      }
    }
  },
  "userdoc": {
    "methods": {
      "ABI(bytes32,uint256)": {
        "notice": "Returns the ABI associated with an ENS node. Defined in EIP205."
      },
      "addr(bytes32)": {
        "notice": "Returns the address associated with an ENS node."
      },
      "clearDNSZone(bytes32)": {
        "notice": "Clear all information for a DNS zone."
      },
      "contenthash(bytes32)": {
        "notice": "Returns the contenthash associated with an ENS node."
      },
      "dnsRecord(bytes32,bytes32,uint16)": {
        "notice": "Obtain a DNS record."
      },
      "hasDNSRecords(bytes32,bytes32)": {
        "notice": "Check if a given node has records."
      },
      "interfaceImplementer(bytes32,bytes4)": {
        "notice": "Returns the address of a contract that implements the specified interface for this name. If an implementer has not been set for this interfaceID and name, the resolver will query the contract at `addr()`. If `addr()` is set, a contract exists at that address, and that contract implements EIP168 and returns `true` for the specified interfaceID, its address will be returned."
      },
      "name(bytes32)": {
        "notice": "Returns the name associated with an ENS node, for reverse records. Defined in EIP181."
      },
      "pubkey(bytes32)": {
        "notice": "Returns the SECP256k1 public key associated with an ENS node. Defined in EIP 619."
      },
      "setABI(bytes32,uint256,bytes)": {
        "notice": "Sets the ABI associated with an ENS node. Nodes may have one ABI of each content type. To remove an ABI, set it to the empty string."
      },
      "setAddr(bytes32,address)": {
        "notice": "Sets the address associated with an ENS node. May only be called by the owner of that node in the ENS registry."
      },
      "setContenthash(bytes32,bytes)": {
        "notice": "Sets the contenthash associated with an ENS node. May only be called by the owner of that node in the ENS registry."
      },
      "setDNSRecords(bytes32,bytes)": {
        "notice": "Set one or more DNS records.  Records are supplied in wire-format. Records with the same node/name/resource must be supplied one after the other to ensure the data is updated correctly. For example, if the data was supplied:    a.example.com IN A 1.2.3.4    a.example.com IN A 5.6.7.8    www.example.com IN CNAME a.example.com. then this would store the two A records for a.example.com correctly as a single RRSET, however if the data was supplied:    a.example.com IN A 1.2.3.4    www.example.com IN CNAME a.example.com.    a.example.com IN A 5.6.7.8 then this would store the first A record, the CNAME, then the second A record which would overwrite the first."
      },
      "setInterface(bytes32,bytes4,address)": {
        "notice": "Sets an interface associated with a name. Setting the address to 0 restores the default behaviour of querying the contract at `addr()` for interface support."
      },
      "setName(bytes32,string)": {
        "notice": "Sets the name associated with an ENS node, for reverse records. May only be called by the owner of that node in the ENS registry."
      },
      "setPubkey(bytes32,bytes32,bytes32)": {
        "notice": "Sets the SECP256k1 public key associated with an ENS node."
      },
      "setText(bytes32,string,string)": {
        "notice": "Sets the text data associated with an ENS node and key. May only be called by the owner of that node in the ENS registry."
      },
      "text(bytes32,string)": {
        "notice": "Returns the text data associated with an ENS node and key."
      }
    },
    "notice": "A simple resolver anyone can use; only allows the owner of a node to set its address."
  }
}